{
  "_format": "hh-sol-artifact-1",
  "contractName": "Vendor",
  "sourceName": "contracts/Vendor.sol",
  "abi": [
    {
      "inputs": [
        {
          "internalType": "address",
          "name": "tokenAddress",
          "type": "address"
        }
      ],
      "stateMutability": "nonpayable",
      "type": "constructor"
    },
    {
      "inputs": [
        {
          "internalType": "uint256",
          "name": "_amount",
          "type": "uint256"
        }
      ],
      "name": "stakeTokens",
      "outputs": [],
      "stateMutability": "nonpayable",
      "type": "function"
    },
    {
      "inputs": [
        {
          "internalType": "address",
          "name": "",
          "type": "address"
        }
      ],
      "name": "stakingBalance",
      "outputs": [
        {
          "internalType": "uint256",
          "name": "",
          "type": "uint256"
        }
      ],
      "stateMutability": "view",
      "type": "function"
    },
    {
      "inputs": [
        {
          "internalType": "uint256",
          "name": "_amount",
          "type": "uint256"
        }
      ],
      "name": "unstakeTokens",
      "outputs": [],
      "stateMutability": "nonpayable",
      "type": "function"
    }
  ],
  "bytecode": "0x608060405234801561001057600080fd5b50604051610a8f380380610a8f833981810160405281019061003291906100db565b806000806101000a81548173ffffffffffffffffffffffffffffffffffffffff021916908373ffffffffffffffffffffffffffffffffffffffff16021790555050610108565b600080fd5b600073ffffffffffffffffffffffffffffffffffffffff82169050919050565b60006100a88261007d565b9050919050565b6100b88161009d565b81146100c357600080fd5b50565b6000815190506100d5816100af565b92915050565b6000602082840312156100f1576100f0610078565b5b60006100ff848285016100c6565b91505092915050565b610978806101176000396000f3fe608060405234801561001057600080fd5b50600436106100415760003560e01c806345bc78ab14610046578063608e4dd0146100765780637547c7a314610092575b600080fd5b610060600480360381019061005b91906104ff565b6100ae565b60405161006d9190610545565b60405180910390f35b610090600480360381019061008b919061058c565b6100c6565b005b6100ac60048036038101906100a7919061058c565b610283565b005b60016020528060005260406000206000915090505481565b60008111610109576040517f08c379a000000000000000000000000000000000000000000000000000000000815260040161010090610616565b60405180910390fd5b80600160003373ffffffffffffffffffffffffffffffffffffffff1673ffffffffffffffffffffffffffffffffffffffff16815260200190815260200160002054101561018b576040517f08c379a000000000000000000000000000000000000000000000000000000000815260040161018290610682565b60405180910390fd5b60008054906101000a900473ffffffffffffffffffffffffffffffffffffffff1673ffffffffffffffffffffffffffffffffffffffff1663a9059cbb33836040518363ffffffff1660e01b81526004016101e69291906106b1565b6020604051808303816000875af1158015610205573d6000803e3d6000fd5b505050506040513d601f19601f820116820180604052508101906102299190610712565b5080600160003373ffffffffffffffffffffffffffffffffffffffff1673ffffffffffffffffffffffffffffffffffffffff1681526020019081526020016000206000828254610279919061076e565b9250508190555050565b600081116102c6576040517f08c379a00000000000000000000000000000000000000000000000000000000081526004016102bd906107ee565b60405180910390fd5b8060008054906101000a900473ffffffffffffffffffffffffffffffffffffffff1673ffffffffffffffffffffffffffffffffffffffff166370a08231336040518263ffffffff1660e01b8152600401610320919061080e565b602060405180830381865afa15801561033d573d6000803e3d6000fd5b505050506040513d601f19601f82011682018060405250810190610361919061083e565b10156103a2576040517f08c379a0000000000000000000000000000000000000000000000000000000008152600401610399906108b7565b60405180910390fd5b60008054906101000a900473ffffffffffffffffffffffffffffffffffffffff1673ffffffffffffffffffffffffffffffffffffffff166323b872dd3330846040518463ffffffff1660e01b81526004016103ff939291906108d7565b6020604051808303816000875af115801561041e573d6000803e3d6000fd5b505050506040513d601f19601f820116820180604052508101906104429190610712565b5080600160003373ffffffffffffffffffffffffffffffffffffffff1673ffffffffffffffffffffffffffffffffffffffff1681526020019081526020016000206000828254610492919061090e565b9250508190555050565b600080fd5b600073ffffffffffffffffffffffffffffffffffffffff82169050919050565b60006104cc826104a1565b9050919050565b6104dc816104c1565b81146104e757600080fd5b50565b6000813590506104f9816104d3565b92915050565b6000602082840312156105155761051461049c565b5b6000610523848285016104ea565b91505092915050565b6000819050919050565b61053f8161052c565b82525050565b600060208201905061055a6000830184610536565b92915050565b6105698161052c565b811461057457600080fd5b50565b60008135905061058681610560565b92915050565b6000602082840312156105a2576105a161049c565b5b60006105b084828501610577565b91505092915050565b600082825260208201905092915050565b7f20497a61626572692076656369206f6420300000000000000000000000000000600082015250565b60006106006012836105b9565b915061060b826105ca565b602082019050919050565b6000602082019050818103600083015261062f816105f3565b9050919050565b7f4e656d617320746f6c696b6f207374616b656f76616e696820746f6b656e6121600082015250565b600061066c6020836105b9565b915061067782610636565b602082019050919050565b6000602082019050818103600083015261069b8161065f565b9050919050565b6106ab816104c1565b82525050565b60006040820190506106c660008301856106a2565b6106d36020830184610536565b9392505050565b60008115159050919050565b6106ef816106da565b81146106fa57600080fd5b50565b60008151905061070c816106e6565b92915050565b6000602082840312156107285761072761049c565b5b6000610736848285016106fd565b91505092915050565b7f4e487b7100000000000000000000000000000000000000000000000000000000600052601160045260246000fd5b60006107798261052c565b91506107848361052c565b925082820390508181111561079c5761079b61073f565b5b92915050565b7f497a61626572692076656369206f642030000000000000000000000000000000600082015250565b60006107d86011836105b9565b91506107e3826107a2565b602082019050919050565b60006020820190508181036000830152610807816107cb565b9050919050565b600060208201905061082360008301846106a2565b92915050565b60008151905061083881610560565b92915050565b6000602082840312156108545761085361049c565b5b600061086284828501610829565b91505092915050565b7f4e656d617320746f6c696b6f20746f6b656e6121000000000000000000000000600082015250565b60006108a16014836105b9565b91506108ac8261086b565b602082019050919050565b600060208201905081810360008301526108d081610894565b9050919050565b60006060820190506108ec60008301866106a2565b6108f960208301856106a2565b6109066040830184610536565b949350505050565b60006109198261052c565b91506109248361052c565b925082820190508082111561093c5761093b61073f565b5b9291505056fea264697066735822122017932d9c0857b6b065af90508b7b1cde9fec401128c9c34d4e0b937ee79282b964736f6c63430008100033",
  "linkReferences": {},
  "deployedLinkReferences": {}
}