{
  "_format": "hh-sol-artifact-1",
  "contractName": "Rent",
  "sourceName": "contracts/Rent.sol",
  "abi": [
    {
      "inputs": [],
      "stateMutability": "nonpayable",
      "type": "constructor"
    },
    {
      "inputs": [],
      "name": "amount",
      "outputs": [
        {
          "internalType": "uint256",
          "name": "",
          "type": "uint256"
        }
      ],
      "stateMutability": "view",
      "type": "function"
    },
    {
      "inputs": [
        {
          "internalType": "address payable",
          "name": "_to",
          "type": "address"
        },
        {
          "internalType": "uint256",
          "name": "number_of_places",
          "type": "uint256"
        }
      ],
      "name": "transfer",
      "outputs": [],
      "stateMutability": "payable",
      "type": "function"
    },
    {
      "inputs": [],
      "name": "usdc",
      "outputs": [
        {
          "internalType": "contract USDC",
          "name": "",
          "type": "address"
        }
      ],
      "stateMutability": "view",
      "type": "function"
    }
  ],
  "bytecode": "0x608060405260fa60015534801561001557600080fd5b5073a0b86991c6218b36c1d19d4a2e9eb0ce3606eb486000806101000a81548173ffffffffffffffffffffffffffffffffffffffff021916908373ffffffffffffffffffffffffffffffffffffffff1602179055506106dd806100796000396000f3fe6080604052600436106100345760003560e01c80633e413bee14610039578063a9059cbb14610064578063aa8c217c14610080575b600080fd5b34801561004557600080fd5b5061004e6100ab565b60405161005b91906102ed565b60405180910390f35b61007e60048036038101906100799190610381565b6100cf565b005b34801561008c57600080fd5b50610095610268565b6040516100a291906103d0565b60405180910390f35b60008054906101000a900473ffffffffffffffffffffffffffffffffffffffff1681565b60008111610112576040517f08c379a000000000000000000000000000000000000000000000000000000000815260040161010990610448565b60405180910390fd5b806001546101209190610497565b341015610162576040517f08c379a00000000000000000000000000000000000000000000000000000000081526004016101599061053d565b60405180910390fd5b60008060009054906101000a900473ffffffffffffffffffffffffffffffffffffffff1673ffffffffffffffffffffffffffffffffffffffff166323b872dd3385856001546101b19190610497565b6040518463ffffffff1660e01b81526004016101cf9392919061059f565b602060405180830381600087803b1580156101e957600080fd5b505af11580156101fd573d6000803e3d6000fd5b505050506040513d601f19601f82011682018060405250810190610221919061060e565b905080610263576040517f08c379a000000000000000000000000000000000000000000000000000000000815260040161025a90610687565b60405180910390fd5b505050565b60015481565b600073ffffffffffffffffffffffffffffffffffffffff82169050919050565b6000819050919050565b60006102b36102ae6102a98461026e565b61028e565b61026e565b9050919050565b60006102c582610298565b9050919050565b60006102d7826102ba565b9050919050565b6102e7816102cc565b82525050565b600060208201905061030260008301846102de565b92915050565b600080fd5b60006103188261026e565b9050919050565b6103288161030d565b811461033357600080fd5b50565b6000813590506103458161031f565b92915050565b6000819050919050565b61035e8161034b565b811461036957600080fd5b50565b60008135905061037b81610355565b92915050565b6000806040838503121561039857610397610308565b5b60006103a685828601610336565b92505060206103b78582860161036c565b9150509250929050565b6103ca8161034b565b82525050565b60006020820190506103e560008301846103c1565b92915050565b600082825260208201905092915050565b7f616d6f756e742073686f756c64206265203e2030000000000000000000000000600082015250565b60006104326014836103eb565b915061043d826103fc565b602082019050919050565b6000602082019050818103600083015261046181610425565b9050919050565b7f4e487b7100000000000000000000000000000000000000000000000000000000600052601160045260246000fd5b60006104a28261034b565b91506104ad8361034b565b9250817fffffffffffffffffffffffffffffffffffffffffffffffffffffffffffffffff04831182151516156104e6576104e5610468565b5b828202905092915050565b7f796f7520646f6e74206861766520656e6f7567682066756e6473000000000000600082015250565b6000610527601a836103eb565b9150610532826104f1565b602082019050919050565b600060208201905081810360008301526105568161051a565b9050919050565b60006105688261026e565b9050919050565b6105788161055d565b82525050565b6000610589826102ba565b9050919050565b6105998161057e565b82525050565b60006060820190506105b4600083018661056f565b6105c16020830185610590565b6105ce60408301846103c1565b949350505050565b60008115159050919050565b6105eb816105d6565b81146105f657600080fd5b50565b600081519050610608816105e2565b92915050565b60006020828403121561062457610623610308565b5b6000610632848285016105f9565b91505092915050565b7f4661696c656420746f2073656e64204574686572000000000000000000000000600082015250565b60006106716014836103eb565b915061067c8261063b565b602082019050919050565b600060208201905081810360008301526106a081610664565b905091905056fea2646970667358221220c8ea0df94408cebc003e8e59d0b8caa056a4db5288923940795899d1f031aafb64736f6c63430008090033",
  "linkReferences": {},
  "deployedLinkReferences": {}
}