{
  "_format": "hh-sol-artifact-1",
  "contractName": "Rent",
  "sourceName": "contracts/Rent.sol",
  "abi": [
    {
      "inputs": [
        {
          "internalType": "address",
          "name": "tokenAddress",
          "type": "address"
        }
      ],
      "stateMutability": "nonpayable",
      "type": "constructor"
    },
    {
      "inputs": [],
      "name": "amount",
      "outputs": [
        {
          "internalType": "uint256",
          "name": "",
          "type": "uint256"
        }
      ],
      "stateMutability": "view",
      "type": "function"
    },
    {
      "inputs": [
        {
          "internalType": "address",
          "name": "_address",
          "type": "address"
        }
      ],
      "name": "getStakingBalance",
      "outputs": [
        {
          "internalType": "uint256",
          "name": "",
          "type": "uint256"
        }
      ],
      "stateMutability": "view",
      "type": "function"
    },
    {
      "inputs": [
        {
          "internalType": "address",
          "name": "_to",
          "type": "address"
        }
      ],
      "name": "getUserHash",
      "outputs": [
        {
          "internalType": "bytes32[]",
          "name": "",
          "type": "bytes32[]"
        }
      ],
      "stateMutability": "view",
      "type": "function"
    },
    {
      "inputs": [
        {
          "internalType": "address",
          "name": "_address",
          "type": "address"
        }
      ],
      "name": "numberOfFreePlacesForAddress",
      "outputs": [
        {
          "internalType": "uint256",
          "name": "",
          "type": "uint256"
        }
      ],
      "stateMutability": "view",
      "type": "function"
    },
    {
      "inputs": [
        {
          "internalType": "address",
          "name": "_address",
          "type": "address"
        }
      ],
      "name": "numberOfPlacesForAddress",
      "outputs": [
        {
          "internalType": "uint256",
          "name": "",
          "type": "uint256"
        }
      ],
      "stateMutability": "view",
      "type": "function"
    },
    {
      "inputs": [
        {
          "internalType": "address",
          "name": "_address",
          "type": "address"
        }
      ],
      "name": "numberOfRentedPlacesForAddress",
      "outputs": [
        {
          "internalType": "uint256",
          "name": "",
          "type": "uint256"
        }
      ],
      "stateMutability": "view",
      "type": "function"
    },
    {
      "inputs": [
        {
          "internalType": "address payable",
          "name": "_to",
          "type": "address"
        },
        {
          "internalType": "uint256",
          "name": "number_of_places",
          "type": "uint256"
        },
        {
          "internalType": "uint256",
          "name": "numberOfDays",
          "type": "uint256"
        }
      ],
      "name": "rentSeat",
      "outputs": [],
      "stateMutability": "payable",
      "type": "function"
    },
    {
      "inputs": [
        {
          "internalType": "uint256",
          "name": "_amount",
          "type": "uint256"
        }
      ],
      "name": "stakeTokens",
      "outputs": [],
      "stateMutability": "nonpayable",
      "type": "function"
    },
    {
      "inputs": [],
      "name": "ulaz",
      "outputs": [
        {
          "internalType": "bool",
          "name": "",
          "type": "bool"
        }
      ],
      "stateMutability": "view",
      "type": "function"
    },
    {
      "inputs": [
        {
          "internalType": "uint256",
          "name": "_amount",
          "type": "uint256"
        }
      ],
      "name": "unstakeTokens",
      "outputs": [],
      "stateMutability": "nonpayable",
      "type": "function"
    },
    {
      "inputs": [],
      "name": "usdc",
      "outputs": [
        {
          "internalType": "contract USDC",
          "name": "",
          "type": "address"
        }
      ],
      "stateMutability": "view",
      "type": "function"
    }
  ],
  "bytecode": "0x608060405260fa60025560646003553480156200001b57600080fd5b5060405162001cf938038062001cf9833981810160405281019062000041919062000147565b806000806101000a81548173ffffffffffffffffffffffffffffffffffffffff021916908373ffffffffffffffffffffffffffffffffffffffff16021790555073a0b86991c6218b36c1d19d4a2e9eb0ce3606eb48600160006101000a81548173ffffffffffffffffffffffffffffffffffffffff021916908373ffffffffffffffffffffffffffffffffffffffff1602179055505062000179565b600080fd5b600073ffffffffffffffffffffffffffffffffffffffff82169050919050565b60006200010f82620000e2565b9050919050565b620001218162000102565b81146200012d57600080fd5b50565b600081519050620001418162000116565b92915050565b60006020828403121562000160576200015f620000dd565b5b6000620001708482850162000130565b91505092915050565b611b7080620001896000396000f3fe60806040526004361061009c5760003560e01c80637547c7a3116100645780637547c7a3146101ac5780637b07145a146101d55780637ffb047e146101f1578063aa8c217c1461021c578063b04ef9c214610247578063c3c8f1d8146102845761009c565b80630435e352146100a15780632df2d93c146100de5780633e413bee1461011b578063608e4dd014610146578063643774521461016f575b600080fd5b3480156100ad57600080fd5b506100c860048036038101906100c391906110ba565b6102c1565b6040516100d59190611100565b60405180910390f35b3480156100ea57600080fd5b50610105600480360381019061010091906110ba565b6103b1565b6040516101129190611100565b60405180910390f35b34801561012757600080fd5b5061013061049e565b60405161013d919061117a565b60405180910390f35b34801561015257600080fd5b5061016d600480360381019061016891906111c1565b6104c4565b005b34801561017b57600080fd5b50610196600480360381019061019191906110ba565b6106bb565b6040516101a391906112b6565b60405180910390f35b3480156101b857600080fd5b506101d360048036038101906101ce91906111c1565b6107f3565b005b6101ef60048036038101906101ea9190611316565b610a0c565b005b3480156101fd57600080fd5b50610206610da1565b6040516102139190611384565b60405180910390f35b34801561022857600080fd5b50610231610e86565b60405161023e9190611100565b60405180910390f35b34801561025357600080fd5b5061026e600480360381019061026991906110ba565b610e8c565b60405161027b9190611100565b60405180910390f35b34801561029057600080fd5b506102ab60048036038101906102a691906110ba565b610ed5565b6040516102b89190611100565b60405180910390f35b60008060009054906101000a900473ffffffffffffffffffffffffffffffffffffffff1673ffffffffffffffffffffffffffffffffffffffff166318160ddd6040518163ffffffff1660e01b8152600401602060405180830381865afa15801561032f573d6000803e3d6000fd5b505050506040513d601f19601f8201168201806040525081019061035391906113b4565b600354600560008573ffffffffffffffffffffffffffffffffffffffff1673ffffffffffffffffffffffffffffffffffffffff168152602001908152602001600020546103a09190611410565b6103aa9190611499565b9050919050565b6000806000905060005b600480549050811015610494578373ffffffffffffffffffffffffffffffffffffffff16600482815481106103f3576103f26114ca565b5b906000526020600020906004020160000160009054906101000a900473ffffffffffffffffffffffffffffffffffffffff1673ffffffffffffffffffffffffffffffffffffffff1614801561046d57504260048281548110610458576104576114ca565b5b90600052602060002090600402016002015410155b1561048157818061047d906114f9565b9250505b808061048c906114f9565b9150506103bb565b5080915050919050565b600160009054906101000a900473ffffffffffffffffffffffffffffffffffffffff1681565b60008111610507576040517f08c379a00000000000000000000000000000000000000000000000000000000081526004016104fe9061159e565b60405180910390fd5b80600560003373ffffffffffffffffffffffffffffffffffffffff1673ffffffffffffffffffffffffffffffffffffffff168152602001908152602001600020541015610589576040517f08c379a00000000000000000000000000000000000000000000000000000000081526004016105809061160a565b60405180910390fd5b60008054906101000a900473ffffffffffffffffffffffffffffffffffffffff1673ffffffffffffffffffffffffffffffffffffffff1663a9059cbb33836040518363ffffffff1660e01b81526004016105e4929190611639565b6020604051808303816000875af1158015610603573d6000803e3d6000fd5b505050506040513d601f19601f82011682018060405250810190610627919061168e565b5080600560003373ffffffffffffffffffffffffffffffffffffffff1673ffffffffffffffffffffffffffffffffffffffff168152602001908152602001600020600082825461067791906116bb565b925050819055506000610689336102c1565b90506000610696336103b1565b9050808210156106b6576106b582826106af91906116bb565b33610efa565b5b505050565b6060806000805b6003548110156107e8578473ffffffffffffffffffffffffffffffffffffffff16600482815481106106f7576106f66114ca565b5b906000526020600020906004020160010160009054906101000a900473ffffffffffffffffffffffffffffffffffffffff1673ffffffffffffffffffffffffffffffffffffffff161480156107705750426004828154811061075c5761075b6114ca565b5b906000526020600020906004020160020154115b15610784578180610780906114f9565b9250505b60048181548110610798576107976114ca565b5b9060005260206000209060040201600301548383806107b6906114f9565b9450815181106107c9576107c86114ca565b5b60200260200101818152505080806107e0906114f9565b9150506106c2565b508192505050919050565b60008111610836576040517f08c379a000000000000000000000000000000000000000000000000000000000815260040161082d9061173b565b60405180910390fd5b8060008054906101000a900473ffffffffffffffffffffffffffffffffffffffff1673ffffffffffffffffffffffffffffffffffffffff166370a08231336040518263ffffffff1660e01b8152600401610890919061175b565b602060405180830381865afa1580156108ad573d6000803e3d6000fd5b505050506040513d601f19601f820116820180604052508101906108d191906113b4565b1015610912576040517f08c379a0000000000000000000000000000000000000000000000000000000008152600401610909906117c2565b60405180910390fd5b60008054906101000a900473ffffffffffffffffffffffffffffffffffffffff1673ffffffffffffffffffffffffffffffffffffffff166323b872dd3330846040518463ffffffff1660e01b815260040161096f939291906117e2565b6020604051808303816000875af115801561098e573d6000803e3d6000fd5b505050506040513d601f19601f820116820180604052508101906109b2919061168e565b5080600560003373ffffffffffffffffffffffffffffffffffffffff1673ffffffffffffffffffffffffffffffffffffffff1681526020019081526020016000206000828254610a029190611819565b9250508190555050565b60008111610a4f576040517f08c379a0000000000000000000000000000000000000000000000000000000008152600401610a4690611899565b60405180910390fd5b60008211610a92576040517f08c379a0000000000000000000000000000000000000000000000000000000008152600401610a8990611905565b60405180910390fd5b81610a9c84610ed5565b1015610add576040517f08c379a0000000000000000000000000000000000000000000000000000000008152600401610ad490611997565b60405180910390fd5b81600254610aeb9190611410565b341015610b2d576040517f08c379a0000000000000000000000000000000000000000000000000000000008152600401610b2490611a03565b60405180910390fd5b6000600160009054906101000a900473ffffffffffffffffffffffffffffffffffffffff1673ffffffffffffffffffffffffffffffffffffffff166323b872dd3386601e8688600254610b809190611410565b610b8a9190611410565b610b949190611499565b6040518463ffffffff1660e01b8152600401610bb293929190611a44565b6020604051808303816000875af1158015610bd1573d6000803e3d6000fd5b505050506040513d601f19601f82011682018060405250810190610bf5919061168e565b905080610c37576040517f08c379a0000000000000000000000000000000000000000000000000000000008152600401610c2e90611ac7565b60405180910390fd5b60006201518083610c489190611410565b42610c539190611819565b905060005b84811015610d9957600460405180608001604052808873ffffffffffffffffffffffffffffffffffffffff1681526020013373ffffffffffffffffffffffffffffffffffffffff168152602001848152602001610cb689858761101d565b815250908060018154018082558091505060019003906000526020600020906004020160009091909190915060008201518160000160006101000a81548173ffffffffffffffffffffffffffffffffffffffff021916908373ffffffffffffffffffffffffffffffffffffffff16021790555060208201518160010160006101000a81548173ffffffffffffffffffffffffffffffffffffffff021916908373ffffffffffffffffffffffffffffffffffffffff160217905550604082015181600201556060820151816003015550508080610d91906114f9565b915050610c58565b505050505050565b600080600090505b600480549050811015610e7d573373ffffffffffffffffffffffffffffffffffffffff1660048281548110610de157610de06114ca565b5b906000526020600020906004020160010160009054906101000a900473ffffffffffffffffffffffffffffffffffffffff1673ffffffffffffffffffffffffffffffffffffffff16148015610e5b57504260048281548110610e4657610e456114ca565b5b90600052602060002090600402016002015410155b15610e6a576001915050610e83565b8080610e75906114f9565b915050610da9565b50600090505b90565b60025481565b6000600560008373ffffffffffffffffffffffffffffffffffffffff1673ffffffffffffffffffffffffffffffffffffffff168152602001908152602001600020549050919050565b6000610ee0826103b1565b610ee9836102c1565b610ef391906116bb565b9050919050565b60005b600480549050811015611018578173ffffffffffffffffffffffffffffffffffffffff1660048281548110610f3557610f346114ca565b5b906000526020600020906004020160000160009054906101000a900473ffffffffffffffffffffffffffffffffffffffff1673ffffffffffffffffffffffffffffffffffffffff16148015610faf575060048181548110610f9957610f986114ca565b5b9060005260206000209060040201600201544211155b15610ffc57600183610fc191906116bb565b92506201518042610fd291906116bb565b60048281548110610fe657610fe56114ca565b5b9060005260206000209060040201600201819055505b6000830315611018578080611010906114f9565b915050610efd565b505050565b60008383334285604051602001611038959493929190611ae7565b6040516020818303038152906040528051906020012090509392505050565b600080fd5b600073ffffffffffffffffffffffffffffffffffffffff82169050919050565b60006110878261105c565b9050919050565b6110978161107c565b81146110a257600080fd5b50565b6000813590506110b48161108e565b92915050565b6000602082840312156110d0576110cf611057565b5b60006110de848285016110a5565b91505092915050565b6000819050919050565b6110fa816110e7565b82525050565b600060208201905061111560008301846110f1565b92915050565b6000819050919050565b600061114061113b6111368461105c565b61111b565b61105c565b9050919050565b600061115282611125565b9050919050565b600061116482611147565b9050919050565b61117481611159565b82525050565b600060208201905061118f600083018461116b565b92915050565b61119e816110e7565b81146111a957600080fd5b50565b6000813590506111bb81611195565b92915050565b6000602082840312156111d7576111d6611057565b5b60006111e5848285016111ac565b91505092915050565b600081519050919050565b600082825260208201905092915050565b6000819050602082019050919050565b6000819050919050565b61122d8161121a565b82525050565b600061123f8383611224565b60208301905092915050565b6000602082019050919050565b6000611263826111ee565b61126d81856111f9565b93506112788361120a565b8060005b838110156112a95781516112908882611233565b975061129b8361124b565b92505060018101905061127c565b5085935050505092915050565b600060208201905081810360008301526112d08184611258565b905092915050565b60006112e38261105c565b9050919050565b6112f3816112d8565b81146112fe57600080fd5b50565b600081359050611310816112ea565b92915050565b60008060006060848603121561132f5761132e611057565b5b600061133d86828701611301565b935050602061134e868287016111ac565b925050604061135f868287016111ac565b9150509250925092565b60008115159050919050565b61137e81611369565b82525050565b60006020820190506113996000830184611375565b92915050565b6000815190506113ae81611195565b92915050565b6000602082840312156113ca576113c9611057565b5b60006113d88482850161139f565b91505092915050565b7f4e487b7100000000000000000000000000000000000000000000000000000000600052601160045260246000fd5b600061141b826110e7565b9150611426836110e7565b9250817fffffffffffffffffffffffffffffffffffffffffffffffffffffffffffffffff048311821515161561145f5761145e6113e1565b5b828202905092915050565b7f4e487b7100000000000000000000000000000000000000000000000000000000600052601260045260246000fd5b60006114a4826110e7565b91506114af836110e7565b9250826114bf576114be61146a565b5b828204905092915050565b7f4e487b7100000000000000000000000000000000000000000000000000000000600052603260045260246000fd5b6000611504826110e7565b91507fffffffffffffffffffffffffffffffffffffffffffffffffffffffffffffffff8203611536576115356113e1565b5b600182019050919050565b600082825260208201905092915050565b7f20497a61626572692076656369206f6420300000000000000000000000000000600082015250565b6000611588601283611541565b915061159382611552565b602082019050919050565b600060208201905081810360008301526115b78161157b565b9050919050565b7f4e656d617320746f6c696b6f207374616b656f76616e696820746f6b656e6121600082015250565b60006115f4602083611541565b91506115ff826115be565b602082019050919050565b60006020820190508181036000830152611623816115e7565b9050919050565b6116338161107c565b82525050565b600060408201905061164e600083018561162a565b61165b60208301846110f1565b9392505050565b61166b81611369565b811461167657600080fd5b50565b60008151905061168881611662565b92915050565b6000602082840312156116a4576116a3611057565b5b60006116b284828501611679565b91505092915050565b60006116c6826110e7565b91506116d1836110e7565b92508282039050818111156116e9576116e86113e1565b5b92915050565b7f497a61626572692076656369206f642030000000000000000000000000000000600082015250565b6000611725601183611541565b9150611730826116ef565b602082019050919050565b6000602082019050818103600083015261175481611718565b9050919050565b6000602082019050611770600083018461162a565b92915050565b7f4e656d617320746f6c696b6f20746f6b656e6121000000000000000000000000600082015250565b60006117ac601483611541565b91506117b782611776565b602082019050919050565b600060208201905081810360008301526117db8161179f565b9050919050565b60006060820190506117f7600083018661162a565b611804602083018561162a565b61181160408301846110f1565b949350505050565b6000611824826110e7565b915061182f836110e7565b9250828201905080821115611847576118466113e1565b5b92915050565b7f497a61626572692076697365206f6420302064616e6100000000000000000000600082015250565b6000611883601683611541565b915061188e8261184d565b602082019050919050565b600060208201905081810360008301526118b281611876565b9050919050565b7f497a61626572692076697365206f642030206d65737461000000000000000000600082015250565b60006118ef601783611541565b91506118fa826118b9565b602082019050919050565b6000602082019050818103600083015261191e816118e2565b9050919050565b7f4e696a65206d6f677563652072656e74697261746920746f6c696b6f206d657360008201527f7461000000000000000000000000000000000000000000000000000000000000602082015250565b6000611981602283611541565b915061198c82611925565b604082019050919050565b600060208201905081810360008301526119b081611974565b9050919050565b7f796f7520646f6e74206861766520656e6f7567682066756e6473000000000000600082015250565b60006119ed601a83611541565b91506119f8826119b7565b602082019050919050565b60006020820190508181036000830152611a1c816119e0565b9050919050565b6000611a2e82611147565b9050919050565b611a3e81611a23565b82525050565b6000606082019050611a59600083018661162a565b611a666020830185611a35565b611a7360408301846110f1565b949350505050565b7f4661696c656420746f2073656e64205553444300000000000000000000000000600082015250565b6000611ab1601383611541565b9150611abc82611a7b565b602082019050919050565b60006020820190508181036000830152611ae081611aa4565b9050919050565b600060a082019050611afc600083018861162a565b611b0960208301876110f1565b611b16604083018661162a565b611b2360608301856110f1565b611b3060808301846110f1565b969550505050505056fea2646970667358221220d75a3bf00a26dc65f53b6e29ce94f0da5ef9d04f5d0861a4acef1b607c94630764736f6c63430008100033",
  "linkReferences": {},
  "deployedLinkReferences": {}
}