{
  "_format": "hh-sol-artifact-1",
  "contractName": "Rent",
  "sourceName": "contracts/Rent.sol",
  "abi": [
    {
      "inputs": [
        {
          "internalType": "address",
          "name": "tokenAddress",
          "type": "address"
        },
        {
          "internalType": "uint64",
          "name": "subscriptionId",
          "type": "uint64"
        }
      ],
      "stateMutability": "nonpayable",
      "type": "constructor"
    },
    {
      "inputs": [
        {
          "internalType": "address",
          "name": "have",
          "type": "address"
        },
        {
          "internalType": "address",
          "name": "want",
          "type": "address"
        }
      ],
      "name": "OnlyCoordinatorCanFulfill",
      "type": "error"
    },
    {
      "anonymous": false,
      "inputs": [],
      "name": "RentPlaceEvent",
      "type": "event"
    },
    {
      "inputs": [],
      "name": "getAmount",
      "outputs": [
        {
          "internalType": "uint256",
          "name": "",
          "type": "uint256"
        }
      ],
      "stateMutability": "view",
      "type": "function"
    },
    {
      "inputs": [
        {
          "internalType": "uint256",
          "name": "cnt",
          "type": "uint256"
        }
      ],
      "name": "getExpireDate",
      "outputs": [
        {
          "internalType": "uint256",
          "name": "",
          "type": "uint256"
        }
      ],
      "stateMutability": "view",
      "type": "function"
    },
    {
      "inputs": [
        {
          "internalType": "uint256",
          "name": "cnt",
          "type": "uint256"
        }
      ],
      "name": "getExpireDateOfExpiredTickets",
      "outputs": [
        {
          "internalType": "uint256",
          "name": "",
          "type": "uint256"
        }
      ],
      "stateMutability": "view",
      "type": "function"
    },
    {
      "inputs": [],
      "name": "getNumberOfSeats",
      "outputs": [
        {
          "internalType": "uint256",
          "name": "",
          "type": "uint256"
        }
      ],
      "stateMutability": "view",
      "type": "function"
    },
    {
      "inputs": [
        {
          "internalType": "address",
          "name": "_address",
          "type": "address"
        }
      ],
      "name": "getStakingBalance",
      "outputs": [
        {
          "internalType": "uint256",
          "name": "",
          "type": "uint256"
        }
      ],
      "stateMutability": "view",
      "type": "function"
    },
    {
      "inputs": [],
      "name": "getUserHash",
      "outputs": [
        {
          "internalType": "bytes32[]",
          "name": "",
          "type": "bytes32[]"
        }
      ],
      "stateMutability": "view",
      "type": "function"
    },
    {
      "inputs": [],
      "name": "getUserHashOfExpiredTickets",
      "outputs": [
        {
          "internalType": "bytes32[]",
          "name": "",
          "type": "bytes32[]"
        }
      ],
      "stateMutability": "view",
      "type": "function"
    },
    {
      "inputs": [
        {
          "internalType": "address",
          "name": "_address",
          "type": "address"
        }
      ],
      "name": "numberOfFreePlacesForAddress",
      "outputs": [
        {
          "internalType": "uint256",
          "name": "",
          "type": "uint256"
        }
      ],
      "stateMutability": "view",
      "type": "function"
    },
    {
      "inputs": [
        {
          "internalType": "address",
          "name": "_address",
          "type": "address"
        }
      ],
      "name": "numberOfPlacesForAddress",
      "outputs": [
        {
          "internalType": "uint256",
          "name": "",
          "type": "uint256"
        }
      ],
      "stateMutability": "view",
      "type": "function"
    },
    {
      "inputs": [
        {
          "internalType": "address",
          "name": "_address",
          "type": "address"
        }
      ],
      "name": "numberOfRentedPlacesForAddress",
      "outputs": [
        {
          "internalType": "uint256",
          "name": "",
          "type": "uint256"
        }
      ],
      "stateMutability": "view",
      "type": "function"
    },
    {
      "inputs": [
        {
          "internalType": "uint256",
          "name": "requestId",
          "type": "uint256"
        },
        {
          "internalType": "uint256[]",
          "name": "randomWords",
          "type": "uint256[]"
        }
      ],
      "name": "rawFulfillRandomWords",
      "outputs": [],
      "stateMutability": "nonpayable",
      "type": "function"
    },
    {
      "inputs": [
        {
          "internalType": "uint256",
          "name": "number_of_places",
          "type": "uint256"
        },
        {
          "internalType": "uint256",
          "name": "numberOfDays",
          "type": "uint256"
        }
      ],
      "name": "rentSeat",
      "outputs": [],
      "stateMutability": "payable",
      "type": "function"
    },
    {
      "inputs": [
        {
          "internalType": "uint256",
          "name": "_amount",
          "type": "uint256"
        }
      ],
      "name": "stakeTokens",
      "outputs": [],
      "stateMutability": "nonpayable",
      "type": "function"
    },
    {
      "inputs": [
        {
          "internalType": "uint256",
          "name": "_amount",
          "type": "uint256"
        }
      ],
      "name": "unstakeTokens",
      "outputs": [],
      "stateMutability": "nonpayable",
      "type": "function"
    }
  ],
  "bytecode": "0x60a0604052630ee6b280600255601e6003556064600455732ca8e0c643bde4c2e08ab1fa0da3401adad7734d600a60006101000a81548173ffffffffffffffffffffffffffffffffffffffff021916908373ffffffffffffffffffffffffffffffffffffffff1602179055507f79d3d8832d904592c0bf9818b621522c988bb8b0c05cdc3b15aea1b6e8db0c1560001b600b55622625a0600c60006101000a81548163ffffffff021916908363ffffffff1602179055506003600c60186101000a81548161ffff021916908361ffff160217905550348015620000e157600080fd5b5060405162002b2038038062002b208339818101604052810190620001079190620003b9565b600a60009054906101000a900473ffffffffffffffffffffffffffffffffffffffff168073ffffffffffffffffffffffffffffffffffffffff1660808173ffffffffffffffffffffffffffffffffffffffff168152505050600a60009054906101000a900473ffffffffffffffffffffffffffffffffffffffff16600960006101000a81548173ffffffffffffffffffffffffffffffffffffffff021916908373ffffffffffffffffffffffffffffffffffffffff16021790555033600c60046101000a81548173ffffffffffffffffffffffffffffffffffffffff021916908373ffffffffffffffffffffffffffffffffffffffff16021790555080600960146101000a81548167ffffffffffffffff021916908367ffffffffffffffff160217905550816000806101000a81548173ffffffffffffffffffffffffffffffffffffffff021916908373ffffffffffffffffffffffffffffffffffffffff16021790555073d87ba7a50b2e7e660f678a895e4b72e7cb4ccd9c600160006101000a81548173ffffffffffffffffffffffffffffffffffffffff021916908373ffffffffffffffffffffffffffffffffffffffff16021790555033600560006101000a81548173ffffffffffffffffffffffffffffffffffffffff021916908373ffffffffffffffffffffffffffffffffffffffff160217905550505062000400565b600080fd5b600073ffffffffffffffffffffffffffffffffffffffff82169050919050565b60006200033c826200030f565b9050919050565b6200034e816200032f565b81146200035a57600080fd5b50565b6000815190506200036e8162000343565b92915050565b600067ffffffffffffffff82169050919050565b620003938162000374565b81146200039f57600080fd5b50565b600081519050620003b38162000388565b92915050565b60008060408385031215620003d357620003d26200030a565b5b6000620003e3858286016200035d565b9250506020620003f685828601620003a2565b9150509250929050565b6080516126fd620004236000396000818161049201526104e601526126fd6000f3fe6080604052600436106100dd5760003560e01c8063a48517201161007f578063beb4cef411610059578063beb4cef4146102d5578063c3c8f1d814610300578063d321fe291461033d578063ec5a27ad14610368576100dd565b8063a48517201461021e578063b04ef9c21461025b578063bda0ff5314610298576100dd565b8063608e4dd0116100bb578063608e4dd0146101855780637547c7a3146101ae5780638677b4e2146101d75780639be910a214610202576100dd565b80630435e352146100e25780631fe543e31461011f5780632df2d93c14610148575b600080fd5b3480156100ee57600080fd5b5061010960048036038101906101049190611a2c565b610393565b6040516101169190611a72565b60405180910390f35b34801561012b57600080fd5b5061014660048036038101906101419190611c12565b610490565b005b34801561015457600080fd5b5061016f600480360381019061016a9190611a2c565b610550565b60405161017c9190611a72565b60405180910390f35b34801561019157600080fd5b506101ac60048036038101906101a79190611c6e565b61063d565b005b3480156101ba57600080fd5b506101d560048036038101906101d09190611c6e565b610985565b005b3480156101e357600080fd5b506101ec610bd4565b6040516101f99190611d63565b60405180910390f35b61021c60048036038101906102179190611d85565b610d57565b005b34801561022a57600080fd5b5061024560048036038101906102409190611c6e565b611240565b6040516102529190611a72565b60405180910390f35b34801561026757600080fd5b50610282600480360381019061027d9190611a2c565b61135e565b60405161028f9190611a72565b60405180910390f35b3480156102a457600080fd5b506102bf60048036038101906102ba9190611c6e565b6113a7565b6040516102cc9190611a72565b60405180910390f35b3480156102e157600080fd5b506102ea6114c4565b6040516102f79190611a72565b60405180910390f35b34801561030c57600080fd5b5061032760048036038101906103229190611a2c565b6114ce565b6040516103349190611a72565b60405180910390f35b34801561034957600080fd5b506103526114fa565b60405161035f9190611a72565b60405180910390f35b34801561037457600080fd5b5061037d611504565b60405161038a9190611d63565b60405180910390f35b600061048960008054906101000a900473ffffffffffffffffffffffffffffffffffffffff1673ffffffffffffffffffffffffffffffffffffffff166318160ddd6040518163ffffffff1660e01b8152600401602060405180830381865afa158015610403573d6000803e3d6000fd5b505050506040513d601f19601f820116820180604052508101906104279190611dda565b61047b600454600660008773ffffffffffffffffffffffffffffffffffffffff1673ffffffffffffffffffffffffffffffffffffffff1681526020019081526020016000205461175d90919063ffffffff16565b61177390919063ffffffff16565b9050919050565b7f000000000000000000000000000000000000000000000000000000000000000073ffffffffffffffffffffffffffffffffffffffff163373ffffffffffffffffffffffffffffffffffffffff161461054257337f00000000000000000000000000000000000000000000000000000000000000006040517f1cf993f4000000000000000000000000000000000000000000000000000000008152600401610539929190611e16565b60405180910390fd5b61054c8282611789565b5050565b6000806000905060005b600880549050811015610633578373ffffffffffffffffffffffffffffffffffffffff166008828154811061059257610591611e3f565b5b906000526020600020906003020160000160009054906101000a900473ffffffffffffffffffffffffffffffffffffffff1673ffffffffffffffffffffffffffffffffffffffff1614801561060c575042600882815481106105f7576105f6611e3f565b5b90600052602060002090600302016001015410155b1561062057818061061c90611e9d565b9250505b808061062b90611e9d565b91505061055a565b5080915050919050565b60008111610680576040517f08c379a000000000000000000000000000000000000000000000000000000000815260040161067790611f42565b60405180910390fd5b80600660003373ffffffffffffffffffffffffffffffffffffffff1673ffffffffffffffffffffffffffffffffffffffff168152602001908152602001600020541015610702576040517f08c379a00000000000000000000000000000000000000000000000000000000081526004016106f990611fae565b60405180910390fd5b600061070d33610550565b905060006107c66004546107b860008054906101000a900473ffffffffffffffffffffffffffffffffffffffff1673ffffffffffffffffffffffffffffffffffffffff166318160ddd6040518163ffffffff1660e01b8152600401602060405180830381865afa158015610785573d6000803e3d6000fd5b505050506040513d601f19601f820116820180604052508101906107a99190611dda565b8561175d90919063ffffffff16565b61177390919063ffffffff16565b905080600660003373ffffffffffffffffffffffffffffffffffffffff1673ffffffffffffffffffffffffffffffffffffffff168152602001908152602001600020546108139190611fce565b831115610855576040517f08c379a000000000000000000000000000000000000000000000000000000000815260040161084c90612074565b60405180910390fd5b60008054906101000a900473ffffffffffffffffffffffffffffffffffffffff1673ffffffffffffffffffffffffffffffffffffffff1663a9059cbb33856040518363ffffffff1660e01b81526004016108b0929190612094565b6020604051808303816000875af11580156108cf573d6000803e3d6000fd5b505050506040513d601f19601f820116820180604052508101906108f391906120f5565b5061093d600660003373ffffffffffffffffffffffffffffffffffffffff1673ffffffffffffffffffffffffffffffffffffffff1681526020019081526020016000205484611951565b600660003373ffffffffffffffffffffffffffffffffffffffff1673ffffffffffffffffffffffffffffffffffffffff16815260200190815260200160002081905550505050565b600081116109c8576040517f08c379a00000000000000000000000000000000000000000000000000000000081526004016109bf9061216e565b60405180910390fd5b8060008054906101000a900473ffffffffffffffffffffffffffffffffffffffff1673ffffffffffffffffffffffffffffffffffffffff166370a08231336040518263ffffffff1660e01b8152600401610a22919061218e565b602060405180830381865afa158015610a3f573d6000803e3d6000fd5b505050506040513d601f19601f82011682018060405250810190610a639190611dda565b1015610aa4576040517f08c379a0000000000000000000000000000000000000000000000000000000008152600401610a9b906121f5565b60405180910390fd5b60008054906101000a900473ffffffffffffffffffffffffffffffffffffffff1673ffffffffffffffffffffffffffffffffffffffff166323b872dd3330846040518463ffffffff1660e01b8152600401610b0193929190612215565b6020604051808303816000875af1158015610b20573d6000803e3d6000fd5b505050506040513d601f19601f82011682018060405250810190610b4491906120f5565b50610b8e81600660003373ffffffffffffffffffffffffffffffffffffffff1673ffffffffffffffffffffffffffffffffffffffff16815260200190815260200160002054611967565b600660003373ffffffffffffffffffffffffffffffffffffffff1673ffffffffffffffffffffffffffffffffffffffff1681526020019081526020016000208190555050565b60606000610be133610550565b67ffffffffffffffff811115610bfa57610bf9611acf565b5b604051908082528060200260200182016040528015610c285781602001602082028036833780820191505090505b5090506000805b600880549050811015610d4e573373ffffffffffffffffffffffffffffffffffffffff1660088281548110610c6757610c66611e3f565b5b906000526020600020906003020160000160009054906101000a900473ffffffffffffffffffffffffffffffffffffffff1673ffffffffffffffffffffffffffffffffffffffff16148015610ce157504260088281548110610ccc57610ccb611e3f565b5b90600052602060002090600302016001015410155b15610d3b5760088181548110610cfa57610cf9611e3f565b5b906000526020600020906003020160020154838381518110610d1f57610d1e611e3f565b5b602002602001018181525050600182610d38919061224c565b91505b8080610d4690611e9d565b915050610c2f565b50819250505090565b60008111610d9a576040517f08c379a0000000000000000000000000000000000000000000000000000000008152600401610d91906122cc565b60405180910390fd5b60008211610ddd576040517f08c379a0000000000000000000000000000000000000000000000000000000008152600401610dd490612338565b60405180910390fd5b81610de7336114ce565b1015610e28576040517f08c379a0000000000000000000000000000000000000000000000000000000008152600401610e1f906123ca565b60405180910390fd5b6000610e5c600354610e4e600254610e40878761175d565b61175d90919063ffffffff16565b61177390919063ffffffff16565b905080600160009054906101000a900473ffffffffffffffffffffffffffffffffffffffff1673ffffffffffffffffffffffffffffffffffffffff166370a08231336040518263ffffffff1660e01b8152600401610eba919061218e565b602060405180830381865afa158015610ed7573d6000803e3d6000fd5b505050506040513d601f19601f82011682018060405250810190610efb9190611dda565b1015610f3c576040517f08c379a0000000000000000000000000000000000000000000000000000000008152600401610f3390612436565b60405180910390fd5b6000600160009054906101000a900473ffffffffffffffffffffffffffffffffffffffff1673ffffffffffffffffffffffffffffffffffffffff166323b872dd33600560009054906101000a900473ffffffffffffffffffffffffffffffffffffffff16856040518463ffffffff1660e01b8152600401610fbf93929190612215565b6020604051808303816000875af1158015610fde573d6000803e3d6000fd5b505050506040513d601f19601f8201168201806040525081019061100291906120f5565b905080611044576040517f08c379a000000000000000000000000000000000000000000000000000000000815260040161103b906124a2565b60405180910390fd5b6000620151808461105591906124c2565b42611060919061224c565b905060008590506000600960009054906101000a900473ffffffffffffffffffffffffffffffffffffffff1673ffffffffffffffffffffffffffffffffffffffff16635d3b1d30600b54600960149054906101000a900467ffffffffffffffff16600c60189054906101000a900461ffff16600c60009054906101000a900463ffffffff16876040518663ffffffff1660e01b815260040161110695949392919061258a565b6020604051808303816000875af1158015611125573d6000803e3d6000fd5b505050506040513d601f19601f820116820180604052508101906111499190611dda565b905060005b87811015611236576007600083815260200190815260200160002060405180606001604052803373ffffffffffffffffffffffffffffffffffffffff1681526020018681526020016000801b815250908060018154018082558091505060019003906000526020600020906003020160009091909190915060008201518160000160006101000a81548173ffffffffffffffffffffffffffffffffffffffff021916908373ffffffffffffffffffffffffffffffffffffffff16021790555060208201518160010155604082015181600201555050808061122e90611e9d565b91505061114e565b5050505050505050565b600080600090505b600880549050811015611357573373ffffffffffffffffffffffffffffffffffffffff16600882815481106112805761127f611e3f565b5b906000526020600020906003020160000160009054906101000a900473ffffffffffffffffffffffffffffffffffffffff1673ffffffffffffffffffffffffffffffffffffffff161480156112fa575042600882815481106112e5576112e4611e3f565b5b90600052602060002090600302016001015410155b156113445760008303611335576008818154811061131b5761131a611e3f565b5b906000526020600020906003020160010154915050611359565b8280611340906125dd565b9350505b808061134f90611e9d565b915050611248565b505b919050565b6000600660008373ffffffffffffffffffffffffffffffffffffffff1673ffffffffffffffffffffffffffffffffffffffff168152602001908152602001600020549050919050565b600080600090505b6008805490508110156114bd573373ffffffffffffffffffffffffffffffffffffffff16600882815481106113e7576113e6611e3f565b5b906000526020600020906003020160000160009054906101000a900473ffffffffffffffffffffffffffffffffffffffff1673ffffffffffffffffffffffffffffffffffffffff161480156114605750426008828154811061144c5761144b611e3f565b5b906000526020600020906003020160010154105b156114aa576000830361149b576008818154811061148157611480611e3f565b5b9060005260206000209060030201600101549150506114bf565b82806114a6906125dd565b9350505b80806114b590611e9d565b9150506113af565b505b919050565b6000600454905090565b60006114f36114dc83610550565b6114e584610393565b61195190919063ffffffff16565b9050919050565b6000600254905090565b60606000805b6008805490508110156115e3573373ffffffffffffffffffffffffffffffffffffffff166008828154811061154257611541611e3f565b5b906000526020600020906003020160000160009054906101000a900473ffffffffffffffffffffffffffffffffffffffff1673ffffffffffffffffffffffffffffffffffffffff161480156115bb575042600882815481106115a7576115a6611e3f565b5b906000526020600020906003020160010154105b156115d0576001826115cd919061224c565b91505b80806115db90611e9d565b91505061150a565b5060008167ffffffffffffffff811115611600576115ff611acf565b5b60405190808252806020026020018201604052801561162e5781602001602082028036833780820191505090505b5090506000805b600880549050811015611753573373ffffffffffffffffffffffffffffffffffffffff166008828154811061166d5761166c611e3f565b5b906000526020600020906003020160000160009054906101000a900473ffffffffffffffffffffffffffffffffffffffff1673ffffffffffffffffffffffffffffffffffffffff161480156116e6575042600882815481106116d2576116d1611e3f565b5b906000526020600020906003020160010154105b1561174057600881815481106116ff576116fe611e3f565b5b90600052602060002090600302016002015483838151811061172457611723611e3f565b5b60200260200101818152505060018261173d919061224c565b91505b808061174b90611e9d565b915050611635565b5081935050505090565b6000818361176b91906124c2565b905092915050565b600081836117819190612635565b905092915050565b600060076000848152602001908152602001600020905060005b818054905081101561191f5761181b600560009054906101000a900473ffffffffffffffffffffffffffffffffffffffff16828484815481106117e9576117e8611e3f565b5b90600052602060002090600302016001015486858151811061180e5761180d611e3f565b5b602002602001015161197d565b82828154811061182e5761182d611e3f565b5b906000526020600020906003020160020181905550600882828154811061185857611857611e3f565b5b906000526020600020906003020190806001815401808255809150506001900390600052602060002090600302016000909190919091506000820160009054906101000a900473ffffffffffffffffffffffffffffffffffffffff168160000160006101000a81548173ffffffffffffffffffffffffffffffffffffffff021916908373ffffffffffffffffffffffffffffffffffffffff16021790555060018201548160010155600282015481600201555050808061191790611e9d565b9150506117a3565b507f1301a7643a86a99a9e94c1f1bfb5443bb9d8b57c47cf3718925642b792c4b67160405160405180910390a1505050565b6000818361195f9190611fce565b905092915050565b60008183611975919061224c565b905092915050565b600084843342868660405160200161199a96959493929190612666565b604051602081830303815290604052805190602001209050949350505050565b6000604051905090565b600080fd5b600080fd5b600073ffffffffffffffffffffffffffffffffffffffff82169050919050565b60006119f9826119ce565b9050919050565b611a09816119ee565b8114611a1457600080fd5b50565b600081359050611a2681611a00565b92915050565b600060208284031215611a4257611a416119c4565b5b6000611a5084828501611a17565b91505092915050565b6000819050919050565b611a6c81611a59565b82525050565b6000602082019050611a876000830184611a63565b92915050565b611a9681611a59565b8114611aa157600080fd5b50565b600081359050611ab381611a8d565b92915050565b600080fd5b6000601f19601f8301169050919050565b7f4e487b7100000000000000000000000000000000000000000000000000000000600052604160045260246000fd5b611b0782611abe565b810181811067ffffffffffffffff82111715611b2657611b25611acf565b5b80604052505050565b6000611b396119ba565b9050611b458282611afe565b919050565b600067ffffffffffffffff821115611b6557611b64611acf565b5b602082029050602081019050919050565b600080fd5b6000611b8e611b8984611b4a565b611b2f565b90508083825260208201905060208402830185811115611bb157611bb0611b76565b5b835b81811015611bda5780611bc68882611aa4565b845260208401935050602081019050611bb3565b5050509392505050565b600082601f830112611bf957611bf8611ab9565b5b8135611c09848260208601611b7b565b91505092915050565b60008060408385031215611c2957611c286119c4565b5b6000611c3785828601611aa4565b925050602083013567ffffffffffffffff811115611c5857611c576119c9565b5b611c6485828601611be4565b9150509250929050565b600060208284031215611c8457611c836119c4565b5b6000611c9284828501611aa4565b91505092915050565b600081519050919050565b600082825260208201905092915050565b6000819050602082019050919050565b6000819050919050565b611cda81611cc7565b82525050565b6000611cec8383611cd1565b60208301905092915050565b6000602082019050919050565b6000611d1082611c9b565b611d1a8185611ca6565b9350611d2583611cb7565b8060005b83811015611d56578151611d3d8882611ce0565b9750611d4883611cf8565b925050600181019050611d29565b5085935050505092915050565b60006020820190508181036000830152611d7d8184611d05565b905092915050565b60008060408385031215611d9c57611d9b6119c4565b5b6000611daa85828601611aa4565b9250506020611dbb85828601611aa4565b9150509250929050565b600081519050611dd481611a8d565b92915050565b600060208284031215611df057611def6119c4565b5b6000611dfe84828501611dc5565b91505092915050565b611e10816119ee565b82525050565b6000604082019050611e2b6000830185611e07565b611e386020830184611e07565b9392505050565b7f4e487b7100000000000000000000000000000000000000000000000000000000600052603260045260246000fd5b7f4e487b7100000000000000000000000000000000000000000000000000000000600052601160045260246000fd5b6000611ea882611a59565b91507fffffffffffffffffffffffffffffffffffffffffffffffffffffffffffffffff8203611eda57611ed9611e6e565b5b600182019050919050565b600082825260208201905092915050565b7f20497a61626572692076656369206f6420300000000000000000000000000000600082015250565b6000611f2c601283611ee5565b9150611f3782611ef6565b602082019050919050565b60006020820190508181036000830152611f5b81611f1f565b9050919050565b7f4e656d617320746f6c696b6f207374616b656f76616e696820746f6b656e6121600082015250565b6000611f98602083611ee5565b9150611fa382611f62565b602082019050919050565b60006020820190508181036000830152611fc781611f8b565b9050919050565b6000611fd982611a59565b9150611fe483611a59565b9250828203905081811115611ffc57611ffb611e6e565b5b92915050565b7f4e65206d6f7a657320746f6c696b6f20646120756e7374616b65756a6573207460008201527f6f6b656e61000000000000000000000000000000000000000000000000000000602082015250565b600061205e602583611ee5565b915061206982612002565b604082019050919050565b6000602082019050818103600083015261208d81612051565b9050919050565b60006040820190506120a96000830185611e07565b6120b66020830184611a63565b9392505050565b60008115159050919050565b6120d2816120bd565b81146120dd57600080fd5b50565b6000815190506120ef816120c9565b92915050565b60006020828403121561210b5761210a6119c4565b5b6000612119848285016120e0565b91505092915050565b7f497a61626572692076656369206f642030000000000000000000000000000000600082015250565b6000612158601183611ee5565b915061216382612122565b602082019050919050565b600060208201905081810360008301526121878161214b565b9050919050565b60006020820190506121a36000830184611e07565b92915050565b7f4e656d617320746f6c696b6f20746f6b656e6121000000000000000000000000600082015250565b60006121df601483611ee5565b91506121ea826121a9565b602082019050919050565b6000602082019050818103600083015261220e816121d2565b9050919050565b600060608201905061222a6000830186611e07565b6122376020830185611e07565b6122446040830184611a63565b949350505050565b600061225782611a59565b915061226283611a59565b925082820190508082111561227a57612279611e6e565b5b92915050565b7f497a61626572692076697365206f6420302064616e6100000000000000000000600082015250565b60006122b6601683611ee5565b91506122c182612280565b602082019050919050565b600060208201905081810360008301526122e5816122a9565b9050919050565b7f497a61626572692076697365206f642030206d65737461000000000000000000600082015250565b6000612322601783611ee5565b915061232d826122ec565b602082019050919050565b6000602082019050818103600083015261235181612315565b9050919050565b7f4e696a65206d6f677563652072656e74697261746920746f6c696b6f206d657360008201527f7461000000000000000000000000000000000000000000000000000000000000602082015250565b60006123b4602283611ee5565b91506123bf82612358565b604082019050919050565b600060208201905081810360008301526123e3816123a7565b9050919050565b7f796f7520646f6e74206861766520656e6f7567682066756e6473000000000000600082015250565b6000612420601a83611ee5565b915061242b826123ea565b602082019050919050565b6000602082019050818103600083015261244f81612413565b9050919050565b7f4661696c656420746f2073656e64205553444300000000000000000000000000600082015250565b600061248c601383611ee5565b915061249782612456565b602082019050919050565b600060208201905081810360008301526124bb8161247f565b9050919050565b60006124cd82611a59565b91506124d883611a59565b9250817fffffffffffffffffffffffffffffffffffffffffffffffffffffffffffffffff048311821515161561251157612510611e6e565b5b828202905092915050565b61252581611cc7565b82525050565b600067ffffffffffffffff82169050919050565b6125488161252b565b82525050565b600061ffff82169050919050565b6125658161254e565b82525050565b600063ffffffff82169050919050565b6125848161256b565b82525050565b600060a08201905061259f600083018861251c565b6125ac602083018761253f565b6125b9604083018661255c565b6125c6606083018561257b565b6125d3608083018461257b565b9695505050505050565b60006125e882611a59565b9150600082036125fb576125fa611e6e565b5b600182039050919050565b7f4e487b7100000000000000000000000000000000000000000000000000000000600052601260045260246000fd5b600061264082611a59565b915061264b83611a59565b92508261265b5761265a612606565b5b828204905092915050565b600060c08201905061267b6000830189611e07565b6126886020830188611a63565b6126956040830187611e07565b6126a26060830186611a63565b6126af6080830185611a63565b6126bc60a0830184611a63565b97965050505050505056fea2646970667358221220180cdb15a69cd3708918447c151d52d9bd9cc158bd47d3ae8af3a0d9b285cd1d64736f6c63430008100033",
  "linkReferences": {},
  "deployedLinkReferences": {}
}