{
  "_format": "hh-sol-artifact-1",
  "contractName": "Rent",
  "sourceName": "contracts/Rent.sol",
  "abi": [
    {
      "inputs": [
        {
          "internalType": "address",
          "name": "tokenAddress",
          "type": "address"
        },
        {
          "internalType": "uint64",
          "name": "subscriptionId",
          "type": "uint64"
        }
      ],
      "stateMutability": "nonpayable",
      "type": "constructor"
    },
    {
      "inputs": [
        {
          "internalType": "address",
          "name": "have",
          "type": "address"
        },
        {
          "internalType": "address",
          "name": "want",
          "type": "address"
        }
      ],
      "name": "OnlyCoordinatorCanFulfill",
      "type": "error"
    },
    {
      "inputs": [
        {
          "internalType": "uint256",
          "name": "cnt",
          "type": "uint256"
        }
      ],
      "name": "getExpireDate",
      "outputs": [
        {
          "internalType": "uint256",
          "name": "",
          "type": "uint256"
        }
      ],
      "stateMutability": "view",
      "type": "function"
    },
    {
      "inputs": [
        {
          "internalType": "address",
          "name": "_address",
          "type": "address"
        }
      ],
      "name": "getStakingBalance",
      "outputs": [
        {
          "internalType": "uint256",
          "name": "",
          "type": "uint256"
        }
      ],
      "stateMutability": "view",
      "type": "function"
    },
    {
      "inputs": [],
      "name": "getUserHash",
      "outputs": [
        {
          "internalType": "bytes32[]",
          "name": "",
          "type": "bytes32[]"
        }
      ],
      "stateMutability": "view",
      "type": "function"
    },
    {
      "inputs": [
        {
          "internalType": "address",
          "name": "_address",
          "type": "address"
        }
      ],
      "name": "numberOfFreePlacesForAddress",
      "outputs": [
        {
          "internalType": "uint256",
          "name": "",
          "type": "uint256"
        }
      ],
      "stateMutability": "view",
      "type": "function"
    },
    {
      "inputs": [
        {
          "internalType": "address",
          "name": "_address",
          "type": "address"
        }
      ],
      "name": "numberOfPlacesForAddress",
      "outputs": [
        {
          "internalType": "uint256",
          "name": "",
          "type": "uint256"
        }
      ],
      "stateMutability": "view",
      "type": "function"
    },
    {
      "inputs": [
        {
          "internalType": "address",
          "name": "_address",
          "type": "address"
        }
      ],
      "name": "numberOfRentedPlacesForAddress",
      "outputs": [
        {
          "internalType": "uint256",
          "name": "",
          "type": "uint256"
        }
      ],
      "stateMutability": "view",
      "type": "function"
    },
    {
      "inputs": [
        {
          "internalType": "uint256",
          "name": "requestId",
          "type": "uint256"
        },
        {
          "internalType": "uint256[]",
          "name": "randomWords",
          "type": "uint256[]"
        }
      ],
      "name": "rawFulfillRandomWords",
      "outputs": [],
      "stateMutability": "nonpayable",
      "type": "function"
    },
    {
      "inputs": [
        {
          "internalType": "uint32",
          "name": "number_of_places",
          "type": "uint32"
        },
        {
          "internalType": "uint256",
          "name": "numberOfDays",
          "type": "uint256"
        },
        {
          "internalType": "uint256",
          "name": "fee",
          "type": "uint256"
        }
      ],
      "name": "rentSeat",
      "outputs": [],
      "stateMutability": "payable",
      "type": "function"
    },
    {
      "inputs": [
        {
          "internalType": "uint256",
          "name": "",
          "type": "uint256"
        }
      ],
      "name": "s_randomWords",
      "outputs": [
        {
          "internalType": "uint256",
          "name": "",
          "type": "uint256"
        }
      ],
      "stateMutability": "view",
      "type": "function"
    },
    {
      "inputs": [],
      "name": "s_requestId",
      "outputs": [
        {
          "internalType": "uint256",
          "name": "",
          "type": "uint256"
        }
      ],
      "stateMutability": "view",
      "type": "function"
    },
    {
      "inputs": [
        {
          "internalType": "uint256",
          "name": "_amount",
          "type": "uint256"
        }
      ],
      "name": "stakeTokens",
      "outputs": [],
      "stateMutability": "nonpayable",
      "type": "function"
    },
    {
      "inputs": [
        {
          "internalType": "bytes32",
          "name": "userHash",
          "type": "bytes32"
        }
      ],
      "name": "ulaz",
      "outputs": [
        {
          "internalType": "bool",
          "name": "",
          "type": "bool"
        }
      ],
      "stateMutability": "view",
      "type": "function"
    },
    {
      "inputs": [
        {
          "internalType": "uint256",
          "name": "_amount",
          "type": "uint256"
        }
      ],
      "name": "unstakeTokens",
      "outputs": [],
      "stateMutability": "nonpayable",
      "type": "function"
    }
  ],
  "bytecode": "0x60a060405260fa600255732ca8e0c643bde4c2e08ab1fa0da3401adad7734d600460006101000a81548173ffffffffffffffffffffffffffffffffffffffff021916908373ffffffffffffffffffffffffffffffffffffffff1602179055507f79d3d8832d904592c0bf9818b621522c988bb8b0c05cdc3b15aea1b6e8db0c1560001b600555620186a0600660006101000a81548163ffffffff021916908363ffffffff1602179055506003600960146101000a81548161ffff021916908361ffff1602179055506064600a55348015620000d957600080fd5b5060405162002786380380620027868339818101604052810190620000ff9190620003b1565b600460009054906101000a900473ffffffffffffffffffffffffffffffffffffffff168073ffffffffffffffffffffffffffffffffffffffff1660808173ffffffffffffffffffffffffffffffffffffffff168152505050600460009054906101000a900473ffffffffffffffffffffffffffffffffffffffff16600360006101000a81548173ffffffffffffffffffffffffffffffffffffffff021916908373ffffffffffffffffffffffffffffffffffffffff16021790555033600960006101000a81548173ffffffffffffffffffffffffffffffffffffffff021916908373ffffffffffffffffffffffffffffffffffffffff16021790555080600360146101000a81548167ffffffffffffffff021916908367ffffffffffffffff160217905550816000806101000a81548173ffffffffffffffffffffffffffffffffffffffff021916908373ffffffffffffffffffffffffffffffffffffffff16021790555073d87ba7a50b2e7e660f678a895e4b72e7cb4ccd9c600160006101000a81548173ffffffffffffffffffffffffffffffffffffffff021916908373ffffffffffffffffffffffffffffffffffffffff16021790555033600c60006101000a81548173ffffffffffffffffffffffffffffffffffffffff021916908373ffffffffffffffffffffffffffffffffffffffff1602179055505050620003f8565b600080fd5b600073ffffffffffffffffffffffffffffffffffffffff82169050919050565b6000620003348262000307565b9050919050565b620003468162000327565b81146200035257600080fd5b50565b60008151905062000366816200033b565b92915050565b600067ffffffffffffffff82169050919050565b6200038b816200036c565b81146200039757600080fd5b50565b600081519050620003ab8162000380565b92915050565b60008060408385031215620003cb57620003ca62000302565b5b6000620003db8582860162000355565b9250506020620003ee858286016200039a565b9150509250929050565b60805161236b6200041b6000396000818161046001526104b4015261236b6000f3fe6080604052600436106100c25760003560e01c80638677b4e21161007f578063be18ec5411610059578063be18ec541461027d578063c3c8f1d8146102ba578063e89e106a146102f7578063f6eaffc814610322576100c2565b80638677b4e2146101d8578063a485172014610203578063b04ef9c214610240576100c2565b80630435e352146100c75780631fe543e3146101045780632df2d93c1461012d57806360158fbc1461016a578063608e4dd0146101865780637547c7a3146101af575b600080fd5b3480156100d357600080fd5b506100ee60048036038101906100e99190611619565b61035f565b6040516100fb919061165f565b60405180910390f35b34801561011057600080fd5b5061012b600480360381019061012691906117ff565b61045e565b005b34801561013957600080fd5b50610154600480360381019061014f9190611619565b61051e565b604051610161919061165f565b60405180910390f35b610184600480360381019061017f9190611897565b61060b565b005b34801561019257600080fd5b506101ad60048036038101906101a891906118ea565b610a35565b005b3480156101bb57600080fd5b506101d660048036038101906101d191906118ea565b610c3b565b005b3480156101e457600080fd5b506101ed610e72565b6040516101fa91906119df565b60405180910390f35b34801561020f57600080fd5b5061022a600480360381019061022591906118ea565b610ff5565b604051610237919061165f565b60405180910390f35b34801561024c57600080fd5b5061026760048036038101906102629190611619565b611114565b604051610274919061165f565b60405180910390f35b34801561028957600080fd5b506102a4600480360381019061029f9190611a2d565b61115d565b6040516102b19190611a75565b60405180910390f35b3480156102c657600080fd5b506102e160048036038101906102dc9190611619565b6111f8565b6040516102ee919061165f565b60405180910390f35b34801561030357600080fd5b5061030c61121d565b604051610319919061165f565b60405180910390f35b34801561032e57600080fd5b50610349600480360381019061034491906118ea565b611223565b604051610356919061165f565b60405180910390f35b60008060009054906101000a900473ffffffffffffffffffffffffffffffffffffffff1673ffffffffffffffffffffffffffffffffffffffff166318160ddd6040518163ffffffff1660e01b815260040160206040518083038186803b1580156103c857600080fd5b505afa1580156103dc573d6000803e3d6000fd5b505050506040513d601f19601f820116820180604052508101906104009190611aa5565b600a54600d60008573ffffffffffffffffffffffffffffffffffffffff1673ffffffffffffffffffffffffffffffffffffffff1681526020019081526020016000205461044d9190611b01565b6104579190611b8a565b9050919050565b7f000000000000000000000000000000000000000000000000000000000000000073ffffffffffffffffffffffffffffffffffffffff163373ffffffffffffffffffffffffffffffffffffffff161461051057337f00000000000000000000000000000000000000000000000000000000000000006040517f1cf993f4000000000000000000000000000000000000000000000000000000008152600401610507929190611bca565b60405180910390fd5b61051a8282611247565b5050565b6000806000905060005b600b80549050811015610601578373ffffffffffffffffffffffffffffffffffffffff16600b82815481106105605761055f611bf3565b5b906000526020600020906003020160000160009054906101000a900473ffffffffffffffffffffffffffffffffffffffff1673ffffffffffffffffffffffffffffffffffffffff161480156105da575042600b82815481106105c5576105c4611bf3565b5b90600052602060002090600302016001015410155b156105ee5781806105ea90611c22565b9250505b80806105f990611c22565b915050610528565b5080915050919050565b6000821161064e576040517f08c379a000000000000000000000000000000000000000000000000000000000815260040161064590611cc8565b60405180910390fd5b60008363ffffffff1611610697576040517f08c379a000000000000000000000000000000000000000000000000000000000815260040161068e90611d34565b60405180910390fd5b8263ffffffff166106a7336111f8565b10156106e8576040517f08c379a00000000000000000000000000000000000000000000000000000000081526004016106df90611dc6565b60405180910390fd5b80600160009054906101000a900473ffffffffffffffffffffffffffffffffffffffff1673ffffffffffffffffffffffffffffffffffffffff166370a08231336040518263ffffffff1660e01b81526004016107449190611de6565b60206040518083038186803b15801561075c57600080fd5b505afa158015610770573d6000803e3d6000fd5b505050506040513d601f19601f820116820180604052508101906107949190611aa5565b10156107d5576040517f08c379a00000000000000000000000000000000000000000000000000000000081526004016107cc90611e4d565b60405180910390fd5b6000600160009054906101000a900473ffffffffffffffffffffffffffffffffffffffff1673ffffffffffffffffffffffffffffffffffffffff166323b872dd33600c60009054906101000a900473ffffffffffffffffffffffffffffffffffffffff16856040518463ffffffff1660e01b815260040161085893929190611e6d565b602060405180830381600087803b15801561087257600080fd5b505af1158015610886573d6000803e3d6000fd5b505050506040513d601f19601f820116820180604052508101906108aa9190611ed0565b9050806108ec576040517f08c379a00000000000000000000000000000000000000000000000000000000081526004016108e390611f49565b60405180910390fd5b600062015180846108fd9190611b01565b426109089190611f69565b905061091385611262565b6000805b8663ffffffff16811015610a2c57818061093090611fbf565b925050600b60405180606001604052803373ffffffffffffffffffffffffffffffffffffffff168152602001858152602001610990600c60009054906101000a900473ffffffffffffffffffffffffffffffffffffffff168588886113b4565b815250908060018154018082558091505060019003906000526020600020906003020160009091909190915060008201518160000160006101000a81548173ffffffffffffffffffffffffffffffffffffffff021916908373ffffffffffffffffffffffffffffffffffffffff160217905550602082015181600101556040820151816002015550508080610a2490611c22565b915050610917565b50505050505050565b60008111610a78576040517f08c379a0000000000000000000000000000000000000000000000000000000008152600401610a6f90612038565b60405180910390fd5b80600d60003373ffffffffffffffffffffffffffffffffffffffff1673ffffffffffffffffffffffffffffffffffffffff168152602001908152602001600020541015610afa576040517f08c379a0000000000000000000000000000000000000000000000000000000008152600401610af1906120a4565b60405180910390fd5b60008054906101000a900473ffffffffffffffffffffffffffffffffffffffff1673ffffffffffffffffffffffffffffffffffffffff1663a9059cbb33836040518363ffffffff1660e01b8152600401610b559291906120c4565b602060405180830381600087803b158015610b6f57600080fd5b505af1158015610b83573d6000803e3d6000fd5b505050506040513d601f19601f82011682018060405250810190610ba79190611ed0565b5080600d60003373ffffffffffffffffffffffffffffffffffffffff1673ffffffffffffffffffffffffffffffffffffffff1681526020019081526020016000206000828254610bf791906120ed565b925050819055506000610c093361035f565b90506000610c163361051e565b905080821015610c3657610c358282610c2f91906120ed565b33611415565b5b505050565b60008111610c7e576040517f08c379a0000000000000000000000000000000000000000000000000000000008152600401610c759061216d565b60405180910390fd5b8060008054906101000a900473ffffffffffffffffffffffffffffffffffffffff1673ffffffffffffffffffffffffffffffffffffffff166370a08231336040518263ffffffff1660e01b8152600401610cd89190611de6565b60206040518083038186803b158015610cf057600080fd5b505afa158015610d04573d6000803e3d6000fd5b505050506040513d601f19601f82011682018060405250810190610d289190611aa5565b1015610d69576040517f08c379a0000000000000000000000000000000000000000000000000000000008152600401610d60906121d9565b60405180910390fd5b60008054906101000a900473ffffffffffffffffffffffffffffffffffffffff1673ffffffffffffffffffffffffffffffffffffffff166323b872dd3330846040518463ffffffff1660e01b8152600401610dc693929190611e6d565b602060405180830381600087803b158015610de057600080fd5b505af1158015610df4573d6000803e3d6000fd5b505050506040513d601f19601f82011682018060405250810190610e189190611ed0565b5080600d60003373ffffffffffffffffffffffffffffffffffffffff1673ffffffffffffffffffffffffffffffffffffffff1681526020019081526020016000206000828254610e689190611f69565b9250508190555050565b60606000610e7f3361051e565b67ffffffffffffffff811115610e9857610e976116bc565b5b604051908082528060200260200182016040528015610ec65781602001602082028036833780820191505090505b5090506000805b600b80549050811015610fec573373ffffffffffffffffffffffffffffffffffffffff16600b8281548110610f0557610f04611bf3565b5b906000526020600020906003020160000160009054906101000a900473ffffffffffffffffffffffffffffffffffffffff1673ffffffffffffffffffffffffffffffffffffffff16148015610f7f575042600b8281548110610f6a57610f69611bf3565b5b90600052602060002090600302016001015410155b15610fd957600b8181548110610f9857610f97611bf3565b5b906000526020600020906003020160020154838381518110610fbd57610fbc611bf3565b5b602002602001018181525050600182610fd69190611f69565b91505b8080610fe490611c22565b915050610ecd565b50819250505090565b600080600090505b600b8054905081101561110d573373ffffffffffffffffffffffffffffffffffffffff16600b828154811061103557611034611bf3565b5b906000526020600020906003020160000160009054906101000a900473ffffffffffffffffffffffffffffffffffffffff1673ffffffffffffffffffffffffffffffffffffffff161480156110af575042600b828154811061109a57611099611bf3565b5b90600052602060002090600302016001015410155b156110fa5760008314156110eb57600b81815481106110d1576110d0611bf3565b5b90600052602060002090600302016001015491505061110f565b82806110f6906121f9565b9350505b808061110590611c22565b915050610ffd565b505b919050565b6000600d60008373ffffffffffffffffffffffffffffffffffffffff1673ffffffffffffffffffffffffffffffffffffffff168152602001908152602001600020549050919050565b600080600090505b600b805490508110156111ed5742600b828154811061118757611186611bf3565b5b906000526020600020906003020160010154101580156111cb575082600b82815481106111b7576111b6611bf3565b5b906000526020600020906003020160020154145b156111da5760019150506111f3565b80806111e590611c22565b915050611165565b50600090505b919050565b60006112038261051e565b61120c8361035f565b61121691906120ed565b9050919050565b60085481565b6007818154811061123357600080fd5b906000526020600020016000915090505481565b806007908051906020019061125d92919061153d565b505050565b600960009054906101000a900473ffffffffffffffffffffffffffffffffffffffff1673ffffffffffffffffffffffffffffffffffffffff163373ffffffffffffffffffffffffffffffffffffffff16146112bc57600080fd5b600360009054906101000a900473ffffffffffffffffffffffffffffffffffffffff1673ffffffffffffffffffffffffffffffffffffffff16635d3b1d30600554600360149054906101000a900467ffffffffffffffff16600960149054906101000a900461ffff16600660009054906101000a900463ffffffff16866040518663ffffffff1660e01b8152600401611359959493929190612281565b602060405180830381600087803b15801561137357600080fd5b505af1158015611387573d6000803e3d6000fd5b505050506040513d601f19601f820116820180604052508101906113ab9190611aa5565b60088190555050565b6000848433428660078763ffffffff16815481106113d5576113d4611bf3565b5b90600052602060002001546040516020016113f5969594939291906122d4565b604051602081830303815290604052805190602001209050949350505050565b60005b600b80549050811015611538578173ffffffffffffffffffffffffffffffffffffffff16600b82815481106114505761144f611bf3565b5b906000526020600020906003020160000160009054906101000a900473ffffffffffffffffffffffffffffffffffffffff1673ffffffffffffffffffffffffffffffffffffffff161480156114ca5750600b81815481106114b4576114b3611bf3565b5b9060005260206000209060030201600101544211155b15611517576001836114dc91906120ed565b925062015180426114ed91906120ed565b600b828154811061150157611500611bf3565b5b9060005260206000209060030201600101819055505b600083141561152557611538565b808061153090611c22565b915050611418565b505050565b828054828255906000526020600020908101928215611579579160200282015b8281111561157857825182559160200191906001019061155d565b5b509050611586919061158a565b5090565b5b808211156115a357600081600090555060010161158b565b5090565b6000604051905090565b600080fd5b600080fd5b600073ffffffffffffffffffffffffffffffffffffffff82169050919050565b60006115e6826115bb565b9050919050565b6115f6816115db565b811461160157600080fd5b50565b600081359050611613816115ed565b92915050565b60006020828403121561162f5761162e6115b1565b5b600061163d84828501611604565b91505092915050565b6000819050919050565b61165981611646565b82525050565b60006020820190506116746000830184611650565b92915050565b61168381611646565b811461168e57600080fd5b50565b6000813590506116a08161167a565b92915050565b600080fd5b6000601f19601f8301169050919050565b7f4e487b7100000000000000000000000000000000000000000000000000000000600052604160045260246000fd5b6116f4826116ab565b810181811067ffffffffffffffff82111715611713576117126116bc565b5b80604052505050565b60006117266115a7565b905061173282826116eb565b919050565b600067ffffffffffffffff821115611752576117516116bc565b5b602082029050602081019050919050565b600080fd5b600061177b61177684611737565b61171c565b9050808382526020820190506020840283018581111561179e5761179d611763565b5b835b818110156117c757806117b38882611691565b8452602084019350506020810190506117a0565b5050509392505050565b600082601f8301126117e6576117e56116a6565b5b81356117f6848260208601611768565b91505092915050565b60008060408385031215611816576118156115b1565b5b600061182485828601611691565b925050602083013567ffffffffffffffff811115611845576118446115b6565b5b611851858286016117d1565b9150509250929050565b600063ffffffff82169050919050565b6118748161185b565b811461187f57600080fd5b50565b6000813590506118918161186b565b92915050565b6000806000606084860312156118b0576118af6115b1565b5b60006118be86828701611882565b93505060206118cf86828701611691565b92505060406118e086828701611691565b9150509250925092565b600060208284031215611900576118ff6115b1565b5b600061190e84828501611691565b91505092915050565b600081519050919050565b600082825260208201905092915050565b6000819050602082019050919050565b6000819050919050565b61195681611943565b82525050565b6000611968838361194d565b60208301905092915050565b6000602082019050919050565b600061198c82611917565b6119968185611922565b93506119a183611933565b8060005b838110156119d25781516119b9888261195c565b97506119c483611974565b9250506001810190506119a5565b5085935050505092915050565b600060208201905081810360008301526119f98184611981565b905092915050565b611a0a81611943565b8114611a1557600080fd5b50565b600081359050611a2781611a01565b92915050565b600060208284031215611a4357611a426115b1565b5b6000611a5184828501611a18565b91505092915050565b60008115159050919050565b611a6f81611a5a565b82525050565b6000602082019050611a8a6000830184611a66565b92915050565b600081519050611a9f8161167a565b92915050565b600060208284031215611abb57611aba6115b1565b5b6000611ac984828501611a90565b91505092915050565b7f4e487b7100000000000000000000000000000000000000000000000000000000600052601160045260246000fd5b6000611b0c82611646565b9150611b1783611646565b9250817fffffffffffffffffffffffffffffffffffffffffffffffffffffffffffffffff0483118215151615611b5057611b4f611ad2565b5b828202905092915050565b7f4e487b7100000000000000000000000000000000000000000000000000000000600052601260045260246000fd5b6000611b9582611646565b9150611ba083611646565b925082611bb057611baf611b5b565b5b828204905092915050565b611bc4816115db565b82525050565b6000604082019050611bdf6000830185611bbb565b611bec6020830184611bbb565b9392505050565b7f4e487b7100000000000000000000000000000000000000000000000000000000600052603260045260246000fd5b6000611c2d82611646565b91507fffffffffffffffffffffffffffffffffffffffffffffffffffffffffffffffff821415611c6057611c5f611ad2565b5b600182019050919050565b600082825260208201905092915050565b7f497a61626572692076697365206f6420302064616e6100000000000000000000600082015250565b6000611cb2601683611c6b565b9150611cbd82611c7c565b602082019050919050565b60006020820190508181036000830152611ce181611ca5565b9050919050565b7f497a61626572692076697365206f642030206d65737461000000000000000000600082015250565b6000611d1e601783611c6b565b9150611d2982611ce8565b602082019050919050565b60006020820190508181036000830152611d4d81611d11565b9050919050565b7f4e696a65206d6f677563652072656e74697261746920746f6c696b6f206d657360008201527f7461000000000000000000000000000000000000000000000000000000000000602082015250565b6000611db0602283611c6b565b9150611dbb82611d54565b604082019050919050565b60006020820190508181036000830152611ddf81611da3565b9050919050565b6000602082019050611dfb6000830184611bbb565b92915050565b7f796f7520646f6e74206861766520656e6f7567682066756e6473000000000000600082015250565b6000611e37601a83611c6b565b9150611e4282611e01565b602082019050919050565b60006020820190508181036000830152611e6681611e2a565b9050919050565b6000606082019050611e826000830186611bbb565b611e8f6020830185611bbb565b611e9c6040830184611650565b949350505050565b611ead81611a5a565b8114611eb857600080fd5b50565b600081519050611eca81611ea4565b92915050565b600060208284031215611ee657611ee56115b1565b5b6000611ef484828501611ebb565b91505092915050565b7f4661696c656420746f2073656e64205553444300000000000000000000000000600082015250565b6000611f33601383611c6b565b9150611f3e82611efd565b602082019050919050565b60006020820190508181036000830152611f6281611f26565b9050919050565b6000611f7482611646565b9150611f7f83611646565b9250827fffffffffffffffffffffffffffffffffffffffffffffffffffffffffffffffff03821115611fb457611fb3611ad2565b5b828201905092915050565b6000611fca8261185b565b915063ffffffff821415611fe157611fe0611ad2565b5b600182019050919050565b7f20497a61626572692076656369206f6420300000000000000000000000000000600082015250565b6000612022601283611c6b565b915061202d82611fec565b602082019050919050565b6000602082019050818103600083015261205181612015565b9050919050565b7f4e656d617320746f6c696b6f207374616b656f76616e696820746f6b656e6121600082015250565b600061208e602083611c6b565b915061209982612058565b602082019050919050565b600060208201905081810360008301526120bd81612081565b9050919050565b60006040820190506120d96000830185611bbb565b6120e66020830184611650565b9392505050565b60006120f882611646565b915061210383611646565b92508282101561211657612115611ad2565b5b828203905092915050565b7f497a61626572692076656369206f642030000000000000000000000000000000600082015250565b6000612157601183611c6b565b915061216282612121565b602082019050919050565b600060208201905081810360008301526121868161214a565b9050919050565b7f4e656d617320746f6c696b6f20746f6b656e6121000000000000000000000000600082015250565b60006121c3601483611c6b565b91506121ce8261218d565b602082019050919050565b600060208201905081810360008301526121f2816121b6565b9050919050565b600061220482611646565b9150600082141561221857612217611ad2565b5b600182039050919050565b61222c81611943565b82525050565b600067ffffffffffffffff82169050919050565b61224f81612232565b82525050565b600061ffff82169050919050565b61226c81612255565b82525050565b61227b8161185b565b82525050565b600060a0820190506122966000830188612223565b6122a36020830187612246565b6122b06040830186612263565b6122bd6060830185612272565b6122ca6080830184612272565b9695505050505050565b600060c0820190506122e96000830189611bbb565b6122f66020830188611650565b6123036040830187611bbb565b6123106060830186611650565b61231d6080830185611650565b61232a60a0830184611650565b97965050505050505056fea26469706673582212204468a737431855f42b048f5e8dca68fb2fcd595396489a020dc7d8b33e8b896864736f6c63430008090033",
  "linkReferences": {},
  "deployedLinkReferences": {}
}