{
  "_format": "hh-sol-artifact-1",
  "contractName": "Rent",
  "sourceName": "contracts/Rent.sol",
  "abi": [
    {
      "inputs": [
        {
          "internalType": "address",
          "name": "tokenAddress",
          "type": "address"
        }
      ],
      "stateMutability": "nonpayable",
      "type": "constructor"
    },
    {
      "inputs": [
        {
          "internalType": "bytes32",
          "name": "_bytes32",
          "type": "bytes32"
        }
      ],
      "name": "bytes32ToString",
      "outputs": [
        {
          "internalType": "string",
          "name": "",
          "type": "string"
        }
      ],
      "stateMutability": "pure",
      "type": "function"
    },
    {
      "inputs": [
        {
          "internalType": "address",
          "name": "_to",
          "type": "address"
        }
      ],
      "name": "getDate",
      "outputs": [
        {
          "internalType": "uint256",
          "name": "",
          "type": "uint256"
        }
      ],
      "stateMutability": "view",
      "type": "function"
    },
    {
      "inputs": [
        {
          "internalType": "address",
          "name": "_address",
          "type": "address"
        }
      ],
      "name": "getHash",
      "outputs": [
        {
          "internalType": "bytes32",
          "name": "",
          "type": "bytes32"
        }
      ],
      "stateMutability": "view",
      "type": "function"
    },
    {
      "inputs": [],
      "name": "getRents",
      "outputs": [
        {
          "internalType": "uint256[]",
          "name": "",
          "type": "uint256[]"
        },
        {
          "internalType": "bytes32[]",
          "name": "",
          "type": "bytes32[]"
        }
      ],
      "stateMutability": "view",
      "type": "function"
    },
    {
      "inputs": [
        {
          "internalType": "address",
          "name": "_address",
          "type": "address"
        }
      ],
      "name": "getStakingBalance",
      "outputs": [
        {
          "internalType": "uint256",
          "name": "",
          "type": "uint256"
        }
      ],
      "stateMutability": "view",
      "type": "function"
    },
    {
      "inputs": [
        {
          "internalType": "address",
          "name": "_address",
          "type": "address"
        }
      ],
      "name": "getUserHash",
      "outputs": [
        {
          "internalType": "bytes32[]",
          "name": "",
          "type": "bytes32[]"
        }
      ],
      "stateMutability": "view",
      "type": "function"
    },
    {
      "inputs": [
        {
          "internalType": "address",
          "name": "_address",
          "type": "address"
        }
      ],
      "name": "numberOfFreePlacesForAddress",
      "outputs": [
        {
          "internalType": "uint256",
          "name": "",
          "type": "uint256"
        }
      ],
      "stateMutability": "view",
      "type": "function"
    },
    {
      "inputs": [
        {
          "internalType": "address",
          "name": "_address",
          "type": "address"
        }
      ],
      "name": "numberOfPlacesForAddress",
      "outputs": [
        {
          "internalType": "uint256",
          "name": "",
          "type": "uint256"
        }
      ],
      "stateMutability": "view",
      "type": "function"
    },
    {
      "inputs": [
        {
          "internalType": "address",
          "name": "_address",
          "type": "address"
        }
      ],
      "name": "numberOfRentedPlacesForAddress",
      "outputs": [
        {
          "internalType": "uint256",
          "name": "",
          "type": "uint256"
        }
      ],
      "stateMutability": "view",
      "type": "function"
    },
    {
      "inputs": [
        {
          "internalType": "uint256",
          "name": "number_of_places",
          "type": "uint256"
        },
        {
          "internalType": "uint256",
          "name": "numberOfDays",
          "type": "uint256"
        },
        {
          "internalType": "uint256",
          "name": "fee",
          "type": "uint256"
        }
      ],
      "name": "rentSeat",
      "outputs": [],
      "stateMutability": "payable",
      "type": "function"
    },
    {
      "inputs": [
        {
          "internalType": "uint256",
          "name": "_amount",
          "type": "uint256"
        }
      ],
      "name": "stakeTokens",
      "outputs": [],
      "stateMutability": "nonpayable",
      "type": "function"
    },
    {
      "inputs": [
        {
          "internalType": "bytes32",
          "name": "userHash",
          "type": "bytes32"
        }
      ],
      "name": "ulaz",
      "outputs": [
        {
          "internalType": "bool",
          "name": "",
          "type": "bool"
        }
      ],
      "stateMutability": "view",
      "type": "function"
    },
    {
      "inputs": [
        {
          "internalType": "uint256",
          "name": "_amount",
          "type": "uint256"
        }
      ],
      "name": "unstakeTokens",
      "outputs": [],
      "stateMutability": "nonpayable",
      "type": "function"
    }
  ],
  "bytecode": "0x608060405260fa60025560646003553480156200001b57600080fd5b506040516200266038038062002660833981810160405281019062000041919062000188565b806000806101000a81548173ffffffffffffffffffffffffffffffffffffffff021916908373ffffffffffffffffffffffffffffffffffffffff16021790555073d87ba7a50b2e7e660f678a895e4b72e7cb4ccd9c600160006101000a81548173ffffffffffffffffffffffffffffffffffffffff021916908373ffffffffffffffffffffffffffffffffffffffff16021790555033600560006101000a81548173ffffffffffffffffffffffffffffffffffffffff021916908373ffffffffffffffffffffffffffffffffffffffff16021790555050620001ba565b600080fd5b600073ffffffffffffffffffffffffffffffffffffffff82169050919050565b6000620001508262000123565b9050919050565b620001628162000143565b81146200016e57600080fd5b50565b600081519050620001828162000157565b92915050565b600060208284031215620001a157620001a06200011e565b5b6000620001b18482850162000171565b91505092915050565b61249680620001ca6000396000f3fe6080604052600436106100c25760003560e01c80637547c7a31161007f578063b04ef9c211610059578063b04ef9c214610292578063be18ec54146102cf578063beb621af1461030c578063c3c8f1d814610349576100c2565b80637547c7a3146102105780639201de5514610239578063aef2157614610276576100c2565b80630435e352146100c75780631da0b8fc146101045780632df2d93c146101415780633c5ea0f31461017e578063608e4dd0146101aa57806364377452146101d3575b600080fd5b3480156100d357600080fd5b506100ee60048036038101906100e99190611806565b610386565b6040516100fb919061184c565b60405180910390f35b34801561011057600080fd5b5061012b60048036038101906101269190611806565b610476565b6040516101389190611880565b60405180910390f35b34801561014d57600080fd5b5061016860048036038101906101639190611806565b61057d565b604051610175919061184c565b60405180910390f35b34801561018a57600080fd5b5061019361066a565b6040516101a1929190611a17565b60405180910390f35b3480156101b657600080fd5b506101d160048036038101906101cc9190611a7a565b61085f565b005b3480156101df57600080fd5b506101fa60048036038101906101f59190611806565b610a56565b6040516102079190611aa7565b60405180910390f35b34801561021c57600080fd5b5061023760048036038101906102329190611a7a565b610cd4565b005b34801561024557600080fd5b50610260600480360381019061025b9190611af5565b610eed565b60405161026d9190611bb2565b60405180910390f35b610290600480360381019061028b9190611bd4565b611088565b005b34801561029e57600080fd5b506102b960048036038101906102b49190611806565b611468565b6040516102c6919061184c565b60405180910390f35b3480156102db57600080fd5b506102f660048036038101906102f19190611af5565b6114b1565b6040516103039190611c42565b60405180910390f35b34801561031857600080fd5b50610333600480360381019061032e9190611806565b61154c565b604051610340919061184c565b60405180910390f35b34801561035557600080fd5b50610370600480360381019061036b9190611806565b611621565b60405161037d919061184c565b60405180910390f35b60008060009054906101000a900473ffffffffffffffffffffffffffffffffffffffff1673ffffffffffffffffffffffffffffffffffffffff166318160ddd6040518163ffffffff1660e01b8152600401602060405180830381865afa1580156103f4573d6000803e3d6000fd5b505050506040513d601f19601f820116820180604052508101906104189190611c72565b600354600660008573ffffffffffffffffffffffffffffffffffffffff1673ffffffffffffffffffffffffffffffffffffffff168152602001908152602001600020546104659190611cce565b61046f9190611d57565b9050919050565b600080600090505b600480549050811015610576578273ffffffffffffffffffffffffffffffffffffffff16600482815481106104b6576104b5611d88565b5b906000526020600020906003020160000160009054906101000a900473ffffffffffffffffffffffffffffffffffffffff1673ffffffffffffffffffffffffffffffffffffffff161480156105305750426004828154811061051b5761051a611d88565b5b90600052602060002090600302016001015410155b15610563576004818154811061054957610548611d88565b5b906000526020600020906003020160020154915050610578565b808061056e90611db7565b91505061047e565b505b919050565b6000806000905060005b600480549050811015610660578373ffffffffffffffffffffffffffffffffffffffff16600482815481106105bf576105be611d88565b5b906000526020600020906003020160000160009054906101000a900473ffffffffffffffffffffffffffffffffffffffff1673ffffffffffffffffffffffffffffffffffffffff161480156106395750426004828154811061062457610623611d88565b5b90600052602060002090600302016001015410155b1561064d57818061064990611db7565b9250505b808061065890611db7565b915050610587565b5080915050919050565b60608060006106783361057d565b905060008167ffffffffffffffff81111561069657610695611dff565b5b6040519080825280602002602001820160405280156106c45781602001602082028036833780820191505090505b50905060008267ffffffffffffffff8111156106e3576106e2611dff565b5b6040519080825280602002602001820160405280156107115781602001602082028036833780820191505090505b50905060005b600480549050811015610851573373ffffffffffffffffffffffffffffffffffffffff166004828154811061074f5761074e611d88565b5b906000526020600020906003020160000160009054906101000a900473ffffffffffffffffffffffffffffffffffffffff1673ffffffffffffffffffffffffffffffffffffffff161480156107c9575042600482815481106107b4576107b3611d88565b5b90600052602060002090600302016001015410155b1561083e576000600482815481106107e4576107e3611d88565b5b90600052602060002090600302019050806001015484838151811061080c5761080b611d88565b5b60200260200101818152505080600201548383815181106108305761082f611d88565b5b602002602001018181525050505b808061084990611db7565b915050610717565b508181945094505050509091565b600081116108a2576040517f08c379a000000000000000000000000000000000000000000000000000000000815260040161089990611e7a565b60405180910390fd5b80600660003373ffffffffffffffffffffffffffffffffffffffff1673ffffffffffffffffffffffffffffffffffffffff168152602001908152602001600020541015610924576040517f08c379a000000000000000000000000000000000000000000000000000000000815260040161091b90611ee6565b60405180910390fd5b60008054906101000a900473ffffffffffffffffffffffffffffffffffffffff1673ffffffffffffffffffffffffffffffffffffffff1663a9059cbb33836040518363ffffffff1660e01b815260040161097f929190611f15565b6020604051808303816000875af115801561099e573d6000803e3d6000fd5b505050506040513d601f19601f820116820180604052508101906109c29190611f6a565b5080600660003373ffffffffffffffffffffffffffffffffffffffff1673ffffffffffffffffffffffffffffffffffffffff1681526020019081526020016000206000828254610a129190611f97565b925050819055506000610a2433610386565b90506000610a313361057d565b905080821015610a5157610a508282610a4a9190611f97565b33611646565b5b505050565b60606000610a638361057d565b67ffffffffffffffff811115610a7c57610a7b611dff565b5b604051908082528060200260200182016040528015610aaa5781602001602082028036833780820191505090505b5090506000805b600480549050811015610bd0578473ffffffffffffffffffffffffffffffffffffffff1660048281548110610ae957610ae8611d88565b5b906000526020600020906003020160000160009054906101000a900473ffffffffffffffffffffffffffffffffffffffff1673ffffffffffffffffffffffffffffffffffffffff16148015610b6357504260048281548110610b4e57610b4d611d88565b5b90600052602060002090600302016001015410155b15610bbd5760048181548110610b7c57610b7b611d88565b5b906000526020600020906003020160020154838381518110610ba157610ba0611d88565b5b602002602001018181525050600182610bba9190611fcb565b91505b8080610bc890611db7565b915050610ab1565b506000825167ffffffffffffffff811115610bee57610bed611dff565b5b604051908082528060200260200182016040528015610c2157816020015b6060815260200190600190039081610c0c5790505b50905060005b8351811015610c8457610c53848281518110610c4657610c45611d88565b5b6020026020010151610eed565b828281518110610c6657610c65611d88565b5b60200260200101819052508080610c7c90611db7565b915050610c27565b506000815111610cc9576040517f08c379a0000000000000000000000000000000000000000000000000000000008152600401610cc09061204b565b60405180910390fd5b829350505050919050565b60008111610d17576040517f08c379a0000000000000000000000000000000000000000000000000000000008152600401610d0e906120b7565b60405180910390fd5b8060008054906101000a900473ffffffffffffffffffffffffffffffffffffffff1673ffffffffffffffffffffffffffffffffffffffff166370a08231336040518263ffffffff1660e01b8152600401610d7191906120d7565b602060405180830381865afa158015610d8e573d6000803e3d6000fd5b505050506040513d601f19601f82011682018060405250810190610db29190611c72565b1015610df3576040517f08c379a0000000000000000000000000000000000000000000000000000000008152600401610dea9061213e565b60405180910390fd5b60008054906101000a900473ffffffffffffffffffffffffffffffffffffffff1673ffffffffffffffffffffffffffffffffffffffff166323b872dd3330846040518463ffffffff1660e01b8152600401610e509392919061215e565b6020604051808303816000875af1158015610e6f573d6000803e3d6000fd5b505050506040513d601f19601f82011682018060405250810190610e939190611f6a565b5080600660003373ffffffffffffffffffffffffffffffffffffffff1673ffffffffffffffffffffffffffffffffffffffff1681526020019081526020016000206000828254610ee39190611fcb565b9250508190555050565b606060005b60208160ff16108015610f445750600060f81b838260ff1660208110610f1b57610f1a611d88565b5b1a60f81b7effffffffffffffffffffffffffffffffffffffffffffffffffffffffffffff191614155b15610f5c578080610f54906121a2565b915050610ef2565b60008160ff1667ffffffffffffffff811115610f7b57610f7a611dff565b5b6040519080825280601f01601f191660200182016040528015610fad5781602001600182028036833780820191505090505b509050600091505b60208260ff161080156110075750600060f81b848360ff1660208110610fde57610fdd611d88565b5b1a60f81b7effffffffffffffffffffffffffffffffffffffffffffffffffffffffffffff191614155b1561107e57838260ff166020811061102257611021611d88565b5b1a60f81b818360ff168151811061103c5761103b611d88565b5b60200101907effffffffffffffffffffffffffffffffffffffffffffffffffffffffffffff1916908160001a9053508180611076906121a2565b925050610fb5565b8092505050919050565b600082116110cb576040517f08c379a00000000000000000000000000000000000000000000000000000000081526004016110c290612217565b60405180910390fd5b6000831161110e576040517f08c379a000000000000000000000000000000000000000000000000000000000815260040161110590612283565b60405180910390fd5b8261111833611621565b1015611159576040517f08c379a000000000000000000000000000000000000000000000000000000000815260040161115090612315565b60405180910390fd5b80600160009054906101000a900473ffffffffffffffffffffffffffffffffffffffff1673ffffffffffffffffffffffffffffffffffffffff166370a08231336040518263ffffffff1660e01b81526004016111b591906120d7565b602060405180830381865afa1580156111d2573d6000803e3d6000fd5b505050506040513d601f19601f820116820180604052508101906111f69190611c72565b1015611237576040517f08c379a000000000000000000000000000000000000000000000000000000000815260040161122e90612381565b60405180910390fd5b6000600160009054906101000a900473ffffffffffffffffffffffffffffffffffffffff1673ffffffffffffffffffffffffffffffffffffffff166323b872dd33600560009054906101000a900473ffffffffffffffffffffffffffffffffffffffff16856040518463ffffffff1660e01b81526004016112ba9392919061215e565b6020604051808303816000875af11580156112d9573d6000803e3d6000fd5b505050506040513d601f19601f820116820180604052508101906112fd9190611f6a565b90508061133f576040517f08c379a0000000000000000000000000000000000000000000000000000000008152600401611336906123ed565b60405180910390fd5b600062015180846113509190611cce565b4261135b9190611fcb565b905060005b8581101561146057600460405180606001604052803373ffffffffffffffffffffffffffffffffffffffff1681526020018481526020016113c4600560009054906101000a900473ffffffffffffffffffffffffffffffffffffffff168587611769565b815250908060018154018082558091505060019003906000526020600020906003020160009091909190915060008201518160000160006101000a81548173ffffffffffffffffffffffffffffffffffffffff021916908373ffffffffffffffffffffffffffffffffffffffff16021790555060208201518160010155604082015181600201555050808061145890611db7565b915050611360565b505050505050565b6000600660008373ffffffffffffffffffffffffffffffffffffffff1673ffffffffffffffffffffffffffffffffffffffff168152602001908152602001600020549050919050565b600080600090505b6004805490508110156115415742600482815481106114db576114da611d88565b5b9060005260206000209060030201600101541015801561151f5750826004828154811061150b5761150a611d88565b5b906000526020600020906003020160020154145b1561152e576001915050611547565b808061153990611db7565b9150506114b9565b50600090505b919050565b600080600090505b60048054905081101561161a578273ffffffffffffffffffffffffffffffffffffffff166004828154811061158c5761158b611d88565b5b906000526020600020906003020160000160009054906101000a900473ffffffffffffffffffffffffffffffffffffffff1673ffffffffffffffffffffffffffffffffffffffff160361160757600481815481106115ed576115ec611d88565b5b90600052602060002090600302016001015491505061161c565b808061161290611db7565b915050611554565b505b919050565b600061162c8261057d565b61163583610386565b61163f9190611f97565b9050919050565b60005b600480549050811015611764578173ffffffffffffffffffffffffffffffffffffffff166004828154811061168157611680611d88565b5b906000526020600020906003020160000160009054906101000a900473ffffffffffffffffffffffffffffffffffffffff1673ffffffffffffffffffffffffffffffffffffffff161480156116fb5750600481815481106116e5576116e4611d88565b5b9060005260206000209060030201600101544211155b156117485760018361170d9190611f97565b9250620151804261171e9190611f97565b6004828154811061173257611731611d88565b5b9060005260206000209060030201600101819055505b600083031561176457808061175c90611db7565b915050611649565b505050565b6000838333428560405160200161178495949392919061240d565b6040516020818303038152906040528051906020012090509392505050565b600080fd5b600073ffffffffffffffffffffffffffffffffffffffff82169050919050565b60006117d3826117a8565b9050919050565b6117e3816117c8565b81146117ee57600080fd5b50565b600081359050611800816117da565b92915050565b60006020828403121561181c5761181b6117a3565b5b600061182a848285016117f1565b91505092915050565b6000819050919050565b61184681611833565b82525050565b6000602082019050611861600083018461183d565b92915050565b6000819050919050565b61187a81611867565b82525050565b60006020820190506118956000830184611871565b92915050565b600081519050919050565b600082825260208201905092915050565b6000819050602082019050919050565b6118d081611833565b82525050565b60006118e283836118c7565b60208301905092915050565b6000602082019050919050565b60006119068261189b565b61191081856118a6565b935061191b836118b7565b8060005b8381101561194c57815161193388826118d6565b975061193e836118ee565b92505060018101905061191f565b5085935050505092915050565b600081519050919050565b600082825260208201905092915050565b6000819050602082019050919050565b61198e81611867565b82525050565b60006119a08383611985565b60208301905092915050565b6000602082019050919050565b60006119c482611959565b6119ce8185611964565b93506119d983611975565b8060005b83811015611a0a5781516119f18882611994565b97506119fc836119ac565b9250506001810190506119dd565b5085935050505092915050565b60006040820190508181036000830152611a3181856118fb565b90508181036020830152611a4581846119b9565b90509392505050565b611a5781611833565b8114611a6257600080fd5b50565b600081359050611a7481611a4e565b92915050565b600060208284031215611a9057611a8f6117a3565b5b6000611a9e84828501611a65565b91505092915050565b60006020820190508181036000830152611ac181846119b9565b905092915050565b611ad281611867565b8114611add57600080fd5b50565b600081359050611aef81611ac9565b92915050565b600060208284031215611b0b57611b0a6117a3565b5b6000611b1984828501611ae0565b91505092915050565b600081519050919050565b600082825260208201905092915050565b60005b83811015611b5c578082015181840152602081019050611b41565b60008484015250505050565b6000601f19601f8301169050919050565b6000611b8482611b22565b611b8e8185611b2d565b9350611b9e818560208601611b3e565b611ba781611b68565b840191505092915050565b60006020820190508181036000830152611bcc8184611b79565b905092915050565b600080600060608486031215611bed57611bec6117a3565b5b6000611bfb86828701611a65565b9350506020611c0c86828701611a65565b9250506040611c1d86828701611a65565b9150509250925092565b60008115159050919050565b611c3c81611c27565b82525050565b6000602082019050611c576000830184611c33565b92915050565b600081519050611c6c81611a4e565b92915050565b600060208284031215611c8857611c876117a3565b5b6000611c9684828501611c5d565b91505092915050565b7f4e487b7100000000000000000000000000000000000000000000000000000000600052601160045260246000fd5b6000611cd982611833565b9150611ce483611833565b9250817fffffffffffffffffffffffffffffffffffffffffffffffffffffffffffffffff0483118215151615611d1d57611d1c611c9f565b5b828202905092915050565b7f4e487b7100000000000000000000000000000000000000000000000000000000600052601260045260246000fd5b6000611d6282611833565b9150611d6d83611833565b925082611d7d57611d7c611d28565b5b828204905092915050565b7f4e487b7100000000000000000000000000000000000000000000000000000000600052603260045260246000fd5b6000611dc282611833565b91507fffffffffffffffffffffffffffffffffffffffffffffffffffffffffffffffff8203611df457611df3611c9f565b5b600182019050919050565b7f4e487b7100000000000000000000000000000000000000000000000000000000600052604160045260246000fd5b7f20497a61626572692076656369206f6420300000000000000000000000000000600082015250565b6000611e64601283611b2d565b9150611e6f82611e2e565b602082019050919050565b60006020820190508181036000830152611e9381611e57565b9050919050565b7f4e656d617320746f6c696b6f207374616b656f76616e696820746f6b656e6121600082015250565b6000611ed0602083611b2d565b9150611edb82611e9a565b602082019050919050565b60006020820190508181036000830152611eff81611ec3565b9050919050565b611f0f816117c8565b82525050565b6000604082019050611f2a6000830185611f06565b611f37602083018461183d565b9392505050565b611f4781611c27565b8114611f5257600080fd5b50565b600081519050611f6481611f3e565b92915050565b600060208284031215611f8057611f7f6117a3565b5b6000611f8e84828501611f55565b91505092915050565b6000611fa282611833565b9150611fad83611833565b9250828203905081811115611fc557611fc4611c9f565b5b92915050565b6000611fd682611833565b9150611fe183611833565b9250828201905080821115611ff957611ff8611c9f565b5b92915050565b7f737472696e67206a652030000000000000000000000000000000000000000000600082015250565b6000612035600b83611b2d565b915061204082611fff565b602082019050919050565b6000602082019050818103600083015261206481612028565b9050919050565b7f497a61626572692076656369206f642030000000000000000000000000000000600082015250565b60006120a1601183611b2d565b91506120ac8261206b565b602082019050919050565b600060208201905081810360008301526120d081612094565b9050919050565b60006020820190506120ec6000830184611f06565b92915050565b7f4e656d617320746f6c696b6f20746f6b656e6121000000000000000000000000600082015250565b6000612128601483611b2d565b9150612133826120f2565b602082019050919050565b600060208201905081810360008301526121578161211b565b9050919050565b60006060820190506121736000830186611f06565b6121806020830185611f06565b61218d604083018461183d565b949350505050565b600060ff82169050919050565b60006121ad82612195565b915060ff82036121c0576121bf611c9f565b5b600182019050919050565b7f497a61626572692076697365206f6420302064616e6100000000000000000000600082015250565b6000612201601683611b2d565b915061220c826121cb565b602082019050919050565b60006020820190508181036000830152612230816121f4565b9050919050565b7f497a61626572692076697365206f642030206d65737461000000000000000000600082015250565b600061226d601783611b2d565b915061227882612237565b602082019050919050565b6000602082019050818103600083015261229c81612260565b9050919050565b7f4e696a65206d6f677563652072656e74697261746920746f6c696b6f206d657360008201527f7461000000000000000000000000000000000000000000000000000000000000602082015250565b60006122ff602283611b2d565b915061230a826122a3565b604082019050919050565b6000602082019050818103600083015261232e816122f2565b9050919050565b7f796f7520646f6e74206861766520656e6f7567682066756e6473000000000000600082015250565b600061236b601a83611b2d565b915061237682612335565b602082019050919050565b6000602082019050818103600083015261239a8161235e565b9050919050565b7f4661696c656420746f2073656e64205553444300000000000000000000000000600082015250565b60006123d7601383611b2d565b91506123e2826123a1565b602082019050919050565b60006020820190508181036000830152612406816123ca565b9050919050565b600060a0820190506124226000830188611f06565b61242f602083018761183d565b61243c6040830186611f06565b612449606083018561183d565b612456608083018461183d565b969550505050505056fea2646970667358221220502dacbad2961e17486314ad28f36199e6a1e60eee520a4cd828f6b5a8f4c7a964736f6c63430008100033",
  "linkReferences": {},
  "deployedLinkReferences": {}
}