{
  "_format": "hh-sol-artifact-1",
  "contractName": "Rent",
  "sourceName": "contracts/Rent.sol",
  "abi": [
    {
      "inputs": [
        {
          "internalType": "address",
          "name": "tokenAddress",
          "type": "address"
        },
        {
          "internalType": "uint64",
          "name": "subscriptionId",
          "type": "uint64"
        }
      ],
      "stateMutability": "nonpayable",
      "type": "constructor"
    },
    {
      "inputs": [
        {
          "internalType": "address",
          "name": "have",
          "type": "address"
        },
        {
          "internalType": "address",
          "name": "want",
          "type": "address"
        }
      ],
      "name": "OnlyCoordinatorCanFulfill",
      "type": "error"
    },
    {
      "anonymous": false,
      "inputs": [],
      "name": "RentPlaceEvent",
      "type": "event"
    },
    {
      "inputs": [],
      "name": "getAmount",
      "outputs": [
        {
          "internalType": "uint256",
          "name": "",
          "type": "uint256"
        }
      ],
      "stateMutability": "view",
      "type": "function"
    },
    {
      "inputs": [
        {
          "internalType": "uint256",
          "name": "cnt",
          "type": "uint256"
        }
      ],
      "name": "getExpireDate",
      "outputs": [
        {
          "internalType": "uint256",
          "name": "",
          "type": "uint256"
        }
      ],
      "stateMutability": "view",
      "type": "function"
    },
    {
      "inputs": [
        {
          "internalType": "uint256",
          "name": "cnt",
          "type": "uint256"
        }
      ],
      "name": "getExpireDateOfExpiredTickets",
      "outputs": [
        {
          "internalType": "uint256",
          "name": "",
          "type": "uint256"
        }
      ],
      "stateMutability": "view",
      "type": "function"
    },
    {
      "inputs": [],
      "name": "getNumberOfSeats",
      "outputs": [
        {
          "internalType": "uint256",
          "name": "",
          "type": "uint256"
        }
      ],
      "stateMutability": "view",
      "type": "function"
    },
    {
      "inputs": [
        {
          "internalType": "address",
          "name": "_address",
          "type": "address"
        }
      ],
      "name": "getStakingBalance",
      "outputs": [
        {
          "internalType": "uint256",
          "name": "",
          "type": "uint256"
        }
      ],
      "stateMutability": "view",
      "type": "function"
    },
    {
      "inputs": [],
      "name": "getUserHash",
      "outputs": [
        {
          "internalType": "bytes32[]",
          "name": "",
          "type": "bytes32[]"
        }
      ],
      "stateMutability": "view",
      "type": "function"
    },
    {
      "inputs": [],
      "name": "getUserHashOfExpiredTickets",
      "outputs": [
        {
          "internalType": "bytes32[]",
          "name": "",
          "type": "bytes32[]"
        }
      ],
      "stateMutability": "view",
      "type": "function"
    },
    {
      "inputs": [
        {
          "internalType": "address",
          "name": "_address",
          "type": "address"
        }
      ],
      "name": "numberOfFreePlacesForAddress",
      "outputs": [
        {
          "internalType": "uint256",
          "name": "",
          "type": "uint256"
        }
      ],
      "stateMutability": "view",
      "type": "function"
    },
    {
      "inputs": [
        {
          "internalType": "address",
          "name": "_address",
          "type": "address"
        }
      ],
      "name": "numberOfPlacesForAddress",
      "outputs": [
        {
          "internalType": "uint256",
          "name": "",
          "type": "uint256"
        }
      ],
      "stateMutability": "view",
      "type": "function"
    },
    {
      "inputs": [
        {
          "internalType": "address",
          "name": "_address",
          "type": "address"
        }
      ],
      "name": "numberOfRentedPlacesForAddress",
      "outputs": [
        {
          "internalType": "uint256",
          "name": "",
          "type": "uint256"
        }
      ],
      "stateMutability": "view",
      "type": "function"
    },
    {
      "inputs": [
        {
          "internalType": "uint256",
          "name": "requestId",
          "type": "uint256"
        },
        {
          "internalType": "uint256[]",
          "name": "randomWords",
          "type": "uint256[]"
        }
      ],
      "name": "rawFulfillRandomWords",
      "outputs": [],
      "stateMutability": "nonpayable",
      "type": "function"
    },
    {
      "inputs": [
        {
          "internalType": "uint256",
          "name": "number_of_places",
          "type": "uint256"
        },
        {
          "internalType": "uint256",
          "name": "numberOfDays",
          "type": "uint256"
        }
      ],
      "name": "rentSeat",
      "outputs": [],
      "stateMutability": "payable",
      "type": "function"
    },
    {
      "inputs": [
        {
          "internalType": "uint256",
          "name": "_amount",
          "type": "uint256"
        }
      ],
      "name": "stakeTokens",
      "outputs": [],
      "stateMutability": "nonpayable",
      "type": "function"
    },
    {
      "inputs": [
        {
          "internalType": "uint256",
          "name": "_amount",
          "type": "uint256"
        }
      ],
      "name": "unstakeTokens",
      "outputs": [],
      "stateMutability": "nonpayable",
      "type": "function"
    }
  ],
  "bytecode": "0x60a0604052630ee6b280600255601e6003556064600455732ca8e0c643bde4c2e08ab1fa0da3401adad7734d600a60006101000a81548173ffffffffffffffffffffffffffffffffffffffff021916908373ffffffffffffffffffffffffffffffffffffffff1602179055507f79d3d8832d904592c0bf9818b621522c988bb8b0c05cdc3b15aea1b6e8db0c1560001b600b55622625a0600c60006101000a81548163ffffffff021916908363ffffffff1602179055506003600c60186101000a81548161ffff021916908361ffff160217905550348015620000e157600080fd5b5060405162002b2238038062002b228339818101604052810190620001079190620003b9565b600a60009054906101000a900473ffffffffffffffffffffffffffffffffffffffff168073ffffffffffffffffffffffffffffffffffffffff1660808173ffffffffffffffffffffffffffffffffffffffff168152505050600a60009054906101000a900473ffffffffffffffffffffffffffffffffffffffff16600960006101000a81548173ffffffffffffffffffffffffffffffffffffffff021916908373ffffffffffffffffffffffffffffffffffffffff16021790555033600c60046101000a81548173ffffffffffffffffffffffffffffffffffffffff021916908373ffffffffffffffffffffffffffffffffffffffff16021790555080600960146101000a81548167ffffffffffffffff021916908367ffffffffffffffff160217905550816000806101000a81548173ffffffffffffffffffffffffffffffffffffffff021916908373ffffffffffffffffffffffffffffffffffffffff16021790555073d87ba7a50b2e7e660f678a895e4b72e7cb4ccd9c600160006101000a81548173ffffffffffffffffffffffffffffffffffffffff021916908373ffffffffffffffffffffffffffffffffffffffff16021790555033600560006101000a81548173ffffffffffffffffffffffffffffffffffffffff021916908373ffffffffffffffffffffffffffffffffffffffff160217905550505062000400565b600080fd5b600073ffffffffffffffffffffffffffffffffffffffff82169050919050565b60006200033c826200030f565b9050919050565b6200034e816200032f565b81146200035a57600080fd5b50565b6000815190506200036e8162000343565b92915050565b600067ffffffffffffffff82169050919050565b620003938162000374565b81146200039f57600080fd5b50565b600081519050620003b38162000388565b92915050565b60008060408385031215620003d357620003d26200030a565b5b6000620003e3858286016200035d565b9250506020620003f685828601620003a2565b9150509250929050565b6080516126ff620004236000396000818161049201526104e601526126ff6000f3fe6080604052600436106100dd5760003560e01c8063a48517201161007f578063beb4cef411610059578063beb4cef4146102d5578063c3c8f1d814610300578063d321fe291461033d578063ec5a27ad14610368576100dd565b8063a48517201461021e578063b04ef9c21461025b578063bda0ff5314610298576100dd565b8063608e4dd0116100bb578063608e4dd0146101855780637547c7a3146101ae5780638677b4e2146101d75780639be910a214610202576100dd565b80630435e352146100e25780631fe543e31461011f5780632df2d93c14610148575b600080fd5b3480156100ee57600080fd5b5061010960048036038101906101049190611a2e565b610393565b6040516101169190611a74565b60405180910390f35b34801561012b57600080fd5b5061014660048036038101906101419190611c14565b610490565b005b34801561015457600080fd5b5061016f600480360381019061016a9190611a2e565b610550565b60405161017c9190611a74565b60405180910390f35b34801561019157600080fd5b506101ac60048036038101906101a79190611c70565b61063d565b005b3480156101ba57600080fd5b506101d560048036038101906101d09190611c70565b610985565b005b3480156101e357600080fd5b506101ec610bd4565b6040516101f99190611d65565b60405180910390f35b61021c60048036038101906102179190611d87565b610d57565b005b34801561022a57600080fd5b5061024560048036038101906102409190611c70565b611240565b6040516102529190611a74565b60405180910390f35b34801561026757600080fd5b50610282600480360381019061027d9190611a2e565b61135e565b60405161028f9190611a74565b60405180910390f35b3480156102a457600080fd5b506102bf60048036038101906102ba9190611c70565b6113a7565b6040516102cc9190611a74565b60405180910390f35b3480156102e157600080fd5b506102ea6114c4565b6040516102f79190611a74565b60405180910390f35b34801561030c57600080fd5b5061032760048036038101906103229190611a2e565b6114ce565b6040516103349190611a74565b60405180910390f35b34801561034957600080fd5b506103526114fa565b60405161035f9190611a74565b60405180910390f35b34801561037457600080fd5b5061037d611504565b60405161038a9190611d65565b60405180910390f35b600061048960008054906101000a900473ffffffffffffffffffffffffffffffffffffffff1673ffffffffffffffffffffffffffffffffffffffff166318160ddd6040518163ffffffff1660e01b8152600401602060405180830381865afa158015610403573d6000803e3d6000fd5b505050506040513d601f19601f820116820180604052508101906104279190611ddc565b61047b600454600660008773ffffffffffffffffffffffffffffffffffffffff1673ffffffffffffffffffffffffffffffffffffffff1681526020019081526020016000205461175f90919063ffffffff16565b61177590919063ffffffff16565b9050919050565b7f000000000000000000000000000000000000000000000000000000000000000073ffffffffffffffffffffffffffffffffffffffff163373ffffffffffffffffffffffffffffffffffffffff161461054257337f00000000000000000000000000000000000000000000000000000000000000006040517f1cf993f4000000000000000000000000000000000000000000000000000000008152600401610539929190611e18565b60405180910390fd5b61054c828261178b565b5050565b6000806000905060005b600880549050811015610633578373ffffffffffffffffffffffffffffffffffffffff166008828154811061059257610591611e41565b5b906000526020600020906003020160000160009054906101000a900473ffffffffffffffffffffffffffffffffffffffff1673ffffffffffffffffffffffffffffffffffffffff1614801561060c575042600882815481106105f7576105f6611e41565b5b90600052602060002090600302016001015410155b1561062057818061061c90611e9f565b9250505b808061062b90611e9f565b91505061055a565b5080915050919050565b60008111610680576040517f08c379a000000000000000000000000000000000000000000000000000000000815260040161067790611f44565b60405180910390fd5b80600660003373ffffffffffffffffffffffffffffffffffffffff1673ffffffffffffffffffffffffffffffffffffffff168152602001908152602001600020541015610702576040517f08c379a00000000000000000000000000000000000000000000000000000000081526004016106f990611fb0565b60405180910390fd5b600061070d33610550565b905060006107c66004546107b860008054906101000a900473ffffffffffffffffffffffffffffffffffffffff1673ffffffffffffffffffffffffffffffffffffffff166318160ddd6040518163ffffffff1660e01b8152600401602060405180830381865afa158015610785573d6000803e3d6000fd5b505050506040513d601f19601f820116820180604052508101906107a99190611ddc565b8561175f90919063ffffffff16565b61177590919063ffffffff16565b905080600660003373ffffffffffffffffffffffffffffffffffffffff1673ffffffffffffffffffffffffffffffffffffffff168152602001908152602001600020546108139190611fd0565b831115610855576040517f08c379a000000000000000000000000000000000000000000000000000000000815260040161084c90612076565b60405180910390fd5b60008054906101000a900473ffffffffffffffffffffffffffffffffffffffff1673ffffffffffffffffffffffffffffffffffffffff1663a9059cbb33856040518363ffffffff1660e01b81526004016108b0929190612096565b6020604051808303816000875af11580156108cf573d6000803e3d6000fd5b505050506040513d601f19601f820116820180604052508101906108f391906120f7565b5061093d600660003373ffffffffffffffffffffffffffffffffffffffff1673ffffffffffffffffffffffffffffffffffffffff1681526020019081526020016000205484611953565b600660003373ffffffffffffffffffffffffffffffffffffffff1673ffffffffffffffffffffffffffffffffffffffff16815260200190815260200160002081905550505050565b600081116109c8576040517f08c379a00000000000000000000000000000000000000000000000000000000081526004016109bf90612170565b60405180910390fd5b8060008054906101000a900473ffffffffffffffffffffffffffffffffffffffff1673ffffffffffffffffffffffffffffffffffffffff166370a08231336040518263ffffffff1660e01b8152600401610a229190612190565b602060405180830381865afa158015610a3f573d6000803e3d6000fd5b505050506040513d601f19601f82011682018060405250810190610a639190611ddc565b1015610aa4576040517f08c379a0000000000000000000000000000000000000000000000000000000008152600401610a9b906121f7565b60405180910390fd5b60008054906101000a900473ffffffffffffffffffffffffffffffffffffffff1673ffffffffffffffffffffffffffffffffffffffff166323b872dd3330846040518463ffffffff1660e01b8152600401610b0193929190612217565b6020604051808303816000875af1158015610b20573d6000803e3d6000fd5b505050506040513d601f19601f82011682018060405250810190610b4491906120f7565b50610b8e81600660003373ffffffffffffffffffffffffffffffffffffffff1673ffffffffffffffffffffffffffffffffffffffff16815260200190815260200160002054611969565b600660003373ffffffffffffffffffffffffffffffffffffffff1673ffffffffffffffffffffffffffffffffffffffff1681526020019081526020016000208190555050565b60606000610be133610550565b67ffffffffffffffff811115610bfa57610bf9611ad1565b5b604051908082528060200260200182016040528015610c285781602001602082028036833780820191505090505b5090506000805b600880549050811015610d4e573373ffffffffffffffffffffffffffffffffffffffff1660088281548110610c6757610c66611e41565b5b906000526020600020906003020160000160009054906101000a900473ffffffffffffffffffffffffffffffffffffffff1673ffffffffffffffffffffffffffffffffffffffff16148015610ce157504260088281548110610ccc57610ccb611e41565b5b90600052602060002090600302016001015410155b15610d3b5760088181548110610cfa57610cf9611e41565b5b906000526020600020906003020160020154838381518110610d1f57610d1e611e41565b5b602002602001018181525050600182610d38919061224e565b91505b8080610d4690611e9f565b915050610c2f565b50819250505090565b60008111610d9a576040517f08c379a0000000000000000000000000000000000000000000000000000000008152600401610d91906122ce565b60405180910390fd5b60008211610ddd576040517f08c379a0000000000000000000000000000000000000000000000000000000008152600401610dd49061233a565b60405180910390fd5b81610de7336114ce565b1015610e28576040517f08c379a0000000000000000000000000000000000000000000000000000000008152600401610e1f906123cc565b60405180910390fd5b6000610e5c600354610e4e600254610e40878761175f565b61175f90919063ffffffff16565b61177590919063ffffffff16565b905080600160009054906101000a900473ffffffffffffffffffffffffffffffffffffffff1673ffffffffffffffffffffffffffffffffffffffff166370a08231336040518263ffffffff1660e01b8152600401610eba9190612190565b602060405180830381865afa158015610ed7573d6000803e3d6000fd5b505050506040513d601f19601f82011682018060405250810190610efb9190611ddc565b1015610f3c576040517f08c379a0000000000000000000000000000000000000000000000000000000008152600401610f3390612438565b60405180910390fd5b6000600160009054906101000a900473ffffffffffffffffffffffffffffffffffffffff1673ffffffffffffffffffffffffffffffffffffffff166323b872dd33600560009054906101000a900473ffffffffffffffffffffffffffffffffffffffff16856040518463ffffffff1660e01b8152600401610fbf93929190612217565b6020604051808303816000875af1158015610fde573d6000803e3d6000fd5b505050506040513d601f19601f8201168201806040525081019061100291906120f7565b905080611044576040517f08c379a000000000000000000000000000000000000000000000000000000000815260040161103b906124a4565b60405180910390fd5b6000620151808461105591906124c4565b42611060919061224e565b905060008590506000600960009054906101000a900473ffffffffffffffffffffffffffffffffffffffff1673ffffffffffffffffffffffffffffffffffffffff16635d3b1d30600b54600960149054906101000a900467ffffffffffffffff16600c60189054906101000a900461ffff16600c60009054906101000a900463ffffffff16876040518663ffffffff1660e01b815260040161110695949392919061258c565b6020604051808303816000875af1158015611125573d6000803e3d6000fd5b505050506040513d601f19601f820116820180604052508101906111499190611ddc565b905060005b87811015611236576007600083815260200190815260200160002060405180606001604052803373ffffffffffffffffffffffffffffffffffffffff1681526020018681526020016000801b815250908060018154018082558091505060019003906000526020600020906003020160009091909190915060008201518160000160006101000a81548173ffffffffffffffffffffffffffffffffffffffff021916908373ffffffffffffffffffffffffffffffffffffffff16021790555060208201518160010155604082015181600201555050808061122e90611e9f565b91505061114e565b5050505050505050565b600080600090505b600880549050811015611357573373ffffffffffffffffffffffffffffffffffffffff16600882815481106112805761127f611e41565b5b906000526020600020906003020160000160009054906101000a900473ffffffffffffffffffffffffffffffffffffffff1673ffffffffffffffffffffffffffffffffffffffff161480156112fa575042600882815481106112e5576112e4611e41565b5b90600052602060002090600302016001015410155b156113445760008303611335576008818154811061131b5761131a611e41565b5b906000526020600020906003020160010154915050611359565b8280611340906125df565b9350505b808061134f90611e9f565b915050611248565b505b919050565b6000600660008373ffffffffffffffffffffffffffffffffffffffff1673ffffffffffffffffffffffffffffffffffffffff168152602001908152602001600020549050919050565b600080600090505b6008805490508110156114bd573373ffffffffffffffffffffffffffffffffffffffff16600882815481106113e7576113e6611e41565b5b906000526020600020906003020160000160009054906101000a900473ffffffffffffffffffffffffffffffffffffffff1673ffffffffffffffffffffffffffffffffffffffff161480156114605750426008828154811061144c5761144b611e41565b5b906000526020600020906003020160010154105b156114aa576000830361149b576008818154811061148157611480611e41565b5b9060005260206000209060030201600101549150506114bf565b82806114a6906125df565b9350505b80806114b590611e9f565b9150506113af565b505b919050565b6000600454905090565b60006114f36114dc83610550565b6114e584610393565b61195390919063ffffffff16565b9050919050565b6000600254905090565b60606000805b6008805490508110156115e4573373ffffffffffffffffffffffffffffffffffffffff166008828154811061154257611541611e41565b5b906000526020600020906003020160000160009054906101000a900473ffffffffffffffffffffffffffffffffffffffff1673ffffffffffffffffffffffffffffffffffffffff161480156115bc575042600882815481106115a7576115a6611e41565b5b90600052602060002090600302016001015410155b156115d1576001826115ce919061224e565b91505b80806115dc90611e9f565b91505061150a565b5060008167ffffffffffffffff81111561160157611600611ad1565b5b60405190808252806020026020018201604052801561162f5781602001602082028036833780820191505090505b5090506000805b600880549050811015611755573373ffffffffffffffffffffffffffffffffffffffff166008828154811061166e5761166d611e41565b5b906000526020600020906003020160000160009054906101000a900473ffffffffffffffffffffffffffffffffffffffff1673ffffffffffffffffffffffffffffffffffffffff161480156116e8575042600882815481106116d3576116d2611e41565b5b90600052602060002090600302016001015410155b15611742576008818154811061170157611700611e41565b5b90600052602060002090600302016002015483838151811061172657611725611e41565b5b60200260200101818152505060018261173f919061224e565b91505b808061174d90611e9f565b915050611636565b5081935050505090565b6000818361176d91906124c4565b905092915050565b600081836117839190612637565b905092915050565b600060076000848152602001908152602001600020905060005b81805490508110156119215761181d600560009054906101000a900473ffffffffffffffffffffffffffffffffffffffff16828484815481106117eb576117ea611e41565b5b9060005260206000209060030201600101548685815181106118105761180f611e41565b5b602002602001015161197f565b8282815481106118305761182f611e41565b5b906000526020600020906003020160020181905550600882828154811061185a57611859611e41565b5b906000526020600020906003020190806001815401808255809150506001900390600052602060002090600302016000909190919091506000820160009054906101000a900473ffffffffffffffffffffffffffffffffffffffff168160000160006101000a81548173ffffffffffffffffffffffffffffffffffffffff021916908373ffffffffffffffffffffffffffffffffffffffff16021790555060018201548160010155600282015481600201555050808061191990611e9f565b9150506117a5565b507f1301a7643a86a99a9e94c1f1bfb5443bb9d8b57c47cf3718925642b792c4b67160405160405180910390a1505050565b600081836119619190611fd0565b905092915050565b60008183611977919061224e565b905092915050565b600084843342868660405160200161199c96959493929190612668565b604051602081830303815290604052805190602001209050949350505050565b6000604051905090565b600080fd5b600080fd5b600073ffffffffffffffffffffffffffffffffffffffff82169050919050565b60006119fb826119d0565b9050919050565b611a0b816119f0565b8114611a1657600080fd5b50565b600081359050611a2881611a02565b92915050565b600060208284031215611a4457611a436119c6565b5b6000611a5284828501611a19565b91505092915050565b6000819050919050565b611a6e81611a5b565b82525050565b6000602082019050611a896000830184611a65565b92915050565b611a9881611a5b565b8114611aa357600080fd5b50565b600081359050611ab581611a8f565b92915050565b600080fd5b6000601f19601f8301169050919050565b7f4e487b7100000000000000000000000000000000000000000000000000000000600052604160045260246000fd5b611b0982611ac0565b810181811067ffffffffffffffff82111715611b2857611b27611ad1565b5b80604052505050565b6000611b3b6119bc565b9050611b478282611b00565b919050565b600067ffffffffffffffff821115611b6757611b66611ad1565b5b602082029050602081019050919050565b600080fd5b6000611b90611b8b84611b4c565b611b31565b90508083825260208201905060208402830185811115611bb357611bb2611b78565b5b835b81811015611bdc5780611bc88882611aa6565b845260208401935050602081019050611bb5565b5050509392505050565b600082601f830112611bfb57611bfa611abb565b5b8135611c0b848260208601611b7d565b91505092915050565b60008060408385031215611c2b57611c2a6119c6565b5b6000611c3985828601611aa6565b925050602083013567ffffffffffffffff811115611c5a57611c596119cb565b5b611c6685828601611be6565b9150509250929050565b600060208284031215611c8657611c856119c6565b5b6000611c9484828501611aa6565b91505092915050565b600081519050919050565b600082825260208201905092915050565b6000819050602082019050919050565b6000819050919050565b611cdc81611cc9565b82525050565b6000611cee8383611cd3565b60208301905092915050565b6000602082019050919050565b6000611d1282611c9d565b611d1c8185611ca8565b9350611d2783611cb9565b8060005b83811015611d58578151611d3f8882611ce2565b9750611d4a83611cfa565b925050600181019050611d2b565b5085935050505092915050565b60006020820190508181036000830152611d7f8184611d07565b905092915050565b60008060408385031215611d9e57611d9d6119c6565b5b6000611dac85828601611aa6565b9250506020611dbd85828601611aa6565b9150509250929050565b600081519050611dd681611a8f565b92915050565b600060208284031215611df257611df16119c6565b5b6000611e0084828501611dc7565b91505092915050565b611e12816119f0565b82525050565b6000604082019050611e2d6000830185611e09565b611e3a6020830184611e09565b9392505050565b7f4e487b7100000000000000000000000000000000000000000000000000000000600052603260045260246000fd5b7f4e487b7100000000000000000000000000000000000000000000000000000000600052601160045260246000fd5b6000611eaa82611a5b565b91507fffffffffffffffffffffffffffffffffffffffffffffffffffffffffffffffff8203611edc57611edb611e70565b5b600182019050919050565b600082825260208201905092915050565b7f20497a61626572692076656369206f6420300000000000000000000000000000600082015250565b6000611f2e601283611ee7565b9150611f3982611ef8565b602082019050919050565b60006020820190508181036000830152611f5d81611f21565b9050919050565b7f4e656d617320746f6c696b6f207374616b656f76616e696820746f6b656e6121600082015250565b6000611f9a602083611ee7565b9150611fa582611f64565b602082019050919050565b60006020820190508181036000830152611fc981611f8d565b9050919050565b6000611fdb82611a5b565b9150611fe683611a5b565b9250828203905081811115611ffe57611ffd611e70565b5b92915050565b7f4e65206d6f7a657320746f6c696b6f20646120756e7374616b65756a6573207460008201527f6f6b656e61000000000000000000000000000000000000000000000000000000602082015250565b6000612060602583611ee7565b915061206b82612004565b604082019050919050565b6000602082019050818103600083015261208f81612053565b9050919050565b60006040820190506120ab6000830185611e09565b6120b86020830184611a65565b9392505050565b60008115159050919050565b6120d4816120bf565b81146120df57600080fd5b50565b6000815190506120f1816120cb565b92915050565b60006020828403121561210d5761210c6119c6565b5b600061211b848285016120e2565b91505092915050565b7f497a61626572692076656369206f642030000000000000000000000000000000600082015250565b600061215a601183611ee7565b915061216582612124565b602082019050919050565b600060208201905081810360008301526121898161214d565b9050919050565b60006020820190506121a56000830184611e09565b92915050565b7f4e656d617320746f6c696b6f20746f6b656e6121000000000000000000000000600082015250565b60006121e1601483611ee7565b91506121ec826121ab565b602082019050919050565b60006020820190508181036000830152612210816121d4565b9050919050565b600060608201905061222c6000830186611e09565b6122396020830185611e09565b6122466040830184611a65565b949350505050565b600061225982611a5b565b915061226483611a5b565b925082820190508082111561227c5761227b611e70565b5b92915050565b7f497a61626572692076697365206f6420302064616e6100000000000000000000600082015250565b60006122b8601683611ee7565b91506122c382612282565b602082019050919050565b600060208201905081810360008301526122e7816122ab565b9050919050565b7f497a61626572692076697365206f642030206d65737461000000000000000000600082015250565b6000612324601783611ee7565b915061232f826122ee565b602082019050919050565b6000602082019050818103600083015261235381612317565b9050919050565b7f4e696a65206d6f677563652072656e74697261746920746f6c696b6f206d657360008201527f7461000000000000000000000000000000000000000000000000000000000000602082015250565b60006123b6602283611ee7565b91506123c18261235a565b604082019050919050565b600060208201905081810360008301526123e5816123a9565b9050919050565b7f796f7520646f6e74206861766520656e6f7567682066756e6473000000000000600082015250565b6000612422601a83611ee7565b915061242d826123ec565b602082019050919050565b6000602082019050818103600083015261245181612415565b9050919050565b7f4661696c656420746f2073656e64205553444300000000000000000000000000600082015250565b600061248e601383611ee7565b915061249982612458565b602082019050919050565b600060208201905081810360008301526124bd81612481565b9050919050565b60006124cf82611a5b565b91506124da83611a5b565b9250817fffffffffffffffffffffffffffffffffffffffffffffffffffffffffffffffff048311821515161561251357612512611e70565b5b828202905092915050565b61252781611cc9565b82525050565b600067ffffffffffffffff82169050919050565b61254a8161252d565b82525050565b600061ffff82169050919050565b61256781612550565b82525050565b600063ffffffff82169050919050565b6125868161256d565b82525050565b600060a0820190506125a1600083018861251e565b6125ae6020830187612541565b6125bb604083018661255e565b6125c8606083018561257d565b6125d5608083018461257d565b9695505050505050565b60006125ea82611a5b565b9150600082036125fd576125fc611e70565b5b600182039050919050565b7f4e487b7100000000000000000000000000000000000000000000000000000000600052601260045260246000fd5b600061264282611a5b565b915061264d83611a5b565b92508261265d5761265c612608565b5b828204905092915050565b600060c08201905061267d6000830189611e09565b61268a6020830188611a65565b6126976040830187611e09565b6126a46060830186611a65565b6126b16080830185611a65565b6126be60a0830184611a65565b97965050505050505056fea26469706673582212200410257da34fd67c10066dc682f0dd78bce670176bb25ec4040bb05df99be47b64736f6c63430008100033",
  "linkReferences": {},
  "deployedLinkReferences": {}
}