{
  "_format": "hh-sol-artifact-1",
  "contractName": "Rent",
  "sourceName": "contracts/Rent.sol",
  "abi": [
    {
      "inputs": [
        {
          "internalType": "address",
          "name": "tokenAddress",
          "type": "address"
        }
      ],
      "stateMutability": "nonpayable",
      "type": "constructor"
    },
    {
      "inputs": [],
      "name": "amount",
      "outputs": [
        {
          "internalType": "uint256",
          "name": "",
          "type": "uint256"
        }
      ],
      "stateMutability": "view",
      "type": "function"
    },
    {
      "inputs": [
        {
          "internalType": "address",
          "name": "_address",
          "type": "address"
        }
      ],
      "name": "getStakingBalance",
      "outputs": [
        {
          "internalType": "uint256",
          "name": "",
          "type": "uint256"
        }
      ],
      "stateMutability": "view",
      "type": "function"
    },
    {
      "inputs": [
        {
          "internalType": "address",
          "name": "_to",
          "type": "address"
        }
      ],
      "name": "getUserHash",
      "outputs": [
        {
          "internalType": "bytes32[]",
          "name": "",
          "type": "bytes32[]"
        }
      ],
      "stateMutability": "view",
      "type": "function"
    },
    {
      "inputs": [
        {
          "internalType": "address",
          "name": "_address",
          "type": "address"
        }
      ],
      "name": "numberOfFreePlacesForAddress",
      "outputs": [
        {
          "internalType": "uint256",
          "name": "",
          "type": "uint256"
        }
      ],
      "stateMutability": "view",
      "type": "function"
    },
    {
      "inputs": [
        {
          "internalType": "address",
          "name": "_address",
          "type": "address"
        }
      ],
      "name": "numberOfPlacesForAddress",
      "outputs": [
        {
          "internalType": "uint256",
          "name": "",
          "type": "uint256"
        }
      ],
      "stateMutability": "view",
      "type": "function"
    },
    {
      "inputs": [
        {
          "internalType": "address",
          "name": "_address",
          "type": "address"
        }
      ],
      "name": "numberOfRentedPlacesForAddress",
      "outputs": [
        {
          "internalType": "uint256",
          "name": "",
          "type": "uint256"
        }
      ],
      "stateMutability": "view",
      "type": "function"
    },
    {
      "inputs": [
        {
          "internalType": "address payable",
          "name": "_to",
          "type": "address"
        },
        {
          "internalType": "uint256",
          "name": "number_of_places",
          "type": "uint256"
        },
        {
          "internalType": "uint256",
          "name": "numberOfDays",
          "type": "uint256"
        }
      ],
      "name": "rentSeat",
      "outputs": [],
      "stateMutability": "payable",
      "type": "function"
    },
    {
      "inputs": [
        {
          "internalType": "uint256",
          "name": "_amount",
          "type": "uint256"
        }
      ],
      "name": "stakeTokens",
      "outputs": [],
      "stateMutability": "nonpayable",
      "type": "function"
    },
    {
      "inputs": [],
      "name": "ulaz",
      "outputs": [
        {
          "internalType": "bool",
          "name": "",
          "type": "bool"
        }
      ],
      "stateMutability": "view",
      "type": "function"
    },
    {
      "inputs": [
        {
          "internalType": "uint256",
          "name": "_amount",
          "type": "uint256"
        }
      ],
      "name": "unstakeTokens",
      "outputs": [],
      "stateMutability": "nonpayable",
      "type": "function"
    },
    {
      "inputs": [],
      "name": "usdc",
      "outputs": [
        {
          "internalType": "contract USDC",
          "name": "",
          "type": "address"
        }
      ],
      "stateMutability": "view",
      "type": "function"
    }
  ],
  "bytecode": "0x608060405260fa60025560646003553480156200001b57600080fd5b5060405162001ad238038062001ad2833981810160405281019062000041919062000147565b806000806101000a81548173ffffffffffffffffffffffffffffffffffffffff021916908373ffffffffffffffffffffffffffffffffffffffff16021790555073a0b86991c6218b36c1d19d4a2e9eb0ce3606eb48600160006101000a81548173ffffffffffffffffffffffffffffffffffffffff021916908373ffffffffffffffffffffffffffffffffffffffff1602179055505062000179565b600080fd5b600073ffffffffffffffffffffffffffffffffffffffff82169050919050565b60006200010f82620000e2565b9050919050565b620001218162000102565b81146200012d57600080fd5b50565b600081519050620001418162000116565b92915050565b60006020828403121562000160576200015f620000dd565b5b6000620001708482850162000130565b91505092915050565b61194980620001896000396000f3fe60806040526004361061009c5760003560e01c80637547c7a3116100645780637547c7a3146101ac5780637b07145a146101d55780637ffb047e146101f1578063aa8c217c1461021c578063b04ef9c214610247578063c3c8f1d8146102845761009c565b80630435e352146100a15780632df2d93c146100de5780633e413bee1461011b578063608e4dd014610146578063643774521461016f575b600080fd5b3480156100ad57600080fd5b506100c860048036038101906100c39190610fa0565b6102c1565b6040516100d59190610fe6565b60405180910390f35b3480156100ea57600080fd5b5061010560048036038101906101009190610fa0565b6103c0565b6040516101129190610fe6565b60405180910390f35b34801561012757600080fd5b506101306104ad565b60405161013d9190611060565b60405180910390f35b34801561015257600080fd5b5061016d600480360381019061016891906110a7565b6104d3565b005b34801561017b57600080fd5b5061019660048036038101906101919190610fa0565b6106d9565b6040516101a3919061119c565b60405180910390f35b3480156101b857600080fd5b506101d360048036038101906101ce91906110a7565b610811565b005b6101ef60048036038101906101ea91906111fc565b610a48565b005b3480156101fd57600080fd5b50610206610c82565b604051610213919061126a565b60405180910390f35b34801561022857600080fd5b50610231610d67565b60405161023e9190610fe6565b60405180910390f35b34801561025357600080fd5b5061026e60048036038101906102699190610fa0565b610d6d565b60405161027b9190610fe6565b60405180910390f35b34801561029057600080fd5b506102ab60048036038101906102a69190610fa0565b610db6565b6040516102b89190610fe6565b60405180910390f35b60008060009054906101000a900473ffffffffffffffffffffffffffffffffffffffff1673ffffffffffffffffffffffffffffffffffffffff166318160ddd6040518163ffffffff1660e01b815260040160206040518083038186803b15801561032a57600080fd5b505afa15801561033e573d6000803e3d6000fd5b505050506040513d601f19601f82011682018060405250810190610362919061129a565b600354600560008573ffffffffffffffffffffffffffffffffffffffff1673ffffffffffffffffffffffffffffffffffffffff168152602001908152602001600020546103af91906112f6565b6103b9919061137f565b9050919050565b6000806000905060005b6004805490508110156104a3578373ffffffffffffffffffffffffffffffffffffffff1660048281548110610402576104016113b0565b5b906000526020600020906004020160000160009054906101000a900473ffffffffffffffffffffffffffffffffffffffff1673ffffffffffffffffffffffffffffffffffffffff1614801561047c57504260048281548110610467576104666113b0565b5b90600052602060002090600402016002015410155b1561049057818061048c906113df565b9250505b808061049b906113df565b9150506103ca565b5080915050919050565b600160009054906101000a900473ffffffffffffffffffffffffffffffffffffffff1681565b60008111610516576040517f08c379a000000000000000000000000000000000000000000000000000000000815260040161050d90611485565b60405180910390fd5b80600560003373ffffffffffffffffffffffffffffffffffffffff1673ffffffffffffffffffffffffffffffffffffffff168152602001908152602001600020541015610598576040517f08c379a000000000000000000000000000000000000000000000000000000000815260040161058f906114f1565b60405180910390fd5b60008054906101000a900473ffffffffffffffffffffffffffffffffffffffff1673ffffffffffffffffffffffffffffffffffffffff1663a9059cbb33836040518363ffffffff1660e01b81526004016105f3929190611520565b602060405180830381600087803b15801561060d57600080fd5b505af1158015610621573d6000803e3d6000fd5b505050506040513d601f19601f820116820180604052508101906106459190611575565b5080600560003373ffffffffffffffffffffffffffffffffffffffff1673ffffffffffffffffffffffffffffffffffffffff168152602001908152602001600020600082825461069591906115a2565b9250508190555060006106a7336102c1565b905060006106b4336103c0565b9050808210156106d4576106d382826106cd91906115a2565b33610ddb565b5b505050565b6060806000805b600354811015610806578473ffffffffffffffffffffffffffffffffffffffff1660048281548110610715576107146113b0565b5b906000526020600020906004020160010160009054906101000a900473ffffffffffffffffffffffffffffffffffffffff1673ffffffffffffffffffffffffffffffffffffffff1614801561078e5750426004828154811061077a576107796113b0565b5b906000526020600020906004020160020154115b156107a257818061079e906113df565b9250505b600481815481106107b6576107b56113b0565b5b9060005260206000209060040201600301548383806107d4906113df565b9450815181106107e7576107e66113b0565b5b60200260200101818152505080806107fe906113df565b9150506106e0565b508192505050919050565b60008111610854576040517f08c379a000000000000000000000000000000000000000000000000000000000815260040161084b90611622565b60405180910390fd5b8060008054906101000a900473ffffffffffffffffffffffffffffffffffffffff1673ffffffffffffffffffffffffffffffffffffffff166370a08231336040518263ffffffff1660e01b81526004016108ae9190611642565b60206040518083038186803b1580156108c657600080fd5b505afa1580156108da573d6000803e3d6000fd5b505050506040513d601f19601f820116820180604052508101906108fe919061129a565b101561093f576040517f08c379a0000000000000000000000000000000000000000000000000000000008152600401610936906116a9565b60405180910390fd5b60008054906101000a900473ffffffffffffffffffffffffffffffffffffffff1673ffffffffffffffffffffffffffffffffffffffff166323b872dd3330846040518463ffffffff1660e01b815260040161099c939291906116c9565b602060405180830381600087803b1580156109b657600080fd5b505af11580156109ca573d6000803e3d6000fd5b505050506040513d601f19601f820116820180604052508101906109ee9190611575565b5080600560003373ffffffffffffffffffffffffffffffffffffffff1673ffffffffffffffffffffffffffffffffffffffff1681526020019081526020016000206000828254610a3e9190611700565b9250508190555050565b60008111610a8b576040517f08c379a0000000000000000000000000000000000000000000000000000000008152600401610a82906117a2565b60405180910390fd5b60008211610ace576040517f08c379a0000000000000000000000000000000000000000000000000000000008152600401610ac59061180e565b60405180910390fd5b81610ad884610db6565b1015610b19576040517f08c379a0000000000000000000000000000000000000000000000000000000008152600401610b10906118a0565b60405180910390fd5b60006201518082610b2a91906112f6565b42610b359190611700565b905060005b83811015610c7b57600460405180608001604052808773ffffffffffffffffffffffffffffffffffffffff1681526020013373ffffffffffffffffffffffffffffffffffffffff168152602001848152602001610b98888587610f03565b815250908060018154018082558091505060019003906000526020600020906004020160009091909190915060008201518160000160006101000a81548173ffffffffffffffffffffffffffffffffffffffff021916908373ffffffffffffffffffffffffffffffffffffffff16021790555060208201518160010160006101000a81548173ffffffffffffffffffffffffffffffffffffffff021916908373ffffffffffffffffffffffffffffffffffffffff160217905550604082015181600201556060820151816003015550508080610c73906113df565b915050610b3a565b5050505050565b600080600090505b600480549050811015610d5e573373ffffffffffffffffffffffffffffffffffffffff1660048281548110610cc257610cc16113b0565b5b906000526020600020906004020160010160009054906101000a900473ffffffffffffffffffffffffffffffffffffffff1673ffffffffffffffffffffffffffffffffffffffff16148015610d3c57504260048281548110610d2757610d266113b0565b5b90600052602060002090600402016002015410155b15610d4b576001915050610d64565b8080610d56906113df565b915050610c8a565b50600090505b90565b60025481565b6000600560008373ffffffffffffffffffffffffffffffffffffffff1673ffffffffffffffffffffffffffffffffffffffff168152602001908152602001600020549050919050565b6000610dc1826103c0565b610dca836102c1565b610dd491906115a2565b9050919050565b60005b600480549050811015610efe578173ffffffffffffffffffffffffffffffffffffffff1660048281548110610e1657610e156113b0565b5b906000526020600020906004020160000160009054906101000a900473ffffffffffffffffffffffffffffffffffffffff1673ffffffffffffffffffffffffffffffffffffffff16148015610e90575060048181548110610e7a57610e796113b0565b5b9060005260206000209060040201600201544211155b15610edd57600183610ea291906115a2565b92506201518042610eb391906115a2565b60048281548110610ec757610ec66113b0565b5b9060005260206000209060040201600201819055505b6000831415610eeb57610efe565b8080610ef6906113df565b915050610dde565b505050565b60008383334285604051602001610f1e9594939291906118c0565b6040516020818303038152906040528051906020012090509392505050565b600080fd5b600073ffffffffffffffffffffffffffffffffffffffff82169050919050565b6000610f6d82610f42565b9050919050565b610f7d81610f62565b8114610f8857600080fd5b50565b600081359050610f9a81610f74565b92915050565b600060208284031215610fb657610fb5610f3d565b5b6000610fc484828501610f8b565b91505092915050565b6000819050919050565b610fe081610fcd565b82525050565b6000602082019050610ffb6000830184610fd7565b92915050565b6000819050919050565b600061102661102161101c84610f42565b611001565b610f42565b9050919050565b60006110388261100b565b9050919050565b600061104a8261102d565b9050919050565b61105a8161103f565b82525050565b60006020820190506110756000830184611051565b92915050565b61108481610fcd565b811461108f57600080fd5b50565b6000813590506110a18161107b565b92915050565b6000602082840312156110bd576110bc610f3d565b5b60006110cb84828501611092565b91505092915050565b600081519050919050565b600082825260208201905092915050565b6000819050602082019050919050565b6000819050919050565b61111381611100565b82525050565b6000611125838361110a565b60208301905092915050565b6000602082019050919050565b6000611149826110d4565b61115381856110df565b935061115e836110f0565b8060005b8381101561118f5781516111768882611119565b975061118183611131565b925050600181019050611162565b5085935050505092915050565b600060208201905081810360008301526111b6818461113e565b905092915050565b60006111c982610f42565b9050919050565b6111d9816111be565b81146111e457600080fd5b50565b6000813590506111f6816111d0565b92915050565b60008060006060848603121561121557611214610f3d565b5b6000611223868287016111e7565b935050602061123486828701611092565b925050604061124586828701611092565b9150509250925092565b60008115159050919050565b6112648161124f565b82525050565b600060208201905061127f600083018461125b565b92915050565b6000815190506112948161107b565b92915050565b6000602082840312156112b0576112af610f3d565b5b60006112be84828501611285565b91505092915050565b7f4e487b7100000000000000000000000000000000000000000000000000000000600052601160045260246000fd5b600061130182610fcd565b915061130c83610fcd565b9250817fffffffffffffffffffffffffffffffffffffffffffffffffffffffffffffffff0483118215151615611345576113446112c7565b5b828202905092915050565b7f4e487b7100000000000000000000000000000000000000000000000000000000600052601260045260246000fd5b600061138a82610fcd565b915061139583610fcd565b9250826113a5576113a4611350565b5b828204905092915050565b7f4e487b7100000000000000000000000000000000000000000000000000000000600052603260045260246000fd5b60006113ea82610fcd565b91507fffffffffffffffffffffffffffffffffffffffffffffffffffffffffffffffff82141561141d5761141c6112c7565b5b600182019050919050565b600082825260208201905092915050565b7f20497a61626572692076656369206f6420300000000000000000000000000000600082015250565b600061146f601283611428565b915061147a82611439565b602082019050919050565b6000602082019050818103600083015261149e81611462565b9050919050565b7f4e656d617320746f6c696b6f207374616b656f76616e696820746f6b656e6121600082015250565b60006114db602083611428565b91506114e6826114a5565b602082019050919050565b6000602082019050818103600083015261150a816114ce565b9050919050565b61151a81610f62565b82525050565b60006040820190506115356000830185611511565b6115426020830184610fd7565b9392505050565b6115528161124f565b811461155d57600080fd5b50565b60008151905061156f81611549565b92915050565b60006020828403121561158b5761158a610f3d565b5b600061159984828501611560565b91505092915050565b60006115ad82610fcd565b91506115b883610fcd565b9250828210156115cb576115ca6112c7565b5b828203905092915050565b7f497a61626572692076656369206f642030000000000000000000000000000000600082015250565b600061160c601183611428565b9150611617826115d6565b602082019050919050565b6000602082019050818103600083015261163b816115ff565b9050919050565b60006020820190506116576000830184611511565b92915050565b7f4e656d617320746f6c696b6f20746f6b656e6121000000000000000000000000600082015250565b6000611693601483611428565b915061169e8261165d565b602082019050919050565b600060208201905081810360008301526116c281611686565b9050919050565b60006060820190506116de6000830186611511565b6116eb6020830185611511565b6116f86040830184610fd7565b949350505050565b600061170b82610fcd565b915061171683610fcd565b9250827fffffffffffffffffffffffffffffffffffffffffffffffffffffffffffffffff0382111561174b5761174a6112c7565b5b828201905092915050565b7f497a61626572692076697365206f6420302064616e6100000000000000000000600082015250565b600061178c601683611428565b915061179782611756565b602082019050919050565b600060208201905081810360008301526117bb8161177f565b9050919050565b7f497a61626572692076697365206f642030206d65737461000000000000000000600082015250565b60006117f8601783611428565b9150611803826117c2565b602082019050919050565b60006020820190508181036000830152611827816117eb565b9050919050565b7f4e696a65206d6f677563652072656e74697261746920746f6c696b6f206d657360008201527f7461000000000000000000000000000000000000000000000000000000000000602082015250565b600061188a602283611428565b91506118958261182e565b604082019050919050565b600060208201905081810360008301526118b98161187d565b9050919050565b600060a0820190506118d56000830188611511565b6118e26020830187610fd7565b6118ef6040830186611511565b6118fc6060830185610fd7565b6119096080830184610fd7565b969550505050505056fea26469706673582212201c871ced667586f17f511b385448abe62d6e85f483f9fef2511d82a9aa6a481264736f6c63430008090033",
  "linkReferences": {},
  "deployedLinkReferences": {}
}