{
  "_format": "hh-sol-artifact-1",
  "contractName": "Rent",
  "sourceName": "contracts/Rent.sol",
  "abi": [
    {
      "inputs": [
        {
          "internalType": "address",
          "name": "tokenAddress",
          "type": "address"
        }
      ],
      "stateMutability": "nonpayable",
      "type": "constructor"
    },
    {
      "inputs": [],
      "name": "amount",
      "outputs": [
        {
          "internalType": "uint256",
          "name": "",
          "type": "uint256"
        }
      ],
      "stateMutability": "view",
      "type": "function"
    },
    {
      "inputs": [],
      "name": "getNumberOfPlaces",
      "outputs": [
        {
          "internalType": "uint256",
          "name": "",
          "type": "uint256"
        }
      ],
      "stateMutability": "view",
      "type": "function"
    },
    {
      "inputs": [
        {
          "internalType": "address",
          "name": "_to",
          "type": "address"
        }
      ],
      "name": "getUserHash",
      "outputs": [
        {
          "internalType": "bytes32[]",
          "name": "",
          "type": "bytes32[]"
        }
      ],
      "stateMutability": "view",
      "type": "function"
    },
    {
      "inputs": [
        {
          "internalType": "address",
          "name": "_address",
          "type": "address"
        },
        {
          "internalType": "uint256",
          "name": "numberOfStakedTokens",
          "type": "uint256"
        }
      ],
      "name": "numberOfFreePlacesForAddress",
      "outputs": [
        {
          "internalType": "uint256",
          "name": "",
          "type": "uint256"
        }
      ],
      "stateMutability": "view",
      "type": "function"
    },
    {
      "inputs": [
        {
          "internalType": "uint256",
          "name": "numberOfStakedTokens",
          "type": "uint256"
        }
      ],
      "name": "numberOfPlacesForAddress",
      "outputs": [
        {
          "internalType": "uint256",
          "name": "",
          "type": "uint256"
        }
      ],
      "stateMutability": "view",
      "type": "function"
    },
    {
      "inputs": [
        {
          "internalType": "address",
          "name": "_address",
          "type": "address"
        }
      ],
      "name": "numberOfRentedPlacesForAddress",
      "outputs": [
        {
          "internalType": "uint256",
          "name": "",
          "type": "uint256"
        }
      ],
      "stateMutability": "view",
      "type": "function"
    },
    {
      "inputs": [
        {
          "internalType": "address payable",
          "name": "_to",
          "type": "address"
        },
        {
          "internalType": "uint256",
          "name": "number_of_places",
          "type": "uint256"
        },
        {
          "internalType": "uint256",
          "name": "numberOfDays",
          "type": "uint256"
        },
        {
          "internalType": "uint256",
          "name": "numberOfStakedTokens",
          "type": "uint256"
        }
      ],
      "name": "rentSeat",
      "outputs": [],
      "stateMutability": "payable",
      "type": "function"
    },
    {
      "inputs": [],
      "name": "ulaz",
      "outputs": [
        {
          "internalType": "bool",
          "name": "",
          "type": "bool"
        }
      ],
      "stateMutability": "view",
      "type": "function"
    },
    {
      "inputs": [
        {
          "internalType": "uint256",
          "name": "numberOfPlaces",
          "type": "uint256"
        }
      ],
      "name": "unrent",
      "outputs": [],
      "stateMutability": "nonpayable",
      "type": "function"
    },
    {
      "inputs": [],
      "name": "usdc",
      "outputs": [
        {
          "internalType": "contract USDC",
          "name": "",
          "type": "address"
        }
      ],
      "stateMutability": "view",
      "type": "function"
    }
  ],
  "bytecode": "0x608060405260fa60025560646003553480156200001b57600080fd5b50604051620016a4380380620016a4833981810160405281019062000041919062000147565b806000806101000a81548173ffffffffffffffffffffffffffffffffffffffff021916908373ffffffffffffffffffffffffffffffffffffffff16021790555073a0b86991c6218b36c1d19d4a2e9eb0ce3606eb48600160006101000a81548173ffffffffffffffffffffffffffffffffffffffff021916908373ffffffffffffffffffffffffffffffffffffffff1602179055505062000179565b600080fd5b600073ffffffffffffffffffffffffffffffffffffffff82169050919050565b60006200010f82620000e2565b9050919050565b620001218162000102565b81146200012d57600080fd5b50565b600081519050620001418162000116565b92915050565b60006020828403121562000160576200015f620000dd565b5b6000620001708482850162000130565b91505092915050565b61151b80620001896000396000f3fe6080604052600436106100915760003560e01c80637ffb047e116100595780637ffb047e146101a3578063aa8c217c146101ce578063ae1d4871146101f9578063dee5065414610222578063f032395f1461023e57610091565b8063134f6601146100965780632df2d93c146100c15780633e413bee146100fe578063643774521461012957806377d0670214610166575b600080fd5b3480156100a257600080fd5b506100ab61027b565b6040516100b89190610bc9565b60405180910390f35b3480156100cd57600080fd5b506100e860048036038101906100e39190610c47565b610285565b6040516100f59190610bc9565b60405180910390f35b34801561010a57600080fd5b50610113610372565b6040516101209190610cd3565b60405180910390f35b34801561013557600080fd5b50610150600480360381019061014b9190610c47565b610398565b60405161015d9190610db6565b60405180910390f35b34801561017257600080fd5b5061018d60048036038101906101889190610e04565b610509565b60405161019a9190610bc9565b60405180910390f35b3480156101af57600080fd5b506101b861052f565b6040516101c59190610e5f565b60405180910390f35b3480156101da57600080fd5b506101e3610614565b6040516101f09190610bc9565b60405180910390f35b34801561020557600080fd5b50610220600480360381019061021b9190610e7a565b61061a565b005b61023c60048036038101906102379190610ee5565b61072e565b005b34801561024a57600080fd5b5061026560048036038101906102609190610e7a565b610ac5565b6040516102729190610bc9565b60405180910390f35b6000600354905090565b6000806000905060005b600480549050811015610368578373ffffffffffffffffffffffffffffffffffffffff16600482815481106102c7576102c6610f4c565b5b906000526020600020906004020160000160009054906101000a900473ffffffffffffffffffffffffffffffffffffffff1673ffffffffffffffffffffffffffffffffffffffff161480156103415750426004828154811061032c5761032b610f4c565b5b90600052602060002090600402016002015410155b1561035557818061035190610faa565b9250505b808061036090610faa565b91505061028f565b5080915050919050565b600160009054906101000a900473ffffffffffffffffffffffffffffffffffffffff1681565b60608173ffffffffffffffffffffffffffffffffffffffff163373ffffffffffffffffffffffffffffffffffffffff16146103d257600080fd5b60606000805b6003548110156104fe578473ffffffffffffffffffffffffffffffffffffffff166004828154811061040d5761040c610f4c565b5b906000526020600020906004020160010160009054906101000a900473ffffffffffffffffffffffffffffffffffffffff1673ffffffffffffffffffffffffffffffffffffffff161480156104865750426004828154811061047257610471610f4c565b5b906000526020600020906004020160020154115b1561049a57818061049690610faa565b9250505b600481815481106104ae576104ad610f4c565b5b9060005260206000209060040201600301548383806104cc90610faa565b9450815181106104df576104de610f4c565b5b60200260200101818152505080806104f690610faa565b9150506103d8565b508192505050919050565b600061051483610285565b61051d83610ac5565b6105279190610ff2565b905092915050565b600080600090505b60048054905081101561060b573373ffffffffffffffffffffffffffffffffffffffff166004828154811061056f5761056e610f4c565b5b906000526020600020906004020160010160009054906101000a900473ffffffffffffffffffffffffffffffffffffffff1673ffffffffffffffffffffffffffffffffffffffff161480156105e9575042600482815481106105d4576105d3610f4c565b5b90600052602060002090600402016002015410155b156105f8576001915050610611565b808061060390610faa565b915050610537565b50600090505b90565b60025481565b60005b60048054905081101561072a573373ffffffffffffffffffffffffffffffffffffffff166004828154811061065557610654610f4c565b5b906000526020600020906004020160000160009054906101000a900473ffffffffffffffffffffffffffffffffffffffff1673ffffffffffffffffffffffffffffffffffffffff161480156106cf5750600481815481106106b9576106b8610f4c565b5b9060005260206000209060040201600201544211155b1561070e5781806106df90611026565b9250506000600482815481106106f8576106f7610f4c565b5b9060005260206000209060040201600201819055505b600082031561072a57808061072290610faa565b91505061061d565b5050565b60008211610771576040517f08c379a0000000000000000000000000000000000000000000000000000000008152600401610768906110ac565b60405180910390fd5b600083116107b4576040517f08c379a00000000000000000000000000000000000000000000000000000000081526004016107ab90611118565b60405180910390fd5b826107bf8583610509565b1015610800576040517f08c379a00000000000000000000000000000000000000000000000000000000081526004016107f7906111aa565b60405180910390fd5b8260025461080e91906111ca565b341015610850576040517f08c379a000000000000000000000000000000000000000000000000000000000815260040161084790611270565b60405180910390fd5b6000600160009054906101000a900473ffffffffffffffffffffffffffffffffffffffff1673ffffffffffffffffffffffffffffffffffffffff166323b872dd3387601e87896002546108a391906111ca565b6108ad91906111ca565b6108b791906112bf565b6040518463ffffffff1660e01b81526004016108d593929190611320565b6020604051808303816000875af11580156108f4573d6000803e3d6000fd5b505050506040513d601f19601f820116820180604052508101906109189190611383565b90508061095a576040517f08c379a0000000000000000000000000000000000000000000000000000000008152600401610951906113fc565b60405180910390fd5b6000620151808461096b91906111ca565b42610976919061141c565b905060005b85811015610abc57600460405180608001604052808973ffffffffffffffffffffffffffffffffffffffff1681526020013373ffffffffffffffffffffffffffffffffffffffff1681526020018481526020016109d98a8587610b76565b815250908060018154018082558091505060019003906000526020600020906004020160009091909190915060008201518160000160006101000a81548173ffffffffffffffffffffffffffffffffffffffff021916908373ffffffffffffffffffffffffffffffffffffffff16021790555060208201518160010160006101000a81548173ffffffffffffffffffffffffffffffffffffffff021916908373ffffffffffffffffffffffffffffffffffffffff160217905550604082015181600201556060820151816003015550508080610ab490610faa565b91505061097b565b50505050505050565b60008060009054906101000a900473ffffffffffffffffffffffffffffffffffffffff1673ffffffffffffffffffffffffffffffffffffffff166318160ddd6040518163ffffffff1660e01b8152600401602060405180830381865afa158015610b33573d6000803e3d6000fd5b505050506040513d601f19601f82011682018060405250810190610b579190611465565b60035483610b6591906111ca565b610b6f91906112bf565b9050919050565b60008383334285604051602001610b91959493929190611492565b6040516020818303038152906040528051906020012090509392505050565b6000819050919050565b610bc381610bb0565b82525050565b6000602082019050610bde6000830184610bba565b92915050565b600080fd5b600073ffffffffffffffffffffffffffffffffffffffff82169050919050565b6000610c1482610be9565b9050919050565b610c2481610c09565b8114610c2f57600080fd5b50565b600081359050610c4181610c1b565b92915050565b600060208284031215610c5d57610c5c610be4565b5b6000610c6b84828501610c32565b91505092915050565b6000819050919050565b6000610c99610c94610c8f84610be9565b610c74565b610be9565b9050919050565b6000610cab82610c7e565b9050919050565b6000610cbd82610ca0565b9050919050565b610ccd81610cb2565b82525050565b6000602082019050610ce86000830184610cc4565b92915050565b600081519050919050565b600082825260208201905092915050565b6000819050602082019050919050565b6000819050919050565b610d2d81610d1a565b82525050565b6000610d3f8383610d24565b60208301905092915050565b6000602082019050919050565b6000610d6382610cee565b610d6d8185610cf9565b9350610d7883610d0a565b8060005b83811015610da9578151610d908882610d33565b9750610d9b83610d4b565b925050600181019050610d7c565b5085935050505092915050565b60006020820190508181036000830152610dd08184610d58565b905092915050565b610de181610bb0565b8114610dec57600080fd5b50565b600081359050610dfe81610dd8565b92915050565b60008060408385031215610e1b57610e1a610be4565b5b6000610e2985828601610c32565b9250506020610e3a85828601610def565b9150509250929050565b60008115159050919050565b610e5981610e44565b82525050565b6000602082019050610e746000830184610e50565b92915050565b600060208284031215610e9057610e8f610be4565b5b6000610e9e84828501610def565b91505092915050565b6000610eb282610be9565b9050919050565b610ec281610ea7565b8114610ecd57600080fd5b50565b600081359050610edf81610eb9565b92915050565b60008060008060808587031215610eff57610efe610be4565b5b6000610f0d87828801610ed0565b9450506020610f1e87828801610def565b9350506040610f2f87828801610def565b9250506060610f4087828801610def565b91505092959194509250565b7f4e487b7100000000000000000000000000000000000000000000000000000000600052603260045260246000fd5b7f4e487b7100000000000000000000000000000000000000000000000000000000600052601160045260246000fd5b6000610fb582610bb0565b91507fffffffffffffffffffffffffffffffffffffffffffffffffffffffffffffffff8203610fe757610fe6610f7b565b5b600182019050919050565b6000610ffd82610bb0565b915061100883610bb0565b92508282039050818111156110205761101f610f7b565b5b92915050565b600061103182610bb0565b91506000820361104457611043610f7b565b5b600182039050919050565b600082825260208201905092915050565b7f497a61626572692076697365206f6420302064616e6100000000000000000000600082015250565b600061109660168361104f565b91506110a182611060565b602082019050919050565b600060208201905081810360008301526110c581611089565b9050919050565b7f497a61626572692076697365206f642030206d65737461000000000000000000600082015250565b600061110260178361104f565b915061110d826110cc565b602082019050919050565b60006020820190508181036000830152611131816110f5565b9050919050565b7f4e696a65206d6f677563652072656e74697261746920746f6c696b6f206d657360008201527f7461000000000000000000000000000000000000000000000000000000000000602082015250565b600061119460228361104f565b915061119f82611138565b604082019050919050565b600060208201905081810360008301526111c381611187565b9050919050565b60006111d582610bb0565b91506111e083610bb0565b9250817fffffffffffffffffffffffffffffffffffffffffffffffffffffffffffffffff048311821515161561121957611218610f7b565b5b828202905092915050565b7f796f7520646f6e74206861766520656e6f7567682066756e6473000000000000600082015250565b600061125a601a8361104f565b915061126582611224565b602082019050919050565b600060208201905081810360008301526112898161124d565b9050919050565b7f4e487b7100000000000000000000000000000000000000000000000000000000600052601260045260246000fd5b60006112ca82610bb0565b91506112d583610bb0565b9250826112e5576112e4611290565b5b828204905092915050565b6112f981610c09565b82525050565b600061130a82610ca0565b9050919050565b61131a816112ff565b82525050565b600060608201905061133560008301866112f0565b6113426020830185611311565b61134f6040830184610bba565b949350505050565b61136081610e44565b811461136b57600080fd5b50565b60008151905061137d81611357565b92915050565b60006020828403121561139957611398610be4565b5b60006113a78482850161136e565b91505092915050565b7f4661696c656420746f2073656e64205553444300000000000000000000000000600082015250565b60006113e660138361104f565b91506113f1826113b0565b602082019050919050565b60006020820190508181036000830152611415816113d9565b9050919050565b600061142782610bb0565b915061143283610bb0565b925082820190508082111561144a57611449610f7b565b5b92915050565b60008151905061145f81610dd8565b92915050565b60006020828403121561147b5761147a610be4565b5b600061148984828501611450565b91505092915050565b600060a0820190506114a760008301886112f0565b6114b46020830187610bba565b6114c160408301866112f0565b6114ce6060830185610bba565b6114db6080830184610bba565b969550505050505056fea26469706673582212203dec76ff8e9988f9cfd7ca60dfa996afb0c4d9c80a14403da0b8e4c9259cd88664736f6c63430008100033",
  "linkReferences": {},
  "deployedLinkReferences": {}
}