{
  "_format": "hh-sol-artifact-1",
  "contractName": "Rent",
  "sourceName": "contracts/Rent.sol",
  "abi": [
    {
      "inputs": [
        {
          "internalType": "address",
          "name": "tokenAddress",
          "type": "address"
        },
        {
          "internalType": "uint64",
          "name": "subscriptionId",
          "type": "uint64"
        }
      ],
      "stateMutability": "nonpayable",
      "type": "constructor"
    },
    {
      "inputs": [
        {
          "internalType": "address",
          "name": "have",
          "type": "address"
        },
        {
          "internalType": "address",
          "name": "want",
          "type": "address"
        }
      ],
      "name": "OnlyCoordinatorCanFulfill",
      "type": "error"
    },
    {
      "anonymous": false,
      "inputs": [],
      "name": "RentPlaceEvent",
      "type": "event"
    },
    {
      "inputs": [],
      "name": "getAmount",
      "outputs": [
        {
          "internalType": "uint256",
          "name": "",
          "type": "uint256"
        }
      ],
      "stateMutability": "view",
      "type": "function"
    },
    {
      "inputs": [
        {
          "internalType": "uint256",
          "name": "cnt",
          "type": "uint256"
        }
      ],
      "name": "getExpireDate",
      "outputs": [
        {
          "internalType": "uint256",
          "name": "",
          "type": "uint256"
        }
      ],
      "stateMutability": "view",
      "type": "function"
    },
    {
      "inputs": [],
      "name": "getNumberOfSeats",
      "outputs": [
        {
          "internalType": "uint256",
          "name": "",
          "type": "uint256"
        }
      ],
      "stateMutability": "view",
      "type": "function"
    },
    {
      "inputs": [
        {
          "internalType": "address",
          "name": "_address",
          "type": "address"
        }
      ],
      "name": "getStakingBalance",
      "outputs": [
        {
          "internalType": "uint256",
          "name": "",
          "type": "uint256"
        }
      ],
      "stateMutability": "view",
      "type": "function"
    },
    {
      "inputs": [],
      "name": "getUserHash",
      "outputs": [
        {
          "internalType": "bytes32[]",
          "name": "",
          "type": "bytes32[]"
        }
      ],
      "stateMutability": "view",
      "type": "function"
    },
    {
      "inputs": [
        {
          "internalType": "address",
          "name": "_address",
          "type": "address"
        }
      ],
      "name": "numberOfFreePlacesForAddress",
      "outputs": [
        {
          "internalType": "uint256",
          "name": "",
          "type": "uint256"
        }
      ],
      "stateMutability": "view",
      "type": "function"
    },
    {
      "inputs": [
        {
          "internalType": "address",
          "name": "_address",
          "type": "address"
        }
      ],
      "name": "numberOfPlacesForAddress",
      "outputs": [
        {
          "internalType": "uint256",
          "name": "",
          "type": "uint256"
        }
      ],
      "stateMutability": "view",
      "type": "function"
    },
    {
      "inputs": [
        {
          "internalType": "address",
          "name": "_address",
          "type": "address"
        }
      ],
      "name": "numberOfRentedPlacesForAddress",
      "outputs": [
        {
          "internalType": "uint256",
          "name": "",
          "type": "uint256"
        }
      ],
      "stateMutability": "view",
      "type": "function"
    },
    {
      "inputs": [
        {
          "internalType": "uint256",
          "name": "requestId",
          "type": "uint256"
        },
        {
          "internalType": "uint256[]",
          "name": "randomWords",
          "type": "uint256[]"
        }
      ],
      "name": "rawFulfillRandomWords",
      "outputs": [],
      "stateMutability": "nonpayable",
      "type": "function"
    },
    {
      "inputs": [
        {
          "internalType": "uint32",
          "name": "number_of_places",
          "type": "uint32"
        },
        {
          "internalType": "uint256",
          "name": "numberOfDays",
          "type": "uint256"
        },
        {
          "internalType": "uint256",
          "name": "fee",
          "type": "uint256"
        }
      ],
      "name": "rentSeat",
      "outputs": [],
      "stateMutability": "payable",
      "type": "function"
    },
    {
      "inputs": [
        {
          "internalType": "uint256",
          "name": "_amount",
          "type": "uint256"
        }
      ],
      "name": "stakeTokens",
      "outputs": [],
      "stateMutability": "nonpayable",
      "type": "function"
    },
    {
      "inputs": [
        {
          "internalType": "uint256",
          "name": "",
          "type": "uint256"
        },
        {
          "internalType": "uint256",
          "name": "",
          "type": "uint256"
        }
      ],
      "name": "ulaznice",
      "outputs": [
        {
          "internalType": "address",
          "name": "ownerOfSeat",
          "type": "address"
        },
        {
          "internalType": "uint256",
          "name": "expirationDate",
          "type": "uint256"
        },
        {
          "internalType": "bytes32",
          "name": "hashUlaznice",
          "type": "bytes32"
        }
      ],
      "stateMutability": "view",
      "type": "function"
    },
    {
      "inputs": [
        {
          "internalType": "uint256",
          "name": "_amount",
          "type": "uint256"
        }
      ],
      "name": "unstakeTokens",
      "outputs": [],
      "stateMutability": "nonpayable",
      "type": "function"
    }
  ],
  "bytecode": "0x60a060405260fa600255732ca8e0c643bde4c2e08ab1fa0da3401adad7734d600460006101000a81548173ffffffffffffffffffffffffffffffffffffffff021916908373ffffffffffffffffffffffffffffffffffffffff1602179055507f79d3d8832d904592c0bf9818b621522c988bb8b0c05cdc3b15aea1b6e8db0c1560001b600555622625a0600660006101000a81548163ffffffff021916908363ffffffff1602179055506003600660186101000a81548161ffff021916908361ffff1602179055506064600855348015620000d957600080fd5b506040516200276b3803806200276b8339818101604052810190620000ff9190620003b1565b600460009054906101000a900473ffffffffffffffffffffffffffffffffffffffff168073ffffffffffffffffffffffffffffffffffffffff1660808173ffffffffffffffffffffffffffffffffffffffff168152505050600460009054906101000a900473ffffffffffffffffffffffffffffffffffffffff16600360006101000a81548173ffffffffffffffffffffffffffffffffffffffff021916908373ffffffffffffffffffffffffffffffffffffffff16021790555033600660046101000a81548173ffffffffffffffffffffffffffffffffffffffff021916908373ffffffffffffffffffffffffffffffffffffffff16021790555080600360146101000a81548167ffffffffffffffff021916908367ffffffffffffffff160217905550816000806101000a81548173ffffffffffffffffffffffffffffffffffffffff021916908373ffffffffffffffffffffffffffffffffffffffff16021790555073d87ba7a50b2e7e660f678a895e4b72e7cb4ccd9c600160006101000a81548173ffffffffffffffffffffffffffffffffffffffff021916908373ffffffffffffffffffffffffffffffffffffffff16021790555033600a60006101000a81548173ffffffffffffffffffffffffffffffffffffffff021916908373ffffffffffffffffffffffffffffffffffffffff1602179055505050620003f8565b600080fd5b600073ffffffffffffffffffffffffffffffffffffffff82169050919050565b6000620003348262000307565b9050919050565b620003468162000327565b81146200035257600080fd5b50565b60008151905062000366816200033b565b92915050565b600067ffffffffffffffff82169050919050565b6200038b816200036c565b81146200039757600080fd5b50565b600081519050620003ab8162000380565b92915050565b60008060408385031215620003cb57620003ca62000302565b5b6000620003db8582860162000355565b9250506020620003ee858286016200039a565b9150509250929050565b6080516123506200041b60003960008181610441015261049501526123506000f3fe6080604052600436106100c25760003560e01c80638677b4e21161007f578063beb4cef411610059578063beb4cef41461027d578063c3c8f1d8146102a8578063d321fe29146102e5578063ebfa390814610310576100c2565b80638677b4e2146101d8578063a485172014610203578063b04ef9c214610240576100c2565b80630435e352146100c75780631fe543e3146101045780632df2d93c1461012d57806360158fbc1461016a578063608e4dd0146101865780637547c7a3146101af575b600080fd5b3480156100d357600080fd5b506100ee60048036038101906100e991906115c9565b61034f565b6040516100fb919061160f565b60405180910390f35b34801561011057600080fd5b5061012b600480360381019061012691906117af565b61043f565b005b34801561013957600080fd5b50610154600480360381019061014f91906115c9565b6104ff565b604051610161919061160f565b60405180910390f35b610184600480360381019061017f9190611847565b6105ec565b005b34801561019257600080fd5b506101ad60048036038101906101a8919061189a565b610aab565b005b3480156101bb57600080fd5b506101d660048036038101906101d1919061189a565b610daf565b005b3480156101e457600080fd5b506101ed610fc8565b6040516101fa919061198f565b60405180910390f35b34801561020f57600080fd5b5061022a6004803603810190610225919061189a565b61114b565b604051610237919061160f565b60405180910390f35b34801561024c57600080fd5b50610267600480360381019061026291906115c9565b611269565b604051610274919061160f565b60405180910390f35b34801561028957600080fd5b506102926112b2565b60405161029f919061160f565b60405180910390f35b3480156102b457600080fd5b506102cf60048036038101906102ca91906115c9565b6112bc565b6040516102dc919061160f565b60405180910390f35b3480156102f157600080fd5b506102fa6112e1565b604051610307919061160f565b60405180910390f35b34801561031c57600080fd5b50610337600480360381019061033291906119b1565b6112eb565b60405161034693929190611a0f565b60405180910390f35b60008060009054906101000a900473ffffffffffffffffffffffffffffffffffffffff1673ffffffffffffffffffffffffffffffffffffffff166318160ddd6040518163ffffffff1660e01b8152600401602060405180830381865afa1580156103bd573d6000803e3d6000fd5b505050506040513d601f19601f820116820180604052508101906103e19190611a5b565b600854600b60008573ffffffffffffffffffffffffffffffffffffffff1673ffffffffffffffffffffffffffffffffffffffff1681526020019081526020016000205461042e9190611ab7565b6104389190611b40565b9050919050565b7f000000000000000000000000000000000000000000000000000000000000000073ffffffffffffffffffffffffffffffffffffffff163373ffffffffffffffffffffffffffffffffffffffff16146104f157337f00000000000000000000000000000000000000000000000000000000000000006040517f1cf993f40000000000000000000000000000000000000000000000000000000081526004016104e8929190611b71565b60405180910390fd5b6104fb8282611352565b5050565b6000806000905060005b6009805490508110156105e2578373ffffffffffffffffffffffffffffffffffffffff166009828154811061054157610540611b9a565b5b906000526020600020906003020160000160009054906101000a900473ffffffffffffffffffffffffffffffffffffffff1673ffffffffffffffffffffffffffffffffffffffff161480156105bb575042600982815481106105a6576105a5611b9a565b5b90600052602060002090600302016001015410155b156105cf5781806105cb90611bc9565b9250505b80806105da90611bc9565b915050610509565b5080915050919050565b6000821161062f576040517f08c379a000000000000000000000000000000000000000000000000000000000815260040161062690611c6e565b60405180910390fd5b60008363ffffffff1611610678576040517f08c379a000000000000000000000000000000000000000000000000000000000815260040161066f90611cda565b60405180910390fd5b8263ffffffff16610688336112bc565b10156106c9576040517f08c379a00000000000000000000000000000000000000000000000000000000081526004016106c090611d6c565b60405180910390fd5b80600160009054906101000a900473ffffffffffffffffffffffffffffffffffffffff1673ffffffffffffffffffffffffffffffffffffffff166370a08231336040518263ffffffff1660e01b81526004016107259190611d8c565b602060405180830381865afa158015610742573d6000803e3d6000fd5b505050506040513d601f19601f820116820180604052508101906107669190611a5b565b10156107a7576040517f08c379a000000000000000000000000000000000000000000000000000000000815260040161079e90611df3565b60405180910390fd5b6000600160009054906101000a900473ffffffffffffffffffffffffffffffffffffffff1673ffffffffffffffffffffffffffffffffffffffff166323b872dd33600a60009054906101000a900473ffffffffffffffffffffffffffffffffffffffff16856040518463ffffffff1660e01b815260040161082a93929190611e13565b6020604051808303816000875af1158015610849573d6000803e3d6000fd5b505050506040513d601f19601f8201168201806040525081019061086d9190611e82565b9050806108af576040517f08c379a00000000000000000000000000000000000000000000000000000000081526004016108a690611efb565b60405180910390fd5b600062015180846108c09190611ab7565b426108cb9190611f1b565b90506000600360009054906101000a900473ffffffffffffffffffffffffffffffffffffffff1673ffffffffffffffffffffffffffffffffffffffff16635d3b1d30600554600360149054906101000a900467ffffffffffffffff16600660189054906101000a900461ffff16600660009054906101000a900463ffffffff168b6040518663ffffffff1660e01b815260040161096c959493929190611f9e565b6020604051808303816000875af115801561098b573d6000803e3d6000fd5b505050506040513d601f19601f820116820180604052508101906109af9190611a5b565b905060005b8663ffffffff16811015610aa2576007600083815260200190815260200160002060405180606001604052803373ffffffffffffffffffffffffffffffffffffffff1681526020018581526020016000801b815250908060018154018082558091505060019003906000526020600020906003020160009091909190915060008201518160000160006101000a81548173ffffffffffffffffffffffffffffffffffffffff021916908373ffffffffffffffffffffffffffffffffffffffff160217905550602082015181600101556040820151816002015550508080610a9a90611bc9565b9150506109b4565b50505050505050565b60008111610aee576040517f08c379a0000000000000000000000000000000000000000000000000000000008152600401610ae59061203d565b60405180910390fd5b80600b60003373ffffffffffffffffffffffffffffffffffffffff1673ffffffffffffffffffffffffffffffffffffffff168152602001908152602001600020541015610b70576040517f08c379a0000000000000000000000000000000000000000000000000000000008152600401610b67906120a9565b60405180910390fd5b6000610b7b336104ff565b9050600060085460008054906101000a900473ffffffffffffffffffffffffffffffffffffffff1673ffffffffffffffffffffffffffffffffffffffff166318160ddd6040518163ffffffff1660e01b8152600401602060405180830381865afa158015610bed573d6000803e3d6000fd5b505050506040513d601f19601f82011682018060405250810190610c119190611a5b565b83610c1c9190611ab7565b610c269190611b40565b905080600b60003373ffffffffffffffffffffffffffffffffffffffff1673ffffffffffffffffffffffffffffffffffffffff16815260200190815260200160002054610c7391906120c9565b831115610cb5576040517f08c379a0000000000000000000000000000000000000000000000000000000008152600401610cac9061216f565b60405180910390fd5b60008054906101000a900473ffffffffffffffffffffffffffffffffffffffff1673ffffffffffffffffffffffffffffffffffffffff1663a9059cbb33856040518363ffffffff1660e01b8152600401610d1092919061218f565b6020604051808303816000875af1158015610d2f573d6000803e3d6000fd5b505050506040513d601f19601f82011682018060405250810190610d539190611e82565b5082600b60003373ffffffffffffffffffffffffffffffffffffffff1673ffffffffffffffffffffffffffffffffffffffff1681526020019081526020016000206000828254610da391906120c9565b92505081905550505050565b60008111610df2576040517f08c379a0000000000000000000000000000000000000000000000000000000008152600401610de990612204565b60405180910390fd5b8060008054906101000a900473ffffffffffffffffffffffffffffffffffffffff1673ffffffffffffffffffffffffffffffffffffffff166370a08231336040518263ffffffff1660e01b8152600401610e4c9190611d8c565b602060405180830381865afa158015610e69573d6000803e3d6000fd5b505050506040513d601f19601f82011682018060405250810190610e8d9190611a5b565b1015610ece576040517f08c379a0000000000000000000000000000000000000000000000000000000008152600401610ec590612270565b60405180910390fd5b60008054906101000a900473ffffffffffffffffffffffffffffffffffffffff1673ffffffffffffffffffffffffffffffffffffffff166323b872dd3330846040518463ffffffff1660e01b8152600401610f2b93929190611e13565b6020604051808303816000875af1158015610f4a573d6000803e3d6000fd5b505050506040513d601f19601f82011682018060405250810190610f6e9190611e82565b5080600b60003373ffffffffffffffffffffffffffffffffffffffff1673ffffffffffffffffffffffffffffffffffffffff1681526020019081526020016000206000828254610fbe9190611f1b565b9250508190555050565b60606000610fd5336104ff565b67ffffffffffffffff811115610fee57610fed61166c565b5b60405190808252806020026020018201604052801561101c5781602001602082028036833780820191505090505b5090506000805b600980549050811015611142573373ffffffffffffffffffffffffffffffffffffffff166009828154811061105b5761105a611b9a565b5b906000526020600020906003020160000160009054906101000a900473ffffffffffffffffffffffffffffffffffffffff1673ffffffffffffffffffffffffffffffffffffffff161480156110d5575042600982815481106110c0576110bf611b9a565b5b90600052602060002090600302016001015410155b1561112f57600981815481106110ee576110ed611b9a565b5b90600052602060002090600302016002015483838151811061111357611112611b9a565b5b60200260200101818152505060018261112c9190611f1b565b91505b808061113a90611bc9565b915050611023565b50819250505090565b600080600090505b600980549050811015611262573373ffffffffffffffffffffffffffffffffffffffff166009828154811061118b5761118a611b9a565b5b906000526020600020906003020160000160009054906101000a900473ffffffffffffffffffffffffffffffffffffffff1673ffffffffffffffffffffffffffffffffffffffff16148015611205575042600982815481106111f0576111ef611b9a565b5b90600052602060002090600302016001015410155b1561124f5760008303611240576009818154811061122657611225611b9a565b5b906000526020600020906003020160010154915050611264565b828061124b90612290565b9350505b808061125a90611bc9565b915050611153565b505b919050565b6000600b60008373ffffffffffffffffffffffffffffffffffffffff1673ffffffffffffffffffffffffffffffffffffffff168152602001908152602001600020549050919050565b6000600854905090565b60006112c7826104ff565b6112d08361034f565b6112da91906120c9565b9050919050565b6000600254905090565b6007602052816000526040600020818154811061130757600080fd5b9060005260206000209060030201600091509150508060000160009054906101000a900473ffffffffffffffffffffffffffffffffffffffff16908060010154908060020154905083565b600060076000848152602001908152602001600020905060005b81805490508110156114e8576113e4600a60009054906101000a900473ffffffffffffffffffffffffffffffffffffffff16828484815481106113b2576113b1611b9a565b5b9060005260206000209060030201600101548685815181106113d7576113d6611b9a565b5b602002602001015161151a565b8282815481106113f7576113f6611b9a565b5b906000526020600020906003020160020181905550600982828154811061142157611420611b9a565b5b906000526020600020906003020190806001815401808255809150506001900390600052602060002090600302016000909190919091506000820160009054906101000a900473ffffffffffffffffffffffffffffffffffffffff168160000160006101000a81548173ffffffffffffffffffffffffffffffffffffffff021916908373ffffffffffffffffffffffffffffffffffffffff1602179055506001820154816001015560028201548160020155505080806114e090611bc9565b91505061136c565b507f1301a7643a86a99a9e94c1f1bfb5443bb9d8b57c47cf3718925642b792c4b67160405160405180910390a1505050565b6000848433428686604051602001611537969594939291906122b9565b604051602081830303815290604052805190602001209050949350505050565b6000604051905090565b600080fd5b600080fd5b600073ffffffffffffffffffffffffffffffffffffffff82169050919050565b60006115968261156b565b9050919050565b6115a68161158b565b81146115b157600080fd5b50565b6000813590506115c38161159d565b92915050565b6000602082840312156115df576115de611561565b5b60006115ed848285016115b4565b91505092915050565b6000819050919050565b611609816115f6565b82525050565b60006020820190506116246000830184611600565b92915050565b611633816115f6565b811461163e57600080fd5b50565b6000813590506116508161162a565b92915050565b600080fd5b6000601f19601f8301169050919050565b7f4e487b7100000000000000000000000000000000000000000000000000000000600052604160045260246000fd5b6116a48261165b565b810181811067ffffffffffffffff821117156116c3576116c261166c565b5b80604052505050565b60006116d6611557565b90506116e2828261169b565b919050565b600067ffffffffffffffff8211156117025761170161166c565b5b602082029050602081019050919050565b600080fd5b600061172b611726846116e7565b6116cc565b9050808382526020820190506020840283018581111561174e5761174d611713565b5b835b8181101561177757806117638882611641565b845260208401935050602081019050611750565b5050509392505050565b600082601f83011261179657611795611656565b5b81356117a6848260208601611718565b91505092915050565b600080604083850312156117c6576117c5611561565b5b60006117d485828601611641565b925050602083013567ffffffffffffffff8111156117f5576117f4611566565b5b61180185828601611781565b9150509250929050565b600063ffffffff82169050919050565b6118248161180b565b811461182f57600080fd5b50565b6000813590506118418161181b565b92915050565b6000806000606084860312156118605761185f611561565b5b600061186e86828701611832565b935050602061187f86828701611641565b925050604061189086828701611641565b9150509250925092565b6000602082840312156118b0576118af611561565b5b60006118be84828501611641565b91505092915050565b600081519050919050565b600082825260208201905092915050565b6000819050602082019050919050565b6000819050919050565b611906816118f3565b82525050565b600061191883836118fd565b60208301905092915050565b6000602082019050919050565b600061193c826118c7565b61194681856118d2565b9350611951836118e3565b8060005b83811015611982578151611969888261190c565b975061197483611924565b925050600181019050611955565b5085935050505092915050565b600060208201905081810360008301526119a98184611931565b905092915050565b600080604083850312156119c8576119c7611561565b5b60006119d685828601611641565b92505060206119e785828601611641565b9150509250929050565b6119fa8161158b565b82525050565b611a09816118f3565b82525050565b6000606082019050611a2460008301866119f1565b611a316020830185611600565b611a3e6040830184611a00565b949350505050565b600081519050611a558161162a565b92915050565b600060208284031215611a7157611a70611561565b5b6000611a7f84828501611a46565b91505092915050565b7f4e487b7100000000000000000000000000000000000000000000000000000000600052601160045260246000fd5b6000611ac2826115f6565b9150611acd836115f6565b9250817fffffffffffffffffffffffffffffffffffffffffffffffffffffffffffffffff0483118215151615611b0657611b05611a88565b5b828202905092915050565b7f4e487b7100000000000000000000000000000000000000000000000000000000600052601260045260246000fd5b6000611b4b826115f6565b9150611b56836115f6565b925082611b6657611b65611b11565b5b828204905092915050565b6000604082019050611b8660008301856119f1565b611b9360208301846119f1565b9392505050565b7f4e487b7100000000000000000000000000000000000000000000000000000000600052603260045260246000fd5b6000611bd4826115f6565b91507fffffffffffffffffffffffffffffffffffffffffffffffffffffffffffffffff8203611c0657611c05611a88565b5b600182019050919050565b600082825260208201905092915050565b7f497a61626572692076697365206f6420302064616e6100000000000000000000600082015250565b6000611c58601683611c11565b9150611c6382611c22565b602082019050919050565b60006020820190508181036000830152611c8781611c4b565b9050919050565b7f497a61626572692076697365206f642030206d65737461000000000000000000600082015250565b6000611cc4601783611c11565b9150611ccf82611c8e565b602082019050919050565b60006020820190508181036000830152611cf381611cb7565b9050919050565b7f4e696a65206d6f677563652072656e74697261746920746f6c696b6f206d657360008201527f7461000000000000000000000000000000000000000000000000000000000000602082015250565b6000611d56602283611c11565b9150611d6182611cfa565b604082019050919050565b60006020820190508181036000830152611d8581611d49565b9050919050565b6000602082019050611da160008301846119f1565b92915050565b7f796f7520646f6e74206861766520656e6f7567682066756e6473000000000000600082015250565b6000611ddd601a83611c11565b9150611de882611da7565b602082019050919050565b60006020820190508181036000830152611e0c81611dd0565b9050919050565b6000606082019050611e2860008301866119f1565b611e3560208301856119f1565b611e426040830184611600565b949350505050565b60008115159050919050565b611e5f81611e4a565b8114611e6a57600080fd5b50565b600081519050611e7c81611e56565b92915050565b600060208284031215611e9857611e97611561565b5b6000611ea684828501611e6d565b91505092915050565b7f4661696c656420746f2073656e64205553444300000000000000000000000000600082015250565b6000611ee5601383611c11565b9150611ef082611eaf565b602082019050919050565b60006020820190508181036000830152611f1481611ed8565b9050919050565b6000611f26826115f6565b9150611f31836115f6565b9250828201905080821115611f4957611f48611a88565b5b92915050565b600067ffffffffffffffff82169050919050565b611f6c81611f4f565b82525050565b600061ffff82169050919050565b611f8981611f72565b82525050565b611f988161180b565b82525050565b600060a082019050611fb36000830188611a00565b611fc06020830187611f63565b611fcd6040830186611f80565b611fda6060830185611f8f565b611fe76080830184611f8f565b9695505050505050565b7f20497a61626572692076656369206f6420300000000000000000000000000000600082015250565b6000612027601283611c11565b915061203282611ff1565b602082019050919050565b600060208201905081810360008301526120568161201a565b9050919050565b7f4e656d617320746f6c696b6f207374616b656f76616e696820746f6b656e6121600082015250565b6000612093602083611c11565b915061209e8261205d565b602082019050919050565b600060208201905081810360008301526120c281612086565b9050919050565b60006120d4826115f6565b91506120df836115f6565b92508282039050818111156120f7576120f6611a88565b5b92915050565b7f4e65206d6f7a657320746f6c696b6f20646120756e7374616b65756a6573207460008201527f6f6b656e61000000000000000000000000000000000000000000000000000000602082015250565b6000612159602583611c11565b9150612164826120fd565b604082019050919050565b600060208201905081810360008301526121888161214c565b9050919050565b60006040820190506121a460008301856119f1565b6121b16020830184611600565b9392505050565b7f497a61626572692076656369206f642030000000000000000000000000000000600082015250565b60006121ee601183611c11565b91506121f9826121b8565b602082019050919050565b6000602082019050818103600083015261221d816121e1565b9050919050565b7f4e656d617320746f6c696b6f20746f6b656e6121000000000000000000000000600082015250565b600061225a601483611c11565b915061226582612224565b602082019050919050565b600060208201905081810360008301526122898161224d565b9050919050565b600061229b826115f6565b9150600082036122ae576122ad611a88565b5b600182039050919050565b600060c0820190506122ce60008301896119f1565b6122db6020830188611600565b6122e860408301876119f1565b6122f56060830186611600565b6123026080830185611600565b61230f60a0830184611600565b97965050505050505056fea264697066735822122016051ad7cd3d4a223605d96c196dc86c47f0221328b6f80e6fabafb62f406aa764736f6c63430008100033",
  "linkReferences": {},
  "deployedLinkReferences": {}
}