{
  "_format": "hh-sol-artifact-1",
  "contractName": "Rent",
  "sourceName": "contracts/Rent.sol",
  "abi": [
    {
      "inputs": [
        {
          "internalType": "address",
          "name": "tokenAddress",
          "type": "address"
        },
        {
          "internalType": "uint64",
          "name": "subscriptionId",
          "type": "uint64"
        }
      ],
      "stateMutability": "nonpayable",
      "type": "constructor"
    },
    {
      "inputs": [
        {
          "internalType": "address",
          "name": "have",
          "type": "address"
        },
        {
          "internalType": "address",
          "name": "want",
          "type": "address"
        }
      ],
      "name": "OnlyCoordinatorCanFulfill",
      "type": "error"
    },
    {
      "anonymous": false,
      "inputs": [],
      "name": "RentPlaceEvent",
      "type": "event"
    },
    {
      "inputs": [],
      "name": "getAmount",
      "outputs": [
        {
          "internalType": "uint256",
          "name": "",
          "type": "uint256"
        }
      ],
      "stateMutability": "view",
      "type": "function"
    },
    {
      "inputs": [
        {
          "internalType": "uint256",
          "name": "cnt",
          "type": "uint256"
        }
      ],
      "name": "getExpireDate",
      "outputs": [
        {
          "internalType": "uint256",
          "name": "",
          "type": "uint256"
        }
      ],
      "stateMutability": "view",
      "type": "function"
    },
    {
      "inputs": [],
      "name": "getNumberOfSeats",
      "outputs": [
        {
          "internalType": "uint256",
          "name": "",
          "type": "uint256"
        }
      ],
      "stateMutability": "view",
      "type": "function"
    },
    {
      "inputs": [
        {
          "internalType": "address",
          "name": "_address",
          "type": "address"
        }
      ],
      "name": "getStakingBalance",
      "outputs": [
        {
          "internalType": "uint256",
          "name": "",
          "type": "uint256"
        }
      ],
      "stateMutability": "view",
      "type": "function"
    },
    {
      "inputs": [],
      "name": "getUserHash",
      "outputs": [
        {
          "internalType": "bytes32[]",
          "name": "",
          "type": "bytes32[]"
        }
      ],
      "stateMutability": "view",
      "type": "function"
    },
    {
      "inputs": [
        {
          "internalType": "address",
          "name": "_address",
          "type": "address"
        }
      ],
      "name": "numberOfFreePlacesForAddress",
      "outputs": [
        {
          "internalType": "uint256",
          "name": "",
          "type": "uint256"
        }
      ],
      "stateMutability": "view",
      "type": "function"
    },
    {
      "inputs": [
        {
          "internalType": "address",
          "name": "_address",
          "type": "address"
        }
      ],
      "name": "numberOfPlacesForAddress",
      "outputs": [
        {
          "internalType": "uint256",
          "name": "",
          "type": "uint256"
        }
      ],
      "stateMutability": "view",
      "type": "function"
    },
    {
      "inputs": [
        {
          "internalType": "address",
          "name": "_address",
          "type": "address"
        }
      ],
      "name": "numberOfRentedPlacesForAddress",
      "outputs": [
        {
          "internalType": "uint256",
          "name": "",
          "type": "uint256"
        }
      ],
      "stateMutability": "view",
      "type": "function"
    },
    {
      "inputs": [
        {
          "internalType": "uint256",
          "name": "requestId",
          "type": "uint256"
        },
        {
          "internalType": "uint256[]",
          "name": "randomWords",
          "type": "uint256[]"
        }
      ],
      "name": "rawFulfillRandomWords",
      "outputs": [],
      "stateMutability": "nonpayable",
      "type": "function"
    },
    {
      "inputs": [
        {
          "internalType": "uint32",
          "name": "number_of_places",
          "type": "uint32"
        },
        {
          "internalType": "uint256",
          "name": "numberOfDays",
          "type": "uint256"
        }
      ],
      "name": "rentSeat",
      "outputs": [],
      "stateMutability": "payable",
      "type": "function"
    },
    {
      "inputs": [
        {
          "internalType": "uint256",
          "name": "_amount",
          "type": "uint256"
        }
      ],
      "name": "stakeTokens",
      "outputs": [],
      "stateMutability": "nonpayable",
      "type": "function"
    },
    {
      "inputs": [
        {
          "internalType": "uint256",
          "name": "_amount",
          "type": "uint256"
        }
      ],
      "name": "unstakeTokens",
      "outputs": [],
      "stateMutability": "nonpayable",
      "type": "function"
    }
  ],
  "bytecode": "0x60a0604052630ee6b280600255601e600355732ca8e0c643bde4c2e08ab1fa0da3401adad7734d600560006101000a81548173ffffffffffffffffffffffffffffffffffffffff021916908373ffffffffffffffffffffffffffffffffffffffff1602179055507f79d3d8832d904592c0bf9818b621522c988bb8b0c05cdc3b15aea1b6e8db0c1560001b600655622625a0600760006101000a81548163ffffffff021916908363ffffffff1602179055506003600760186101000a81548161ffff021916908361ffff1602179055506064600955348015620000e157600080fd5b5060405162002658380380620026588339818101604052810190620001079190620003b9565b600560009054906101000a900473ffffffffffffffffffffffffffffffffffffffff168073ffffffffffffffffffffffffffffffffffffffff1660808173ffffffffffffffffffffffffffffffffffffffff168152505050600560009054906101000a900473ffffffffffffffffffffffffffffffffffffffff16600460006101000a81548173ffffffffffffffffffffffffffffffffffffffff021916908373ffffffffffffffffffffffffffffffffffffffff16021790555033600760046101000a81548173ffffffffffffffffffffffffffffffffffffffff021916908373ffffffffffffffffffffffffffffffffffffffff16021790555080600460146101000a81548167ffffffffffffffff021916908367ffffffffffffffff160217905550816000806101000a81548173ffffffffffffffffffffffffffffffffffffffff021916908373ffffffffffffffffffffffffffffffffffffffff16021790555073d87ba7a50b2e7e660f678a895e4b72e7cb4ccd9c600160006101000a81548173ffffffffffffffffffffffffffffffffffffffff021916908373ffffffffffffffffffffffffffffffffffffffff16021790555033600b60006101000a81548173ffffffffffffffffffffffffffffffffffffffff021916908373ffffffffffffffffffffffffffffffffffffffff160217905550505062000400565b600080fd5b600073ffffffffffffffffffffffffffffffffffffffff82169050919050565b60006200033c826200030f565b9050919050565b6200034e816200032f565b81146200035a57600080fd5b50565b6000815190506200036e8162000343565b92915050565b600067ffffffffffffffff82169050919050565b620003938162000374565b81146200039f57600080fd5b50565b600081519050620003b38162000388565b92915050565b60008060408385031215620003d357620003d26200030a565b5b6000620003e3858286016200035d565b9250506020620003f685828601620003a2565b9150509250929050565b60805161223562000423600039600081816103e7015261043b01526122356000f3fe6080604052600436106100a75760003560e01c8063a485172011610064578063a4851720146101cc578063b04ef9c214610209578063beb4cef414610246578063c3c8f1d814610271578063d321fe29146102ae578063ed9e012c146102d9576100a7565b80630435e352146100ac5780631fe543e3146100e95780632df2d93c14610112578063608e4dd01461014f5780637547c7a3146101785780638677b4e2146101a1575b600080fd5b3480156100b857600080fd5b506100d360048036038101906100ce9190611538565b6102f5565b6040516100e0919061157e565b60405180910390f35b3480156100f557600080fd5b50610110600480360381019061010b919061171e565b6103e5565b005b34801561011e57600080fd5b5061013960048036038101906101349190611538565b6104a5565b604051610146919061157e565b60405180910390f35b34801561015b57600080fd5b506101766004803603810190610171919061177a565b610592565b005b34801561018457600080fd5b5061019f600480360381019061019a919061177a565b610896565b005b3480156101ad57600080fd5b506101b6610aaf565b6040516101c3919061186f565b60405180910390f35b3480156101d857600080fd5b506101f360048036038101906101ee919061177a565b610c32565b604051610200919061157e565b60405180910390f35b34801561021557600080fd5b50610230600480360381019061022b9190611538565b610d50565b60405161023d919061157e565b60405180910390f35b34801561025257600080fd5b5061025b610d99565b604051610268919061157e565b60405180910390f35b34801561027d57600080fd5b5061029860048036038101906102939190611538565b610da3565b6040516102a5919061157e565b60405180910390f35b3480156102ba57600080fd5b506102c3610dc8565b6040516102d0919061157e565b60405180910390f35b6102f360048036038101906102ee91906118cd565b610dd2565b005b60008060009054906101000a900473ffffffffffffffffffffffffffffffffffffffff1673ffffffffffffffffffffffffffffffffffffffff166318160ddd6040518163ffffffff1660e01b8152600401602060405180830381865afa158015610363573d6000803e3d6000fd5b505050506040513d601f19601f820116820180604052508101906103879190611922565b600954600c60008573ffffffffffffffffffffffffffffffffffffffff1673ffffffffffffffffffffffffffffffffffffffff168152602001908152602001600020546103d4919061197e565b6103de9190611a07565b9050919050565b7f000000000000000000000000000000000000000000000000000000000000000073ffffffffffffffffffffffffffffffffffffffff163373ffffffffffffffffffffffffffffffffffffffff161461049757337f00000000000000000000000000000000000000000000000000000000000000006040517f1cf993f400000000000000000000000000000000000000000000000000000000815260040161048e929190611a47565b60405180910390fd5b6104a182826112c1565b5050565b6000806000905060005b600a80549050811015610588578373ffffffffffffffffffffffffffffffffffffffff16600a82815481106104e7576104e6611a70565b5b906000526020600020906003020160000160009054906101000a900473ffffffffffffffffffffffffffffffffffffffff1673ffffffffffffffffffffffffffffffffffffffff16148015610561575042600a828154811061054c5761054b611a70565b5b90600052602060002090600302016001015410155b1561057557818061057190611a9f565b9250505b808061058090611a9f565b9150506104af565b5080915050919050565b600081116105d5576040517f08c379a00000000000000000000000000000000000000000000000000000000081526004016105cc90611b44565b60405180910390fd5b80600c60003373ffffffffffffffffffffffffffffffffffffffff1673ffffffffffffffffffffffffffffffffffffffff168152602001908152602001600020541015610657576040517f08c379a000000000000000000000000000000000000000000000000000000000815260040161064e90611bb0565b60405180910390fd5b6000610662336104a5565b9050600060095460008054906101000a900473ffffffffffffffffffffffffffffffffffffffff1673ffffffffffffffffffffffffffffffffffffffff166318160ddd6040518163ffffffff1660e01b8152600401602060405180830381865afa1580156106d4573d6000803e3d6000fd5b505050506040513d601f19601f820116820180604052508101906106f89190611922565b83610703919061197e565b61070d9190611a07565b905080600c60003373ffffffffffffffffffffffffffffffffffffffff1673ffffffffffffffffffffffffffffffffffffffff1681526020019081526020016000205461075a9190611bd0565b83111561079c576040517f08c379a000000000000000000000000000000000000000000000000000000000815260040161079390611c76565b60405180910390fd5b60008054906101000a900473ffffffffffffffffffffffffffffffffffffffff1673ffffffffffffffffffffffffffffffffffffffff1663a9059cbb33856040518363ffffffff1660e01b81526004016107f7929190611c96565b6020604051808303816000875af1158015610816573d6000803e3d6000fd5b505050506040513d601f19601f8201168201806040525081019061083a9190611cf7565b5082600c60003373ffffffffffffffffffffffffffffffffffffffff1673ffffffffffffffffffffffffffffffffffffffff168152602001908152602001600020600082825461088a9190611bd0565b92505081905550505050565b600081116108d9576040517f08c379a00000000000000000000000000000000000000000000000000000000081526004016108d090611d70565b60405180910390fd5b8060008054906101000a900473ffffffffffffffffffffffffffffffffffffffff1673ffffffffffffffffffffffffffffffffffffffff166370a08231336040518263ffffffff1660e01b81526004016109339190611d90565b602060405180830381865afa158015610950573d6000803e3d6000fd5b505050506040513d601f19601f820116820180604052508101906109749190611922565b10156109b5576040517f08c379a00000000000000000000000000000000000000000000000000000000081526004016109ac90611df7565b60405180910390fd5b60008054906101000a900473ffffffffffffffffffffffffffffffffffffffff1673ffffffffffffffffffffffffffffffffffffffff166323b872dd3330846040518463ffffffff1660e01b8152600401610a1293929190611e17565b6020604051808303816000875af1158015610a31573d6000803e3d6000fd5b505050506040513d601f19601f82011682018060405250810190610a559190611cf7565b5080600c60003373ffffffffffffffffffffffffffffffffffffffff1673ffffffffffffffffffffffffffffffffffffffff1681526020019081526020016000206000828254610aa59190611e4e565b9250508190555050565b60606000610abc336104a5565b67ffffffffffffffff811115610ad557610ad46115db565b5b604051908082528060200260200182016040528015610b035781602001602082028036833780820191505090505b5090506000805b600a80549050811015610c29573373ffffffffffffffffffffffffffffffffffffffff16600a8281548110610b4257610b41611a70565b5b906000526020600020906003020160000160009054906101000a900473ffffffffffffffffffffffffffffffffffffffff1673ffffffffffffffffffffffffffffffffffffffff16148015610bbc575042600a8281548110610ba757610ba6611a70565b5b90600052602060002090600302016001015410155b15610c1657600a8181548110610bd557610bd4611a70565b5b906000526020600020906003020160020154838381518110610bfa57610bf9611a70565b5b602002602001018181525050600182610c139190611e4e565b91505b8080610c2190611a9f565b915050610b0a565b50819250505090565b600080600090505b600a80549050811015610d49573373ffffffffffffffffffffffffffffffffffffffff16600a8281548110610c7257610c71611a70565b5b906000526020600020906003020160000160009054906101000a900473ffffffffffffffffffffffffffffffffffffffff1673ffffffffffffffffffffffffffffffffffffffff16148015610cec575042600a8281548110610cd757610cd6611a70565b5b90600052602060002090600302016001015410155b15610d365760008303610d2757600a8181548110610d0d57610d0c611a70565b5b906000526020600020906003020160010154915050610d4b565b8280610d3290611e82565b9350505b8080610d4190611a9f565b915050610c3a565b505b919050565b6000600c60008373ffffffffffffffffffffffffffffffffffffffff1673ffffffffffffffffffffffffffffffffffffffff168152602001908152602001600020549050919050565b6000600954905090565b6000610dae826104a5565b610db7836102f5565b610dc19190611bd0565b9050919050565b6000600254905090565b60008111610e15576040517f08c379a0000000000000000000000000000000000000000000000000000000008152600401610e0c90611ef7565b60405180910390fd5b60008263ffffffff1611610e5e576040517f08c379a0000000000000000000000000000000000000000000000000000000008152600401610e5590611f63565b60405180910390fd5b8163ffffffff16610e6e33610da3565b1015610eaf576040517f08c379a0000000000000000000000000000000000000000000000000000000008152600401610ea690611ff5565b60405180910390fd5b6000600354600254838563ffffffff16610ec9919061197e565b610ed3919061197e565b610edd9190611a07565b905080600160009054906101000a900473ffffffffffffffffffffffffffffffffffffffff1673ffffffffffffffffffffffffffffffffffffffff166370a08231336040518263ffffffff1660e01b8152600401610f3b9190611d90565b602060405180830381865afa158015610f58573d6000803e3d6000fd5b505050506040513d601f19601f82011682018060405250810190610f7c9190611922565b1015610fbd576040517f08c379a0000000000000000000000000000000000000000000000000000000008152600401610fb490612061565b60405180910390fd5b6000600160009054906101000a900473ffffffffffffffffffffffffffffffffffffffff1673ffffffffffffffffffffffffffffffffffffffff166323b872dd33600b60009054906101000a900473ffffffffffffffffffffffffffffffffffffffff16856040518463ffffffff1660e01b815260040161104093929190611e17565b6020604051808303816000875af115801561105f573d6000803e3d6000fd5b505050506040513d601f19601f820116820180604052508101906110839190611cf7565b9050806110c5576040517f08c379a00000000000000000000000000000000000000000000000000000000081526004016110bc906120cd565b60405180910390fd5b600062015180846110d6919061197e565b426110e19190611e4e565b90506000600460009054906101000a900473ffffffffffffffffffffffffffffffffffffffff1673ffffffffffffffffffffffffffffffffffffffff16635d3b1d30600654600460149054906101000a900467ffffffffffffffff16600760189054906101000a900461ffff16600760009054906101000a900463ffffffff168b6040518663ffffffff1660e01b815260040161118295949392919061214b565b6020604051808303816000875af11580156111a1573d6000803e3d6000fd5b505050506040513d601f19601f820116820180604052508101906111c59190611922565b905060005b8663ffffffff168110156112b8576008600083815260200190815260200160002060405180606001604052803373ffffffffffffffffffffffffffffffffffffffff1681526020018581526020016000801b815250908060018154018082558091505060019003906000526020600020906003020160009091909190915060008201518160000160006101000a81548173ffffffffffffffffffffffffffffffffffffffff021916908373ffffffffffffffffffffffffffffffffffffffff1602179055506020820151816001015560408201518160020155505080806112b090611a9f565b9150506111ca565b50505050505050565b600060086000848152602001908152602001600020905060005b818054905081101561145757611353600b60009054906101000a900473ffffffffffffffffffffffffffffffffffffffff168284848154811061132157611320611a70565b5b90600052602060002090600302016001015486858151811061134657611345611a70565b5b6020026020010151611489565b82828154811061136657611365611a70565b5b906000526020600020906003020160020181905550600a8282815481106113905761138f611a70565b5b906000526020600020906003020190806001815401808255809150506001900390600052602060002090600302016000909190919091506000820160009054906101000a900473ffffffffffffffffffffffffffffffffffffffff168160000160006101000a81548173ffffffffffffffffffffffffffffffffffffffff021916908373ffffffffffffffffffffffffffffffffffffffff16021790555060018201548160010155600282015481600201555050808061144f90611a9f565b9150506112db565b507f1301a7643a86a99a9e94c1f1bfb5443bb9d8b57c47cf3718925642b792c4b67160405160405180910390a1505050565b60008484334286866040516020016114a69695949392919061219e565b604051602081830303815290604052805190602001209050949350505050565b6000604051905090565b600080fd5b600080fd5b600073ffffffffffffffffffffffffffffffffffffffff82169050919050565b6000611505826114da565b9050919050565b611515816114fa565b811461152057600080fd5b50565b6000813590506115328161150c565b92915050565b60006020828403121561154e5761154d6114d0565b5b600061155c84828501611523565b91505092915050565b6000819050919050565b61157881611565565b82525050565b6000602082019050611593600083018461156f565b92915050565b6115a281611565565b81146115ad57600080fd5b50565b6000813590506115bf81611599565b92915050565b600080fd5b6000601f19601f8301169050919050565b7f4e487b7100000000000000000000000000000000000000000000000000000000600052604160045260246000fd5b611613826115ca565b810181811067ffffffffffffffff82111715611632576116316115db565b5b80604052505050565b60006116456114c6565b9050611651828261160a565b919050565b600067ffffffffffffffff821115611671576116706115db565b5b602082029050602081019050919050565b600080fd5b600061169a61169584611656565b61163b565b905080838252602082019050602084028301858111156116bd576116bc611682565b5b835b818110156116e657806116d288826115b0565b8452602084019350506020810190506116bf565b5050509392505050565b600082601f830112611705576117046115c5565b5b8135611715848260208601611687565b91505092915050565b60008060408385031215611735576117346114d0565b5b6000611743858286016115b0565b925050602083013567ffffffffffffffff811115611764576117636114d5565b5b611770858286016116f0565b9150509250929050565b6000602082840312156117905761178f6114d0565b5b600061179e848285016115b0565b91505092915050565b600081519050919050565b600082825260208201905092915050565b6000819050602082019050919050565b6000819050919050565b6117e6816117d3565b82525050565b60006117f883836117dd565b60208301905092915050565b6000602082019050919050565b600061181c826117a7565b61182681856117b2565b9350611831836117c3565b8060005b8381101561186257815161184988826117ec565b975061185483611804565b925050600181019050611835565b5085935050505092915050565b600060208201905081810360008301526118898184611811565b905092915050565b600063ffffffff82169050919050565b6118aa81611891565b81146118b557600080fd5b50565b6000813590506118c7816118a1565b92915050565b600080604083850312156118e4576118e36114d0565b5b60006118f2858286016118b8565b9250506020611903858286016115b0565b9150509250929050565b60008151905061191c81611599565b92915050565b600060208284031215611938576119376114d0565b5b60006119468482850161190d565b91505092915050565b7f4e487b7100000000000000000000000000000000000000000000000000000000600052601160045260246000fd5b600061198982611565565b915061199483611565565b9250817fffffffffffffffffffffffffffffffffffffffffffffffffffffffffffffffff04831182151516156119cd576119cc61194f565b5b828202905092915050565b7f4e487b7100000000000000000000000000000000000000000000000000000000600052601260045260246000fd5b6000611a1282611565565b9150611a1d83611565565b925082611a2d57611a2c6119d8565b5b828204905092915050565b611a41816114fa565b82525050565b6000604082019050611a5c6000830185611a38565b611a696020830184611a38565b9392505050565b7f4e487b7100000000000000000000000000000000000000000000000000000000600052603260045260246000fd5b6000611aaa82611565565b91507fffffffffffffffffffffffffffffffffffffffffffffffffffffffffffffffff8203611adc57611adb61194f565b5b600182019050919050565b600082825260208201905092915050565b7f20497a61626572692076656369206f6420300000000000000000000000000000600082015250565b6000611b2e601283611ae7565b9150611b3982611af8565b602082019050919050565b60006020820190508181036000830152611b5d81611b21565b9050919050565b7f4e656d617320746f6c696b6f207374616b656f76616e696820746f6b656e6121600082015250565b6000611b9a602083611ae7565b9150611ba582611b64565b602082019050919050565b60006020820190508181036000830152611bc981611b8d565b9050919050565b6000611bdb82611565565b9150611be683611565565b9250828203905081811115611bfe57611bfd61194f565b5b92915050565b7f4e65206d6f7a657320746f6c696b6f20646120756e7374616b65756a6573207460008201527f6f6b656e61000000000000000000000000000000000000000000000000000000602082015250565b6000611c60602583611ae7565b9150611c6b82611c04565b604082019050919050565b60006020820190508181036000830152611c8f81611c53565b9050919050565b6000604082019050611cab6000830185611a38565b611cb8602083018461156f565b9392505050565b60008115159050919050565b611cd481611cbf565b8114611cdf57600080fd5b50565b600081519050611cf181611ccb565b92915050565b600060208284031215611d0d57611d0c6114d0565b5b6000611d1b84828501611ce2565b91505092915050565b7f497a61626572692076656369206f642030000000000000000000000000000000600082015250565b6000611d5a601183611ae7565b9150611d6582611d24565b602082019050919050565b60006020820190508181036000830152611d8981611d4d565b9050919050565b6000602082019050611da56000830184611a38565b92915050565b7f4e656d617320746f6c696b6f20746f6b656e6121000000000000000000000000600082015250565b6000611de1601483611ae7565b9150611dec82611dab565b602082019050919050565b60006020820190508181036000830152611e1081611dd4565b9050919050565b6000606082019050611e2c6000830186611a38565b611e396020830185611a38565b611e46604083018461156f565b949350505050565b6000611e5982611565565b9150611e6483611565565b9250828201905080821115611e7c57611e7b61194f565b5b92915050565b6000611e8d82611565565b915060008203611ea057611e9f61194f565b5b600182039050919050565b7f497a61626572692076697365206f6420302064616e6100000000000000000000600082015250565b6000611ee1601683611ae7565b9150611eec82611eab565b602082019050919050565b60006020820190508181036000830152611f1081611ed4565b9050919050565b7f497a61626572692076697365206f642030206d65737461000000000000000000600082015250565b6000611f4d601783611ae7565b9150611f5882611f17565b602082019050919050565b60006020820190508181036000830152611f7c81611f40565b9050919050565b7f4e696a65206d6f677563652072656e74697261746920746f6c696b6f206d657360008201527f7461000000000000000000000000000000000000000000000000000000000000602082015250565b6000611fdf602283611ae7565b9150611fea82611f83565b604082019050919050565b6000602082019050818103600083015261200e81611fd2565b9050919050565b7f796f7520646f6e74206861766520656e6f7567682066756e6473000000000000600082015250565b600061204b601a83611ae7565b915061205682612015565b602082019050919050565b6000602082019050818103600083015261207a8161203e565b9050919050565b7f4661696c656420746f2073656e64205553444300000000000000000000000000600082015250565b60006120b7601383611ae7565b91506120c282612081565b602082019050919050565b600060208201905081810360008301526120e6816120aa565b9050919050565b6120f6816117d3565b82525050565b600067ffffffffffffffff82169050919050565b612119816120fc565b82525050565b600061ffff82169050919050565b6121368161211f565b82525050565b61214581611891565b82525050565b600060a08201905061216060008301886120ed565b61216d6020830187612110565b61217a604083018661212d565b612187606083018561213c565b612194608083018461213c565b9695505050505050565b600060c0820190506121b36000830189611a38565b6121c0602083018861156f565b6121cd6040830187611a38565b6121da606083018661156f565b6121e7608083018561156f565b6121f460a083018461156f565b97965050505050505056fea2646970667358221220d638e7b887c5fd6a46e05733b4221a59b19360d32826e2b32a7d65f843a996a964736f6c63430008100033",
  "linkReferences": {},
  "deployedLinkReferences": {}
}