{
  "_format": "hh-sol-artifact-1",
  "contractName": "Rent",
  "sourceName": "contracts/Rent.sol",
  "abi": [
    {
      "inputs": [
        {
          "internalType": "address",
          "name": "tokenAddress",
          "type": "address"
        },
        {
          "internalType": "address",
          "name": "tokenVendorAddress",
          "type": "address"
        }
      ],
      "stateMutability": "nonpayable",
      "type": "constructor"
    },
    {
      "inputs": [],
      "name": "amount",
      "outputs": [
        {
          "internalType": "uint256",
          "name": "",
          "type": "uint256"
        }
      ],
      "stateMutability": "view",
      "type": "function"
    },
    {
      "inputs": [
        {
          "internalType": "address",
          "name": "_to",
          "type": "address"
        }
      ],
      "name": "getUserHash",
      "outputs": [
        {
          "internalType": "bytes32[]",
          "name": "",
          "type": "bytes32[]"
        }
      ],
      "stateMutability": "view",
      "type": "function"
    },
    {
      "inputs": [
        {
          "internalType": "address",
          "name": "_address",
          "type": "address"
        }
      ],
      "name": "numberOfFreePlacesForAddress",
      "outputs": [
        {
          "internalType": "uint256",
          "name": "",
          "type": "uint256"
        }
      ],
      "stateMutability": "view",
      "type": "function"
    },
    {
      "inputs": [
        {
          "internalType": "address",
          "name": "_address",
          "type": "address"
        }
      ],
      "name": "numberOfPlacesForAddress",
      "outputs": [
        {
          "internalType": "uint256",
          "name": "",
          "type": "uint256"
        }
      ],
      "stateMutability": "view",
      "type": "function"
    },
    {
      "inputs": [
        {
          "internalType": "address",
          "name": "_address",
          "type": "address"
        }
      ],
      "name": "numberOfRentedPlacesForAddress",
      "outputs": [
        {
          "internalType": "uint256",
          "name": "",
          "type": "uint256"
        }
      ],
      "stateMutability": "view",
      "type": "function"
    },
    {
      "inputs": [
        {
          "internalType": "uint256",
          "name": "",
          "type": "uint256"
        }
      ],
      "name": "radnaMesta",
      "outputs": [
        {
          "internalType": "address",
          "name": "ownerOfSeat",
          "type": "address"
        },
        {
          "internalType": "address",
          "name": "renter",
          "type": "address"
        },
        {
          "internalType": "uint256",
          "name": "expirationDate",
          "type": "uint256"
        },
        {
          "internalType": "bytes32",
          "name": "hashUlaznice",
          "type": "bytes32"
        }
      ],
      "stateMutability": "view",
      "type": "function"
    },
    {
      "inputs": [
        {
          "internalType": "address payable",
          "name": "_to",
          "type": "address"
        },
        {
          "internalType": "uint256",
          "name": "number_of_places",
          "type": "uint256"
        },
        {
          "internalType": "uint256",
          "name": "numberOfDays",
          "type": "uint256"
        }
      ],
      "name": "rentSeat",
      "outputs": [],
      "stateMutability": "payable",
      "type": "function"
    },
    {
      "inputs": [],
      "name": "ulaz",
      "outputs": [
        {
          "internalType": "bool",
          "name": "",
          "type": "bool"
        }
      ],
      "stateMutability": "view",
      "type": "function"
    },
    {
      "inputs": [],
      "name": "usdc",
      "outputs": [
        {
          "internalType": "contract USDC",
          "name": "",
          "type": "address"
        }
      ],
      "stateMutability": "view",
      "type": "function"
    }
  ],
  "bytecode": "0x608060405260fa60035560646004553480156200001b57600080fd5b50604051620013ec380380620013ec833981810160405281019062000041919062000189565b816000806101000a81548173ffffffffffffffffffffffffffffffffffffffff021916908373ffffffffffffffffffffffffffffffffffffffff16021790555080600160006101000a81548173ffffffffffffffffffffffffffffffffffffffff021916908373ffffffffffffffffffffffffffffffffffffffff16021790555073a0b86991c6218b36c1d19d4a2e9eb0ce3606eb48600260006101000a81548173ffffffffffffffffffffffffffffffffffffffff021916908373ffffffffffffffffffffffffffffffffffffffff1602179055505050620001d0565b600080fd5b600073ffffffffffffffffffffffffffffffffffffffff82169050919050565b6000620001518262000124565b9050919050565b620001638162000144565b81146200016f57600080fd5b50565b600081519050620001838162000158565b92915050565b60008060408385031215620001a357620001a26200011f565b5b6000620001b38582860162000172565b9250506020620001c68582860162000172565b9150509250929050565b61120c80620001e06000396000f3fe6080604052600436106100865760003560e01c8063643774521161005957806364377452146101705780637b07145a146101ad5780637ffb047e146101c9578063aa8c217c146101f4578063c3c8f1d81461021f57610086565b80630435e3521461008b5780632df2d93c146100c85780633d9f7d42146101055780633e413bee14610145575b600080fd5b34801561009757600080fd5b506100b260048036038101906100ad9190610a78565b61025c565b6040516100bf9190610abe565b60405180910390f35b3480156100d457600080fd5b506100ef60048036038101906100ea9190610a78565b6103c6565b6040516100fc9190610abe565b60405180910390f35b34801561011157600080fd5b5061012c60048036038101906101279190610b05565b6104b3565b60405161013c9493929190610b5a565b60405180910390f35b34801561015157600080fd5b5061015a610533565b6040516101679190610bfe565b60405180910390f35b34801561017c57600080fd5b5061019760048036038101906101929190610a78565b610559565b6040516101a49190610cd7565b60405180910390f35b6101c760048036038101906101c29190610d37565b610691565b005b3480156101d557600080fd5b506101de6108cb565b6040516101eb9190610da5565b60405180910390f35b34801561020057600080fd5b506102096109b0565b6040516102169190610abe565b60405180910390f35b34801561022b57600080fd5b5061024660048036038101906102419190610a78565b6109b6565b6040516102539190610abe565b60405180910390f35b60008060009054906101000a900473ffffffffffffffffffffffffffffffffffffffff1673ffffffffffffffffffffffffffffffffffffffff166318160ddd6040518163ffffffff1660e01b815260040160206040518083038186803b1580156102c557600080fd5b505afa1580156102d9573d6000803e3d6000fd5b505050506040513d601f19601f820116820180604052508101906102fd9190610dd5565b600454600160009054906101000a900473ffffffffffffffffffffffffffffffffffffffff1673ffffffffffffffffffffffffffffffffffffffff166345bc78ab856040518263ffffffff1660e01b815260040161035b9190610e02565b60206040518083038186803b15801561037357600080fd5b505afa158015610387573d6000803e3d6000fd5b505050506040513d601f19601f820116820180604052508101906103ab9190610dd5565b6103b59190610e4c565b6103bf9190610ed5565b9050919050565b6000806000905060005b6005805490508110156104a9578373ffffffffffffffffffffffffffffffffffffffff166005828154811061040857610407610f06565b5b906000526020600020906004020160000160009054906101000a900473ffffffffffffffffffffffffffffffffffffffff1673ffffffffffffffffffffffffffffffffffffffff161480156104825750426005828154811061046d5761046c610f06565b5b90600052602060002090600402016002015410155b1561049657818061049290610f35565b9250505b80806104a190610f35565b9150506103d0565b5080915050919050565b600581815481106104c357600080fd5b90600052602060002090600402016000915090508060000160009054906101000a900473ffffffffffffffffffffffffffffffffffffffff16908060010160009054906101000a900473ffffffffffffffffffffffffffffffffffffffff16908060020154908060030154905084565b600260009054906101000a900473ffffffffffffffffffffffffffffffffffffffff1681565b6060806000805b600454811015610686578473ffffffffffffffffffffffffffffffffffffffff166005828154811061059557610594610f06565b5b906000526020600020906004020160010160009054906101000a900473ffffffffffffffffffffffffffffffffffffffff1673ffffffffffffffffffffffffffffffffffffffff1614801561060e575042600582815481106105fa576105f9610f06565b5b906000526020600020906004020160020154115b1561062257818061061e90610f35565b9250505b6005818154811061063657610635610f06565b5b90600052602060002090600402016003015483838061065490610f35565b94508151811061066757610666610f06565b5b602002602001018181525050808061067e90610f35565b915050610560565b508192505050919050565b600081116106d4576040517f08c379a00000000000000000000000000000000000000000000000000000000081526004016106cb90610fdb565b60405180910390fd5b60008211610717576040517f08c379a000000000000000000000000000000000000000000000000000000000815260040161070e90611047565b60405180910390fd5b81610721846109b6565b1015610762576040517f08c379a0000000000000000000000000000000000000000000000000000000008152600401610759906110d9565b60405180910390fd5b600062015180826107739190610e4c565b4261077e91906110f9565b905060005b838110156108c457600560405180608001604052808773ffffffffffffffffffffffffffffffffffffffff1681526020013373ffffffffffffffffffffffffffffffffffffffff1681526020018481526020016107e18885876109db565b815250908060018154018082558091505060019003906000526020600020906004020160009091909190915060008201518160000160006101000a81548173ffffffffffffffffffffffffffffffffffffffff021916908373ffffffffffffffffffffffffffffffffffffffff16021790555060208201518160010160006101000a81548173ffffffffffffffffffffffffffffffffffffffff021916908373ffffffffffffffffffffffffffffffffffffffff1602179055506040820151816002015560608201518160030155505080806108bc90610f35565b915050610783565b5050505050565b600080600090505b6005805490508110156109a7573373ffffffffffffffffffffffffffffffffffffffff166005828154811061090b5761090a610f06565b5b906000526020600020906004020160010160009054906101000a900473ffffffffffffffffffffffffffffffffffffffff1673ffffffffffffffffffffffffffffffffffffffff16148015610985575042600582815481106109705761096f610f06565b5b90600052602060002090600402016002015410155b156109945760019150506109ad565b808061099f90610f35565b9150506108d3565b50600090505b90565b60035481565b60006109c1826103c6565b6109ca8361025c565b6109d4919061114f565b9050919050565b600083833342856040516020016109f6959493929190611183565b6040516020818303038152906040528051906020012090509392505050565b600080fd5b600073ffffffffffffffffffffffffffffffffffffffff82169050919050565b6000610a4582610a1a565b9050919050565b610a5581610a3a565b8114610a6057600080fd5b50565b600081359050610a7281610a4c565b92915050565b600060208284031215610a8e57610a8d610a15565b5b6000610a9c84828501610a63565b91505092915050565b6000819050919050565b610ab881610aa5565b82525050565b6000602082019050610ad36000830184610aaf565b92915050565b610ae281610aa5565b8114610aed57600080fd5b50565b600081359050610aff81610ad9565b92915050565b600060208284031215610b1b57610b1a610a15565b5b6000610b2984828501610af0565b91505092915050565b610b3b81610a3a565b82525050565b6000819050919050565b610b5481610b41565b82525050565b6000608082019050610b6f6000830187610b32565b610b7c6020830186610b32565b610b896040830185610aaf565b610b966060830184610b4b565b95945050505050565b6000819050919050565b6000610bc4610bbf610bba84610a1a565b610b9f565b610a1a565b9050919050565b6000610bd682610ba9565b9050919050565b6000610be882610bcb565b9050919050565b610bf881610bdd565b82525050565b6000602082019050610c136000830184610bef565b92915050565b600081519050919050565b600082825260208201905092915050565b6000819050602082019050919050565b610c4e81610b41565b82525050565b6000610c608383610c45565b60208301905092915050565b6000602082019050919050565b6000610c8482610c19565b610c8e8185610c24565b9350610c9983610c35565b8060005b83811015610cca578151610cb18882610c54565b9750610cbc83610c6c565b925050600181019050610c9d565b5085935050505092915050565b60006020820190508181036000830152610cf18184610c79565b905092915050565b6000610d0482610a1a565b9050919050565b610d1481610cf9565b8114610d1f57600080fd5b50565b600081359050610d3181610d0b565b92915050565b600080600060608486031215610d5057610d4f610a15565b5b6000610d5e86828701610d22565b9350506020610d6f86828701610af0565b9250506040610d8086828701610af0565b9150509250925092565b60008115159050919050565b610d9f81610d8a565b82525050565b6000602082019050610dba6000830184610d96565b92915050565b600081519050610dcf81610ad9565b92915050565b600060208284031215610deb57610dea610a15565b5b6000610df984828501610dc0565b91505092915050565b6000602082019050610e176000830184610b32565b92915050565b7f4e487b7100000000000000000000000000000000000000000000000000000000600052601160045260246000fd5b6000610e5782610aa5565b9150610e6283610aa5565b9250817fffffffffffffffffffffffffffffffffffffffffffffffffffffffffffffffff0483118215151615610e9b57610e9a610e1d565b5b828202905092915050565b7f4e487b7100000000000000000000000000000000000000000000000000000000600052601260045260246000fd5b6000610ee082610aa5565b9150610eeb83610aa5565b925082610efb57610efa610ea6565b5b828204905092915050565b7f4e487b7100000000000000000000000000000000000000000000000000000000600052603260045260246000fd5b6000610f4082610aa5565b91507fffffffffffffffffffffffffffffffffffffffffffffffffffffffffffffffff821415610f7357610f72610e1d565b5b600182019050919050565b600082825260208201905092915050565b7f497a61626572692076697365206f6420302064616e6100000000000000000000600082015250565b6000610fc5601683610f7e565b9150610fd082610f8f565b602082019050919050565b60006020820190508181036000830152610ff481610fb8565b9050919050565b7f497a61626572692076697365206f642030206d65737461000000000000000000600082015250565b6000611031601783610f7e565b915061103c82610ffb565b602082019050919050565b6000602082019050818103600083015261106081611024565b9050919050565b7f4e696a65206d6f677563652072656e74697261746920746f6c696b6f206d657360008201527f7461000000000000000000000000000000000000000000000000000000000000602082015250565b60006110c3602283610f7e565b91506110ce82611067565b604082019050919050565b600060208201905081810360008301526110f2816110b6565b9050919050565b600061110482610aa5565b915061110f83610aa5565b9250827fffffffffffffffffffffffffffffffffffffffffffffffffffffffffffffffff0382111561114457611143610e1d565b5b828201905092915050565b600061115a82610aa5565b915061116583610aa5565b92508282101561117857611177610e1d565b5b828203905092915050565b600060a0820190506111986000830188610b32565b6111a56020830187610aaf565b6111b26040830186610b32565b6111bf6060830185610aaf565b6111cc6080830184610aaf565b969550505050505056fea2646970667358221220214fbf47aa459cb9d394a084f7ed2344fb5408a941ee27d9482a10893ed3438064736f6c63430008090033",
  "linkReferences": {},
  "deployedLinkReferences": {}
}