{
  "_format": "hh-sol-artifact-1",
  "contractName": "Rent",
  "sourceName": "contracts/Rent.sol",
  "abi": [
    {
      "inputs": [
        {
          "internalType": "address",
          "name": "tokenAddress",
          "type": "address"
        }
      ],
      "stateMutability": "nonpayable",
      "type": "constructor"
    },
    {
      "inputs": [
        {
          "internalType": "address",
          "name": "_address",
          "type": "address"
        }
      ],
      "name": "getStakingBalance",
      "outputs": [
        {
          "internalType": "uint256",
          "name": "",
          "type": "uint256"
        }
      ],
      "stateMutability": "view",
      "type": "function"
    },
    {
      "inputs": [
        {
          "internalType": "address",
          "name": "_to",
          "type": "address"
        }
      ],
      "name": "getUserHash",
      "outputs": [
        {
          "internalType": "bytes32[]",
          "name": "",
          "type": "bytes32[]"
        }
      ],
      "stateMutability": "view",
      "type": "function"
    },
    {
      "inputs": [
        {
          "internalType": "address",
          "name": "_address",
          "type": "address"
        }
      ],
      "name": "numberOfFreePlacesForAddress",
      "outputs": [
        {
          "internalType": "uint256",
          "name": "",
          "type": "uint256"
        }
      ],
      "stateMutability": "view",
      "type": "function"
    },
    {
      "inputs": [
        {
          "internalType": "address",
          "name": "_address",
          "type": "address"
        }
      ],
      "name": "numberOfPlacesForAddress",
      "outputs": [
        {
          "internalType": "uint256",
          "name": "",
          "type": "uint256"
        }
      ],
      "stateMutability": "view",
      "type": "function"
    },
    {
      "inputs": [
        {
          "internalType": "address",
          "name": "_address",
          "type": "address"
        }
      ],
      "name": "numberOfRentedPlacesForAddress",
      "outputs": [
        {
          "internalType": "uint256",
          "name": "",
          "type": "uint256"
        }
      ],
      "stateMutability": "view",
      "type": "function"
    },
    {
      "inputs": [
        {
          "internalType": "uint256",
          "name": "number_of_places",
          "type": "uint256"
        },
        {
          "internalType": "uint256",
          "name": "numberOfDays",
          "type": "uint256"
        }
      ],
      "name": "rentSeat",
      "outputs": [],
      "stateMutability": "payable",
      "type": "function"
    },
    {
      "inputs": [
        {
          "internalType": "uint256",
          "name": "_amount",
          "type": "uint256"
        }
      ],
      "name": "stakeTokens",
      "outputs": [],
      "stateMutability": "nonpayable",
      "type": "function"
    },
    {
      "inputs": [
        {
          "internalType": "bytes32",
          "name": "userHash",
          "type": "bytes32"
        }
      ],
      "name": "ulaz",
      "outputs": [
        {
          "internalType": "bool",
          "name": "",
          "type": "bool"
        }
      ],
      "stateMutability": "view",
      "type": "function"
    },
    {
      "inputs": [
        {
          "internalType": "uint256",
          "name": "_amount",
          "type": "uint256"
        }
      ],
      "name": "unstakeTokens",
      "outputs": [],
      "stateMutability": "nonpayable",
      "type": "function"
    }
  ],
  "bytecode": "0x608060405260fa60025560646003553480156200001b57600080fd5b5060405162001c2838038062001c28833981810160405281019062000041919062000188565b806000806101000a81548173ffffffffffffffffffffffffffffffffffffffff021916908373ffffffffffffffffffffffffffffffffffffffff16021790555073d87ba7a50b2e7e660f678a895e4b72e7cb4ccd9c600160006101000a81548173ffffffffffffffffffffffffffffffffffffffff021916908373ffffffffffffffffffffffffffffffffffffffff16021790555033600560006101000a81548173ffffffffffffffffffffffffffffffffffffffff021916908373ffffffffffffffffffffffffffffffffffffffff16021790555050620001ba565b600080fd5b600073ffffffffffffffffffffffffffffffffffffffff82169050919050565b6000620001508262000123565b9050919050565b620001628162000143565b81146200016e57600080fd5b50565b600081519050620001828162000157565b92915050565b600060208284031215620001a157620001a06200011e565b5b6000620001b18482850162000171565b91505092915050565b611a5e80620001ca6000396000f3fe6080604052600436106100865760003560e01c80637547c7a3116100595780637547c7a31461016b5780639be910a214610194578063b04ef9c2146101b0578063be18ec54146101ed578063c3c8f1d81461022a57610086565b80630435e3521461008b5780632df2d93c146100c8578063608e4dd014610105578063643774521461012e575b600080fd5b34801561009757600080fd5b506100b260048036038101906100ad9190611072565b610267565b6040516100bf91906110b8565b60405180910390f35b3480156100d457600080fd5b506100ef60048036038101906100ea9190611072565b610357565b6040516100fc91906110b8565b60405180910390f35b34801561011157600080fd5b5061012c600480360381019061012791906110ff565b610444565b005b34801561013a57600080fd5b5061015560048036038101906101509190611072565b61063b565b60405161016291906111f4565b60405180910390f35b34801561017757600080fd5b50610192600480360381019061018d91906110ff565b610773565b005b6101ae60048036038101906101a99190611216565b61098c565b005b3480156101bc57600080fd5b506101d760048036038101906101d29190611072565b610da9565b6040516101e491906110b8565b60405180910390f35b3480156101f957600080fd5b50610214600480360381019061020f9190611282565b610df2565b60405161022191906112ca565b60405180910390f35b34801561023657600080fd5b50610251600480360381019061024c9190611072565b610e8d565b60405161025e91906110b8565b60405180910390f35b60008060009054906101000a900473ffffffffffffffffffffffffffffffffffffffff1673ffffffffffffffffffffffffffffffffffffffff166318160ddd6040518163ffffffff1660e01b8152600401602060405180830381865afa1580156102d5573d6000803e3d6000fd5b505050506040513d601f19601f820116820180604052508101906102f991906112fa565b600354600660008573ffffffffffffffffffffffffffffffffffffffff1673ffffffffffffffffffffffffffffffffffffffff168152602001908152602001600020546103469190611356565b61035091906113df565b9050919050565b6000806000905060005b60048054905081101561043a578373ffffffffffffffffffffffffffffffffffffffff166004828154811061039957610398611410565b5b906000526020600020906003020160000160009054906101000a900473ffffffffffffffffffffffffffffffffffffffff1673ffffffffffffffffffffffffffffffffffffffff16148015610413575042600482815481106103fe576103fd611410565b5b90600052602060002090600302016001015410155b156104275781806104239061143f565b9250505b80806104329061143f565b915050610361565b5080915050919050565b60008111610487576040517f08c379a000000000000000000000000000000000000000000000000000000000815260040161047e906114e4565b60405180910390fd5b80600660003373ffffffffffffffffffffffffffffffffffffffff1673ffffffffffffffffffffffffffffffffffffffff168152602001908152602001600020541015610509576040517f08c379a000000000000000000000000000000000000000000000000000000000815260040161050090611550565b60405180910390fd5b60008054906101000a900473ffffffffffffffffffffffffffffffffffffffff1673ffffffffffffffffffffffffffffffffffffffff1663a9059cbb33836040518363ffffffff1660e01b815260040161056492919061157f565b6020604051808303816000875af1158015610583573d6000803e3d6000fd5b505050506040513d601f19601f820116820180604052508101906105a791906115d4565b5080600660003373ffffffffffffffffffffffffffffffffffffffff1673ffffffffffffffffffffffffffffffffffffffff16815260200190815260200160002060008282546105f79190611601565b92505081905550600061060933610267565b9050600061061633610357565b90508082101561063657610635828261062f9190611601565b33610eb2565b5b505050565b6060806000805b600354811015610768578473ffffffffffffffffffffffffffffffffffffffff166004828154811061067757610676611410565b5b906000526020600020906003020160000160009054906101000a900473ffffffffffffffffffffffffffffffffffffffff1673ffffffffffffffffffffffffffffffffffffffff161480156106f0575042600482815481106106dc576106db611410565b5b906000526020600020906003020160010154115b156107045781806107009061143f565b9250505b6004818154811061071857610717611410565b5b9060005260206000209060030201600201548383806107369061143f565b94508151811061074957610748611410565b5b60200260200101818152505080806107609061143f565b915050610642565b508192505050919050565b600081116107b6576040517f08c379a00000000000000000000000000000000000000000000000000000000081526004016107ad90611681565b60405180910390fd5b8060008054906101000a900473ffffffffffffffffffffffffffffffffffffffff1673ffffffffffffffffffffffffffffffffffffffff166370a08231336040518263ffffffff1660e01b815260040161081091906116a1565b602060405180830381865afa15801561082d573d6000803e3d6000fd5b505050506040513d601f19601f8201168201806040525081019061085191906112fa565b1015610892576040517f08c379a000000000000000000000000000000000000000000000000000000000815260040161088990611708565b60405180910390fd5b60008054906101000a900473ffffffffffffffffffffffffffffffffffffffff1673ffffffffffffffffffffffffffffffffffffffff166323b872dd3330846040518463ffffffff1660e01b81526004016108ef93929190611728565b6020604051808303816000875af115801561090e573d6000803e3d6000fd5b505050506040513d601f19601f8201168201806040525081019061093291906115d4565b5080600660003373ffffffffffffffffffffffffffffffffffffffff1673ffffffffffffffffffffffffffffffffffffffff1681526020019081526020016000206000828254610982919061175f565b9250508190555050565b600081116109cf576040517f08c379a00000000000000000000000000000000000000000000000000000000081526004016109c6906117df565b60405180910390fd5b60008211610a12576040517f08c379a0000000000000000000000000000000000000000000000000000000008152600401610a099061184b565b60405180910390fd5b81610a1c33610e8d565b1015610a5d576040517f08c379a0000000000000000000000000000000000000000000000000000000008152600401610a54906118dd565b60405180910390fd5b6000601e8284600254610a709190611356565b610a7a9190611356565b610a8491906113df565b90506000620f424082610a979190611356565b905080600160009054906101000a900473ffffffffffffffffffffffffffffffffffffffff1673ffffffffffffffffffffffffffffffffffffffff166370a08231336040518263ffffffff1660e01b8152600401610af591906116a1565b602060405180830381865afa158015610b12573d6000803e3d6000fd5b505050506040513d601f19601f82011682018060405250810190610b3691906112fa565b1015610b77576040517f08c379a0000000000000000000000000000000000000000000000000000000008152600401610b6e90611949565b60405180910390fd5b6000600160009054906101000a900473ffffffffffffffffffffffffffffffffffffffff1673ffffffffffffffffffffffffffffffffffffffff166323b872dd33600560009054906101000a900473ffffffffffffffffffffffffffffffffffffffff16856040518463ffffffff1660e01b8152600401610bfa93929190611728565b6020604051808303816000875af1158015610c19573d6000803e3d6000fd5b505050506040513d601f19601f82011682018060405250810190610c3d91906115d4565b905080610c7f576040517f08c379a0000000000000000000000000000000000000000000000000000000008152600401610c76906119b5565b60405180910390fd5b60006201518085610c909190611356565b42610c9b919061175f565b905060005b86811015610da057600460405180606001604052803373ffffffffffffffffffffffffffffffffffffffff168152602001848152602001610d04600560009054906101000a900473ffffffffffffffffffffffffffffffffffffffff168587610fd5565b815250908060018154018082558091505060019003906000526020600020906003020160009091909190915060008201518160000160006101000a81548173ffffffffffffffffffffffffffffffffffffffff021916908373ffffffffffffffffffffffffffffffffffffffff160217905550602082015181600101556040820151816002015550508080610d989061143f565b915050610ca0565b50505050505050565b6000600660008373ffffffffffffffffffffffffffffffffffffffff1673ffffffffffffffffffffffffffffffffffffffff168152602001908152602001600020549050919050565b600080600090505b600480549050811015610e82574260048281548110610e1c57610e1b611410565b5b90600052602060002090600302016001015410158015610e6057508260048281548110610e4c57610e4b611410565b5b906000526020600020906003020160020154145b15610e6f576001915050610e88565b8080610e7a9061143f565b915050610dfa565b50600090505b919050565b6000610e9882610357565b610ea183610267565b610eab9190611601565b9050919050565b60005b600480549050811015610fd0578173ffffffffffffffffffffffffffffffffffffffff1660048281548110610eed57610eec611410565b5b906000526020600020906003020160000160009054906101000a900473ffffffffffffffffffffffffffffffffffffffff1673ffffffffffffffffffffffffffffffffffffffff16148015610f67575060048181548110610f5157610f50611410565b5b9060005260206000209060030201600101544211155b15610fb457600183610f799190611601565b92506201518042610f8a9190611601565b60048281548110610f9e57610f9d611410565b5b9060005260206000209060030201600101819055505b6000830315610fd0578080610fc89061143f565b915050610eb5565b505050565b60008383334285604051602001610ff09594939291906119d5565b6040516020818303038152906040528051906020012090509392505050565b600080fd5b600073ffffffffffffffffffffffffffffffffffffffff82169050919050565b600061103f82611014565b9050919050565b61104f81611034565b811461105a57600080fd5b50565b60008135905061106c81611046565b92915050565b6000602082840312156110885761108761100f565b5b60006110968482850161105d565b91505092915050565b6000819050919050565b6110b28161109f565b82525050565b60006020820190506110cd60008301846110a9565b92915050565b6110dc8161109f565b81146110e757600080fd5b50565b6000813590506110f9816110d3565b92915050565b6000602082840312156111155761111461100f565b5b6000611123848285016110ea565b91505092915050565b600081519050919050565b600082825260208201905092915050565b6000819050602082019050919050565b6000819050919050565b61116b81611158565b82525050565b600061117d8383611162565b60208301905092915050565b6000602082019050919050565b60006111a18261112c565b6111ab8185611137565b93506111b683611148565b8060005b838110156111e75781516111ce8882611171565b97506111d983611189565b9250506001810190506111ba565b5085935050505092915050565b6000602082019050818103600083015261120e8184611196565b905092915050565b6000806040838503121561122d5761122c61100f565b5b600061123b858286016110ea565b925050602061124c858286016110ea565b9150509250929050565b61125f81611158565b811461126a57600080fd5b50565b60008135905061127c81611256565b92915050565b6000602082840312156112985761129761100f565b5b60006112a68482850161126d565b91505092915050565b60008115159050919050565b6112c4816112af565b82525050565b60006020820190506112df60008301846112bb565b92915050565b6000815190506112f4816110d3565b92915050565b6000602082840312156113105761130f61100f565b5b600061131e848285016112e5565b91505092915050565b7f4e487b7100000000000000000000000000000000000000000000000000000000600052601160045260246000fd5b60006113618261109f565b915061136c8361109f565b9250817fffffffffffffffffffffffffffffffffffffffffffffffffffffffffffffffff04831182151516156113a5576113a4611327565b5b828202905092915050565b7f4e487b7100000000000000000000000000000000000000000000000000000000600052601260045260246000fd5b60006113ea8261109f565b91506113f58361109f565b925082611405576114046113b0565b5b828204905092915050565b7f4e487b7100000000000000000000000000000000000000000000000000000000600052603260045260246000fd5b600061144a8261109f565b91507fffffffffffffffffffffffffffffffffffffffffffffffffffffffffffffffff820361147c5761147b611327565b5b600182019050919050565b600082825260208201905092915050565b7f20497a61626572692076656369206f6420300000000000000000000000000000600082015250565b60006114ce601283611487565b91506114d982611498565b602082019050919050565b600060208201905081810360008301526114fd816114c1565b9050919050565b7f4e656d617320746f6c696b6f207374616b656f76616e696820746f6b656e6121600082015250565b600061153a602083611487565b915061154582611504565b602082019050919050565b600060208201905081810360008301526115698161152d565b9050919050565b61157981611034565b82525050565b60006040820190506115946000830185611570565b6115a160208301846110a9565b9392505050565b6115b1816112af565b81146115bc57600080fd5b50565b6000815190506115ce816115a8565b92915050565b6000602082840312156115ea576115e961100f565b5b60006115f8848285016115bf565b91505092915050565b600061160c8261109f565b91506116178361109f565b925082820390508181111561162f5761162e611327565b5b92915050565b7f497a61626572692076656369206f642030000000000000000000000000000000600082015250565b600061166b601183611487565b915061167682611635565b602082019050919050565b6000602082019050818103600083015261169a8161165e565b9050919050565b60006020820190506116b66000830184611570565b92915050565b7f4e656d617320746f6c696b6f20746f6b656e6121000000000000000000000000600082015250565b60006116f2601483611487565b91506116fd826116bc565b602082019050919050565b60006020820190508181036000830152611721816116e5565b9050919050565b600060608201905061173d6000830186611570565b61174a6020830185611570565b61175760408301846110a9565b949350505050565b600061176a8261109f565b91506117758361109f565b925082820190508082111561178d5761178c611327565b5b92915050565b7f497a61626572692076697365206f6420302064616e6100000000000000000000600082015250565b60006117c9601683611487565b91506117d482611793565b602082019050919050565b600060208201905081810360008301526117f8816117bc565b9050919050565b7f497a61626572692076697365206f642030206d65737461000000000000000000600082015250565b6000611835601783611487565b9150611840826117ff565b602082019050919050565b6000602082019050818103600083015261186481611828565b9050919050565b7f4e696a65206d6f677563652072656e74697261746920746f6c696b6f206d657360008201527f7461000000000000000000000000000000000000000000000000000000000000602082015250565b60006118c7602283611487565b91506118d28261186b565b604082019050919050565b600060208201905081810360008301526118f6816118ba565b9050919050565b7f796f7520646f6e74206861766520656e6f7567682066756e6473000000000000600082015250565b6000611933601a83611487565b915061193e826118fd565b602082019050919050565b6000602082019050818103600083015261196281611926565b9050919050565b7f4661696c656420746f2073656e64205553444300000000000000000000000000600082015250565b600061199f601383611487565b91506119aa82611969565b602082019050919050565b600060208201905081810360008301526119ce81611992565b9050919050565b600060a0820190506119ea6000830188611570565b6119f760208301876110a9565b611a046040830186611570565b611a1160608301856110a9565b611a1e60808301846110a9565b969550505050505056fea2646970667358221220bee0450f7de4d96f394f555d8707637b85f0f7a1c7482c7af9c624e2bd9d4d0b64736f6c63430008100033",
  "linkReferences": {},
  "deployedLinkReferences": {}
}