{
  "_format": "hh-sol-artifact-1",
  "contractName": "Rent",
  "sourceName": "contracts/Rent.sol",
  "abi": [
    {
      "inputs": [
        {
          "internalType": "address",
          "name": "tokenAddress",
          "type": "address"
        }
      ],
      "stateMutability": "nonpayable",
      "type": "constructor"
    },
    {
      "inputs": [
        {
          "internalType": "uint256",
          "name": "cnt",
          "type": "uint256"
        }
      ],
      "name": "getExpireDate",
      "outputs": [
        {
          "internalType": "uint256",
          "name": "",
          "type": "uint256"
        }
      ],
      "stateMutability": "view",
      "type": "function"
    },
    {
      "inputs": [
        {
          "internalType": "address",
          "name": "_address",
          "type": "address"
        }
      ],
      "name": "getStakingBalance",
      "outputs": [
        {
          "internalType": "uint256",
          "name": "",
          "type": "uint256"
        }
      ],
      "stateMutability": "view",
      "type": "function"
    },
    {
      "inputs": [],
      "name": "getUserHash",
      "outputs": [
        {
          "internalType": "bytes32[]",
          "name": "",
          "type": "bytes32[]"
        }
      ],
      "stateMutability": "view",
      "type": "function"
    },
    {
      "inputs": [
        {
          "internalType": "address",
          "name": "_address",
          "type": "address"
        }
      ],
      "name": "numberOfFreePlacesForAddress",
      "outputs": [
        {
          "internalType": "uint256",
          "name": "",
          "type": "uint256"
        }
      ],
      "stateMutability": "view",
      "type": "function"
    },
    {
      "inputs": [
        {
          "internalType": "address",
          "name": "_address",
          "type": "address"
        }
      ],
      "name": "numberOfPlacesForAddress",
      "outputs": [
        {
          "internalType": "uint256",
          "name": "",
          "type": "uint256"
        }
      ],
      "stateMutability": "view",
      "type": "function"
    },
    {
      "inputs": [
        {
          "internalType": "address",
          "name": "_address",
          "type": "address"
        }
      ],
      "name": "numberOfRentedPlacesForAddress",
      "outputs": [
        {
          "internalType": "uint256",
          "name": "",
          "type": "uint256"
        }
      ],
      "stateMutability": "view",
      "type": "function"
    },
    {
      "inputs": [
        {
          "internalType": "uint256",
          "name": "number_of_places",
          "type": "uint256"
        },
        {
          "internalType": "uint256",
          "name": "numberOfDays",
          "type": "uint256"
        },
        {
          "internalType": "uint256",
          "name": "fee",
          "type": "uint256"
        }
      ],
      "name": "rentSeat",
      "outputs": [],
      "stateMutability": "payable",
      "type": "function"
    },
    {
      "inputs": [
        {
          "internalType": "uint256",
          "name": "_amount",
          "type": "uint256"
        }
      ],
      "name": "stakeTokens",
      "outputs": [],
      "stateMutability": "nonpayable",
      "type": "function"
    },
    {
      "inputs": [
        {
          "internalType": "bytes32",
          "name": "userHash",
          "type": "bytes32"
        }
      ],
      "name": "ulaz",
      "outputs": [
        {
          "internalType": "bool",
          "name": "",
          "type": "bool"
        }
      ],
      "stateMutability": "view",
      "type": "function"
    },
    {
      "inputs": [
        {
          "internalType": "uint256",
          "name": "_amount",
          "type": "uint256"
        }
      ],
      "name": "unstakeTokens",
      "outputs": [],
      "stateMutability": "nonpayable",
      "type": "function"
    }
  ],
  "bytecode": "0x608060405260fa60025560646003553480156200001b57600080fd5b5060405162001df538038062001df5833981810160405281019062000041919062000188565b806000806101000a81548173ffffffffffffffffffffffffffffffffffffffff021916908373ffffffffffffffffffffffffffffffffffffffff16021790555073d87ba7a50b2e7e660f678a895e4b72e7cb4ccd9c600160006101000a81548173ffffffffffffffffffffffffffffffffffffffff021916908373ffffffffffffffffffffffffffffffffffffffff16021790555033600560006101000a81548173ffffffffffffffffffffffffffffffffffffffff021916908373ffffffffffffffffffffffffffffffffffffffff16021790555050620001ba565b600080fd5b600073ffffffffffffffffffffffffffffffffffffffff82169050919050565b6000620001508262000123565b9050919050565b620001628162000143565b81146200016e57600080fd5b50565b600081519050620001828162000157565b92915050565b600060208284031215620001a157620001a06200011e565b5b6000620001b18482850162000171565b91505092915050565b611c2b80620001ca6000396000f3fe6080604052600436106100915760003560e01c8063a485172011610059578063a48517201461018d578063aef21576146101ca578063b04ef9c2146101e6578063be18ec5414610223578063c3c8f1d81461026057610091565b80630435e352146100965780632df2d93c146100d3578063608e4dd0146101105780637547c7a3146101395780638677b4e214610162575b600080fd5b3480156100a257600080fd5b506100bd60048036038101906100b891906111d4565b61029d565b6040516100ca919061121a565b60405180910390f35b3480156100df57600080fd5b506100fa60048036038101906100f591906111d4565b61038d565b604051610107919061121a565b60405180910390f35b34801561011c57600080fd5b5061013760048036038101906101329190611261565b61047a565b005b34801561014557600080fd5b50610160600480360381019061015b9190611261565b610671565b005b34801561016e57600080fd5b5061017761088a565b6040516101849190611356565b60405180910390f35b34801561019957600080fd5b506101b460048036038101906101af9190611261565b610a0d565b6040516101c1919061121a565b60405180910390f35b6101e460048036038101906101df9190611378565b610b2b565b005b3480156101f257600080fd5b5061020d600480360381019061020891906111d4565b610f0b565b60405161021a919061121a565b60405180910390f35b34801561022f57600080fd5b5061024a600480360381019061024591906113f7565b610f54565b604051610257919061143f565b60405180910390f35b34801561026c57600080fd5b50610287600480360381019061028291906111d4565b610fef565b604051610294919061121a565b60405180910390f35b60008060009054906101000a900473ffffffffffffffffffffffffffffffffffffffff1673ffffffffffffffffffffffffffffffffffffffff166318160ddd6040518163ffffffff1660e01b8152600401602060405180830381865afa15801561030b573d6000803e3d6000fd5b505050506040513d601f19601f8201168201806040525081019061032f919061146f565b600354600660008573ffffffffffffffffffffffffffffffffffffffff1673ffffffffffffffffffffffffffffffffffffffff1681526020019081526020016000205461037c91906114cb565b6103869190611554565b9050919050565b6000806000905060005b600480549050811015610470578373ffffffffffffffffffffffffffffffffffffffff16600482815481106103cf576103ce611585565b5b906000526020600020906003020160000160009054906101000a900473ffffffffffffffffffffffffffffffffffffffff1673ffffffffffffffffffffffffffffffffffffffff161480156104495750426004828154811061043457610433611585565b5b90600052602060002090600302016001015410155b1561045d578180610459906115b4565b9250505b8080610468906115b4565b915050610397565b5080915050919050565b600081116104bd576040517f08c379a00000000000000000000000000000000000000000000000000000000081526004016104b490611659565b60405180910390fd5b80600660003373ffffffffffffffffffffffffffffffffffffffff1673ffffffffffffffffffffffffffffffffffffffff16815260200190815260200160002054101561053f576040517f08c379a0000000000000000000000000000000000000000000000000000000008152600401610536906116c5565b60405180910390fd5b60008054906101000a900473ffffffffffffffffffffffffffffffffffffffff1673ffffffffffffffffffffffffffffffffffffffff1663a9059cbb33836040518363ffffffff1660e01b815260040161059a9291906116f4565b6020604051808303816000875af11580156105b9573d6000803e3d6000fd5b505050506040513d601f19601f820116820180604052508101906105dd9190611749565b5080600660003373ffffffffffffffffffffffffffffffffffffffff1673ffffffffffffffffffffffffffffffffffffffff168152602001908152602001600020600082825461062d9190611776565b92505081905550600061063f3361029d565b9050600061064c3361038d565b90508082101561066c5761066b82826106659190611776565b33611014565b5b505050565b600081116106b4576040517f08c379a00000000000000000000000000000000000000000000000000000000081526004016106ab906117f6565b60405180910390fd5b8060008054906101000a900473ffffffffffffffffffffffffffffffffffffffff1673ffffffffffffffffffffffffffffffffffffffff166370a08231336040518263ffffffff1660e01b815260040161070e9190611816565b602060405180830381865afa15801561072b573d6000803e3d6000fd5b505050506040513d601f19601f8201168201806040525081019061074f919061146f565b1015610790576040517f08c379a00000000000000000000000000000000000000000000000000000000081526004016107879061187d565b60405180910390fd5b60008054906101000a900473ffffffffffffffffffffffffffffffffffffffff1673ffffffffffffffffffffffffffffffffffffffff166323b872dd3330846040518463ffffffff1660e01b81526004016107ed9392919061189d565b6020604051808303816000875af115801561080c573d6000803e3d6000fd5b505050506040513d601f19601f820116820180604052508101906108309190611749565b5080600660003373ffffffffffffffffffffffffffffffffffffffff1673ffffffffffffffffffffffffffffffffffffffff168152602001908152602001600020600082825461088091906118d4565b9250508190555050565b606060006108973361038d565b67ffffffffffffffff8111156108b0576108af611908565b5b6040519080825280602002602001820160405280156108de5781602001602082028036833780820191505090505b5090506000805b600480549050811015610a04573373ffffffffffffffffffffffffffffffffffffffff166004828154811061091d5761091c611585565b5b906000526020600020906003020160000160009054906101000a900473ffffffffffffffffffffffffffffffffffffffff1673ffffffffffffffffffffffffffffffffffffffff161480156109975750426004828154811061098257610981611585565b5b90600052602060002090600302016001015410155b156109f157600481815481106109b0576109af611585565b5b9060005260206000209060030201600201548383815181106109d5576109d4611585565b5b6020026020010181815250506001826109ee91906118d4565b91505b80806109fc906115b4565b9150506108e5565b50819250505090565b600080600090505b600480549050811015610b24573373ffffffffffffffffffffffffffffffffffffffff1660048281548110610a4d57610a4c611585565b5b906000526020600020906003020160000160009054906101000a900473ffffffffffffffffffffffffffffffffffffffff1673ffffffffffffffffffffffffffffffffffffffff16148015610ac757504260048281548110610ab257610ab1611585565b5b90600052602060002090600302016001015410155b15610b115760008303610b025760048181548110610ae857610ae7611585565b5b906000526020600020906003020160010154915050610b26565b8280610b0d90611937565b9350505b8080610b1c906115b4565b915050610a15565b505b919050565b60008211610b6e576040517f08c379a0000000000000000000000000000000000000000000000000000000008152600401610b65906119ac565b60405180910390fd5b60008311610bb1576040517f08c379a0000000000000000000000000000000000000000000000000000000008152600401610ba890611a18565b60405180910390fd5b82610bbb33610fef565b1015610bfc576040517f08c379a0000000000000000000000000000000000000000000000000000000008152600401610bf390611aaa565b60405180910390fd5b80600160009054906101000a900473ffffffffffffffffffffffffffffffffffffffff1673ffffffffffffffffffffffffffffffffffffffff166370a08231336040518263ffffffff1660e01b8152600401610c589190611816565b602060405180830381865afa158015610c75573d6000803e3d6000fd5b505050506040513d601f19601f82011682018060405250810190610c99919061146f565b1015610cda576040517f08c379a0000000000000000000000000000000000000000000000000000000008152600401610cd190611b16565b60405180910390fd5b6000600160009054906101000a900473ffffffffffffffffffffffffffffffffffffffff1673ffffffffffffffffffffffffffffffffffffffff166323b872dd33600560009054906101000a900473ffffffffffffffffffffffffffffffffffffffff16856040518463ffffffff1660e01b8152600401610d5d9392919061189d565b6020604051808303816000875af1158015610d7c573d6000803e3d6000fd5b505050506040513d601f19601f82011682018060405250810190610da09190611749565b905080610de2576040517f08c379a0000000000000000000000000000000000000000000000000000000008152600401610dd990611b82565b60405180910390fd5b60006201518084610df391906114cb565b42610dfe91906118d4565b905060005b85811015610f0357600460405180606001604052803373ffffffffffffffffffffffffffffffffffffffff168152602001848152602001610e67600560009054906101000a900473ffffffffffffffffffffffffffffffffffffffff168587611137565b815250908060018154018082558091505060019003906000526020600020906003020160009091909190915060008201518160000160006101000a81548173ffffffffffffffffffffffffffffffffffffffff021916908373ffffffffffffffffffffffffffffffffffffffff160217905550602082015181600101556040820151816002015550508080610efb906115b4565b915050610e03565b505050505050565b6000600660008373ffffffffffffffffffffffffffffffffffffffff1673ffffffffffffffffffffffffffffffffffffffff168152602001908152602001600020549050919050565b600080600090505b600480549050811015610fe4574260048281548110610f7e57610f7d611585565b5b90600052602060002090600302016001015410158015610fc257508260048281548110610fae57610fad611585565b5b906000526020600020906003020160020154145b15610fd1576001915050610fea565b8080610fdc906115b4565b915050610f5c565b50600090505b919050565b6000610ffa8261038d565b6110038361029d565b61100d9190611776565b9050919050565b60005b600480549050811015611132578173ffffffffffffffffffffffffffffffffffffffff166004828154811061104f5761104e611585565b5b906000526020600020906003020160000160009054906101000a900473ffffffffffffffffffffffffffffffffffffffff1673ffffffffffffffffffffffffffffffffffffffff161480156110c95750600481815481106110b3576110b2611585565b5b9060005260206000209060030201600101544211155b15611116576001836110db9190611776565b925062015180426110ec9190611776565b60048281548110611100576110ff611585565b5b9060005260206000209060030201600101819055505b600083031561113257808061112a906115b4565b915050611017565b505050565b60008383334285604051602001611152959493929190611ba2565b6040516020818303038152906040528051906020012090509392505050565b600080fd5b600073ffffffffffffffffffffffffffffffffffffffff82169050919050565b60006111a182611176565b9050919050565b6111b181611196565b81146111bc57600080fd5b50565b6000813590506111ce816111a8565b92915050565b6000602082840312156111ea576111e9611171565b5b60006111f8848285016111bf565b91505092915050565b6000819050919050565b61121481611201565b82525050565b600060208201905061122f600083018461120b565b92915050565b61123e81611201565b811461124957600080fd5b50565b60008135905061125b81611235565b92915050565b60006020828403121561127757611276611171565b5b60006112858482850161124c565b91505092915050565b600081519050919050565b600082825260208201905092915050565b6000819050602082019050919050565b6000819050919050565b6112cd816112ba565b82525050565b60006112df83836112c4565b60208301905092915050565b6000602082019050919050565b60006113038261128e565b61130d8185611299565b9350611318836112aa565b8060005b8381101561134957815161133088826112d3565b975061133b836112eb565b92505060018101905061131c565b5085935050505092915050565b6000602082019050818103600083015261137081846112f8565b905092915050565b60008060006060848603121561139157611390611171565b5b600061139f8682870161124c565b93505060206113b08682870161124c565b92505060406113c18682870161124c565b9150509250925092565b6113d4816112ba565b81146113df57600080fd5b50565b6000813590506113f1816113cb565b92915050565b60006020828403121561140d5761140c611171565b5b600061141b848285016113e2565b91505092915050565b60008115159050919050565b61143981611424565b82525050565b60006020820190506114546000830184611430565b92915050565b60008151905061146981611235565b92915050565b60006020828403121561148557611484611171565b5b60006114938482850161145a565b91505092915050565b7f4e487b7100000000000000000000000000000000000000000000000000000000600052601160045260246000fd5b60006114d682611201565b91506114e183611201565b9250817fffffffffffffffffffffffffffffffffffffffffffffffffffffffffffffffff048311821515161561151a5761151961149c565b5b828202905092915050565b7f4e487b7100000000000000000000000000000000000000000000000000000000600052601260045260246000fd5b600061155f82611201565b915061156a83611201565b92508261157a57611579611525565b5b828204905092915050565b7f4e487b7100000000000000000000000000000000000000000000000000000000600052603260045260246000fd5b60006115bf82611201565b91507fffffffffffffffffffffffffffffffffffffffffffffffffffffffffffffffff82036115f1576115f061149c565b5b600182019050919050565b600082825260208201905092915050565b7f20497a61626572692076656369206f6420300000000000000000000000000000600082015250565b60006116436012836115fc565b915061164e8261160d565b602082019050919050565b6000602082019050818103600083015261167281611636565b9050919050565b7f4e656d617320746f6c696b6f207374616b656f76616e696820746f6b656e6121600082015250565b60006116af6020836115fc565b91506116ba82611679565b602082019050919050565b600060208201905081810360008301526116de816116a2565b9050919050565b6116ee81611196565b82525050565b600060408201905061170960008301856116e5565b611716602083018461120b565b9392505050565b61172681611424565b811461173157600080fd5b50565b6000815190506117438161171d565b92915050565b60006020828403121561175f5761175e611171565b5b600061176d84828501611734565b91505092915050565b600061178182611201565b915061178c83611201565b92508282039050818111156117a4576117a361149c565b5b92915050565b7f497a61626572692076656369206f642030000000000000000000000000000000600082015250565b60006117e06011836115fc565b91506117eb826117aa565b602082019050919050565b6000602082019050818103600083015261180f816117d3565b9050919050565b600060208201905061182b60008301846116e5565b92915050565b7f4e656d617320746f6c696b6f20746f6b656e6121000000000000000000000000600082015250565b60006118676014836115fc565b915061187282611831565b602082019050919050565b600060208201905081810360008301526118968161185a565b9050919050565b60006060820190506118b260008301866116e5565b6118bf60208301856116e5565b6118cc604083018461120b565b949350505050565b60006118df82611201565b91506118ea83611201565b92508282019050808211156119025761190161149c565b5b92915050565b7f4e487b7100000000000000000000000000000000000000000000000000000000600052604160045260246000fd5b600061194282611201565b9150600082036119555761195461149c565b5b600182039050919050565b7f497a61626572692076697365206f6420302064616e6100000000000000000000600082015250565b60006119966016836115fc565b91506119a182611960565b602082019050919050565b600060208201905081810360008301526119c581611989565b9050919050565b7f497a61626572692076697365206f642030206d65737461000000000000000000600082015250565b6000611a026017836115fc565b9150611a0d826119cc565b602082019050919050565b60006020820190508181036000830152611a31816119f5565b9050919050565b7f4e696a65206d6f677563652072656e74697261746920746f6c696b6f206d657360008201527f7461000000000000000000000000000000000000000000000000000000000000602082015250565b6000611a946022836115fc565b9150611a9f82611a38565b604082019050919050565b60006020820190508181036000830152611ac381611a87565b9050919050565b7f796f7520646f6e74206861766520656e6f7567682066756e6473000000000000600082015250565b6000611b00601a836115fc565b9150611b0b82611aca565b602082019050919050565b60006020820190508181036000830152611b2f81611af3565b9050919050565b7f4661696c656420746f2073656e64205553444300000000000000000000000000600082015250565b6000611b6c6013836115fc565b9150611b7782611b36565b602082019050919050565b60006020820190508181036000830152611b9b81611b5f565b9050919050565b600060a082019050611bb760008301886116e5565b611bc4602083018761120b565b611bd160408301866116e5565b611bde606083018561120b565b611beb608083018461120b565b969550505050505056fea2646970667358221220da12bc2527bad1ec1e54295ed481f7668645fb91d15d61e5270dc3ca7efbb38464736f6c63430008100033",
  "linkReferences": {},
  "deployedLinkReferences": {}
}