{
  "_format": "hh-sol-artifact-1",
  "contractName": "Rent",
  "sourceName": "contracts/Rent.sol",
  "abi": [
    {
      "inputs": [],
      "stateMutability": "nonpayable",
      "type": "constructor"
    },
    {
      "inputs": [],
      "name": "amount",
      "outputs": [
        {
          "internalType": "uint256",
          "name": "",
          "type": "uint256"
        }
      ],
      "stateMutability": "view",
      "type": "function"
    },
    {
      "inputs": [
        {
          "internalType": "address",
          "name": "_to",
          "type": "address"
        }
      ],
      "name": "getUserHash",
      "outputs": [
        {
          "internalType": "bytes32[]",
          "name": "",
          "type": "bytes32[]"
        }
      ],
      "stateMutability": "view",
      "type": "function"
    },
    {
      "inputs": [
        {
          "internalType": "address",
          "name": "_address",
          "type": "address"
        }
      ],
      "name": "numberOfFreePlacesPerUser",
      "outputs": [
        {
          "internalType": "uint256",
          "name": "",
          "type": "uint256"
        }
      ],
      "stateMutability": "view",
      "type": "function"
    },
    {
      "inputs": [
        {
          "internalType": "address",
          "name": "_address",
          "type": "address"
        }
      ],
      "name": "numberOfPlacesForAddress",
      "outputs": [
        {
          "internalType": "uint256",
          "name": "",
          "type": "uint256"
        }
      ],
      "stateMutability": "view",
      "type": "function"
    },
    {
      "inputs": [
        {
          "internalType": "address",
          "name": "_address",
          "type": "address"
        }
      ],
      "name": "numberOfRentedPlacesForAddress",
      "outputs": [
        {
          "internalType": "uint256",
          "name": "",
          "type": "uint256"
        }
      ],
      "stateMutability": "view",
      "type": "function"
    },
    {
      "inputs": [
        {
          "internalType": "address payable",
          "name": "_to",
          "type": "address"
        },
        {
          "internalType": "uint256",
          "name": "number_of_places",
          "type": "uint256"
        },
        {
          "internalType": "uint256",
          "name": "numberOfDays",
          "type": "uint256"
        }
      ],
      "name": "transfer",
      "outputs": [],
      "stateMutability": "payable",
      "type": "function"
    },
    {
      "inputs": [],
      "name": "usdc",
      "outputs": [
        {
          "internalType": "contract USDC",
          "name": "",
          "type": "address"
        }
      ],
      "stateMutability": "view",
      "type": "function"
    }
  ],
  "bytecode": "0x608060405260008054906101000a900473ffffffffffffffffffffffffffffffffffffffff16600160006101000a81548173ffffffffffffffffffffffffffffffffffffffff021916908373ffffffffffffffffffffffffffffffffffffffff16021790555060fa600355606460045534801561007b57600080fd5b5073a0b86991c6218b36c1d19d4a2e9eb0ce3606eb48600260006101000a81548173ffffffffffffffffffffffffffffffffffffffff021916908373ffffffffffffffffffffffffffffffffffffffff160217905550611152806100e06000396000f3fe6080604052600436106100705760003560e01c80633e413bee1161004e5780633e413bee1461010b57806364377452146101365780637247a7e714610173578063aa8c217c146101b057610070565b80630435e35214610075578063095bcdb6146100b25780632df2d93c146100ce575b600080fd5b34801561008157600080fd5b5061009c600480360381019061009791906109de565b6101db565b6040516100a99190610a24565b60405180910390f35b6100cc60048036038101906100c79190610aa9565b610346565b005b3480156100da57600080fd5b506100f560048036038101906100f091906109de565b6106d0565b6040516101029190610a24565b60405180910390f35b34801561011757600080fd5b506101206107b8565b60405161012d9190610b5b565b60405180910390f35b34801561014257600080fd5b5061015d600480360381019061015891906109de565b6107de565b60405161016a9190610c3e565b60405180910390f35b34801561017f57600080fd5b5061019a600480360381019061019591906109de565b610916565b6040516101a79190610a24565b60405180910390f35b3480156101bc57600080fd5b506101c561093b565b6040516101d29190610a24565b60405180910390f35b6000600454600160009054906101000a900473ffffffffffffffffffffffffffffffffffffffff1673ffffffffffffffffffffffffffffffffffffffff166318160ddd6040518163ffffffff1660e01b815260040160206040518083038186803b15801561024857600080fd5b505afa15801561025c573d6000803e3d6000fd5b505050506040513d601f19601f820116820180604052508101906102809190610c75565b600160009054906101000a900473ffffffffffffffffffffffffffffffffffffffff1673ffffffffffffffffffffffffffffffffffffffff166370a08231856040518263ffffffff1660e01b81526004016102db9190610cb1565b60206040518083038186803b1580156102f357600080fd5b505afa158015610307573d6000803e3d6000fd5b505050506040513d601f19601f8201168201806040525081019061032b9190610c75565b6103359190610d2a565b61033f9190610d5b565b9050919050565b61034f836101db565b82610359856106d0565b6103639190610db5565b111580156103715750600082115b6103b0576040517f08c379a00000000000000000000000000000000000000000000000000000000081526004016103a790610e68565b60405180910390fd5b816003546103be9190610d5b565b341015610400576040517f08c379a00000000000000000000000000000000000000000000000000000000081526004016103f790610ed4565b60405180910390fd5b6000600260009054906101000a900473ffffffffffffffffffffffffffffffffffffffff1673ffffffffffffffffffffffffffffffffffffffff166323b872dd3386601e86886003546104539190610d5b565b61045d9190610d5b565b6104679190610d2a565b6040518463ffffffff1660e01b815260040161048593929190610f15565b602060405180830381600087803b15801561049f57600080fd5b505af11580156104b3573d6000803e3d6000fd5b505050506040513d601f19601f820116820180604052508101906104d79190610f84565b905080610519576040517f08c379a000000000000000000000000000000000000000000000000000000000815260040161051090610ffd565b60405180910390fd5b6000620151808361052a9190610d5b565b426105359190610db5565b90506000805b6004548110156106c757426005828154811061055a5761055961101d565b5b90600052602060002090600402016002015410156106a75786600582815481106105875761058661101d565b5b906000526020600020906004020160000160006101000a81548173ffffffffffffffffffffffffffffffffffffffff021916908373ffffffffffffffffffffffffffffffffffffffff16021790555033600582815481106105eb576105ea61101d565b5b906000526020600020906004020160010160006101000a81548173ffffffffffffffffffffffffffffffffffffffff021916908373ffffffffffffffffffffffffffffffffffffffff160217905550826005828154811061064f5761064e61101d565b5b90600052602060002090600402016002018190555061066f878385610941565b600582815481106106835761068261101d565b5b90600052602060002090600402016003018190555081806106a39061104c565b9250505b858214156106b4576106c7565b80806106bf9061104c565b91505061053b565b50505050505050565b6000806000905060005b60648110156107ae578373ffffffffffffffffffffffffffffffffffffffff166005828154811061070e5761070d61101d565b5b906000526020600020906004020160000160009054906101000a900473ffffffffffffffffffffffffffffffffffffffff1673ffffffffffffffffffffffffffffffffffffffff16148015610787575042600582815481106107735761077261101d565b5b906000526020600020906004020160020154115b1561079b5781806107979061104c565b9250505b80806107a69061104c565b9150506106da565b5080915050919050565b600260009054906101000a900473ffffffffffffffffffffffffffffffffffffffff1681565b6060806000805b60045481101561090b578473ffffffffffffffffffffffffffffffffffffffff166005828154811061081a5761081961101d565b5b906000526020600020906004020160010160009054906101000a900473ffffffffffffffffffffffffffffffffffffffff1673ffffffffffffffffffffffffffffffffffffffff161480156108935750426005828154811061087f5761087e61101d565b5b906000526020600020906004020160020154115b156108a75781806108a39061104c565b9250505b600581815481106108bb576108ba61101d565b5b9060005260206000209060040201600301548383806108d99061104c565b9450815181106108ec576108eb61101d565b5b60200260200101818152505080806109039061104c565b9150506107e5565b508192505050919050565b6000610921826106d0565b61092a836101db565b6109349190611095565b9050919050565b60035481565b6000838333428560405160200161095c9594939291906110c9565b6040516020818303038152906040528051906020012090509392505050565b600080fd5b600073ffffffffffffffffffffffffffffffffffffffff82169050919050565b60006109ab82610980565b9050919050565b6109bb816109a0565b81146109c657600080fd5b50565b6000813590506109d8816109b2565b92915050565b6000602082840312156109f4576109f361097b565b5b6000610a02848285016109c9565b91505092915050565b6000819050919050565b610a1e81610a0b565b82525050565b6000602082019050610a396000830184610a15565b92915050565b6000610a4a82610980565b9050919050565b610a5a81610a3f565b8114610a6557600080fd5b50565b600081359050610a7781610a51565b92915050565b610a8681610a0b565b8114610a9157600080fd5b50565b600081359050610aa381610a7d565b92915050565b600080600060608486031215610ac257610ac161097b565b5b6000610ad086828701610a68565b9350506020610ae186828701610a94565b9250506040610af286828701610a94565b9150509250925092565b6000819050919050565b6000610b21610b1c610b1784610980565b610afc565b610980565b9050919050565b6000610b3382610b06565b9050919050565b6000610b4582610b28565b9050919050565b610b5581610b3a565b82525050565b6000602082019050610b706000830184610b4c565b92915050565b600081519050919050565b600082825260208201905092915050565b6000819050602082019050919050565b6000819050919050565b610bb581610ba2565b82525050565b6000610bc78383610bac565b60208301905092915050565b6000602082019050919050565b6000610beb82610b76565b610bf58185610b81565b9350610c0083610b92565b8060005b83811015610c31578151610c188882610bbb565b9750610c2383610bd3565b925050600181019050610c04565b5085935050505092915050565b60006020820190508181036000830152610c588184610be0565b905092915050565b600081519050610c6f81610a7d565b92915050565b600060208284031215610c8b57610c8a61097b565b5b6000610c9984828501610c60565b91505092915050565b610cab816109a0565b82525050565b6000602082019050610cc66000830184610ca2565b92915050565b7f4e487b7100000000000000000000000000000000000000000000000000000000600052601260045260246000fd5b7f4e487b7100000000000000000000000000000000000000000000000000000000600052601160045260246000fd5b6000610d3582610a0b565b9150610d4083610a0b565b925082610d5057610d4f610ccc565b5b828204905092915050565b6000610d6682610a0b565b9150610d7183610a0b565b9250817fffffffffffffffffffffffffffffffffffffffffffffffffffffffffffffffff0483118215151615610daa57610da9610cfb565b5b828202905092915050565b6000610dc082610a0b565b9150610dcb83610a0b565b9250827fffffffffffffffffffffffffffffffffffffffffffffffffffffffffffffffff03821115610e0057610dff610cfb565b5b828201905092915050565b600082825260208201905092915050565b7f616d6f756e742073686f756c64206265203e2030000000000000000000000000600082015250565b6000610e52601483610e0b565b9150610e5d82610e1c565b602082019050919050565b60006020820190508181036000830152610e8181610e45565b9050919050565b7f796f7520646f6e74206861766520656e6f7567682066756e6473000000000000600082015250565b6000610ebe601a83610e0b565b9150610ec982610e88565b602082019050919050565b60006020820190508181036000830152610eed81610eb1565b9050919050565b6000610eff82610b28565b9050919050565b610f0f81610ef4565b82525050565b6000606082019050610f2a6000830186610ca2565b610f376020830185610f06565b610f446040830184610a15565b949350505050565b60008115159050919050565b610f6181610f4c565b8114610f6c57600080fd5b50565b600081519050610f7e81610f58565b92915050565b600060208284031215610f9a57610f9961097b565b5b6000610fa884828501610f6f565b91505092915050565b7f4661696c656420746f2073656e64205553444300000000000000000000000000600082015250565b6000610fe7601383610e0b565b9150610ff282610fb1565b602082019050919050565b6000602082019050818103600083015261101681610fda565b9050919050565b7f4e487b7100000000000000000000000000000000000000000000000000000000600052603260045260246000fd5b600061105782610a0b565b91507fffffffffffffffffffffffffffffffffffffffffffffffffffffffffffffffff82141561108a57611089610cfb565b5b600182019050919050565b60006110a082610a0b565b91506110ab83610a0b565b9250828210156110be576110bd610cfb565b5b828203905092915050565b600060a0820190506110de6000830188610ca2565b6110eb6020830187610a15565b6110f86040830186610ca2565b6111056060830185610a15565b6111126080830184610a15565b969550505050505056fea2646970667358221220a7a68b7269f496982da177d7f2de289a734b20208e64d4e81a205e977e2d7a4964736f6c63430008090033",
  "linkReferences": {},
  "deployedLinkReferences": {}
}