{
  "_format": "hh-sol-artifact-1",
  "contractName": "Test",
  "sourceName": "contracts/Test.sol",
  "abi": [
    {
      "inputs": [],
      "stateMutability": "nonpayable",
      "type": "constructor"
    },
    {
      "inputs": [
        {
          "internalType": "uint256",
          "name": "_adresa",
          "type": "uint256"
        },
        {
          "internalType": "string",
          "name": "_ime",
          "type": "string"
        },
        {
          "internalType": "string",
          "name": "_prezime",
          "type": "string"
        }
      ],
      "name": "dodajOsobu",
      "outputs": [],
      "stateMutability": "nonpayable",
      "type": "function"
    },
    {
      "inputs": [],
      "name": "getPeople",
      "outputs": [
        {
          "internalType": "uint256[]",
          "name": "",
          "type": "uint256[]"
        },
        {
          "internalType": "string[]",
          "name": "",
          "type": "string[]"
        },
        {
          "internalType": "string[]",
          "name": "",
          "type": "string[]"
        }
      ],
      "stateMutability": "view",
      "type": "function"
    },
    {
      "inputs": [
        {
          "internalType": "uint256",
          "name": "_adresa",
          "type": "uint256"
        }
      ],
      "name": "obrisiOsobu",
      "outputs": [],
      "stateMutability": "nonpayable",
      "type": "function"
    },
    {
      "inputs": [
        {
          "internalType": "uint256",
          "name": "",
          "type": "uint256"
        }
      ],
      "name": "persons",
      "outputs": [
        {
          "internalType": "uint256",
          "name": "adresa",
          "type": "uint256"
        },
        {
          "internalType": "string",
          "name": "ime",
          "type": "string"
        },
        {
          "internalType": "string",
          "name": "prezime",
          "type": "string"
        }
      ],
      "stateMutability": "view",
      "type": "function"
    }
  ],
  "bytecode": "0x60806040523480156200001157600080fd5b5060006040518060600160405280600181526020016040518060400160405280600681526020017f4d696861696c000000000000000000000000000000000000000000000000000081525081526020016040518060400160405280600981526020017f4a6f76616e6f736b6900000000000000000000000000000000000000000000008152508152509080600181540180825580915050600190039060005260206000209060030201600090919091909150600082015181600001556020820151816001019081620000e4919062000733565b506040820151816002019081620000fc919062000733565b50505060006040518060600160405280600281526020016040518060400160405280600681526020017f416c656b7361000000000000000000000000000000000000000000000000000081525081526020016040518060400160405280600681526020017f50726f6b696300000000000000000000000000000000000000000000000000008152508152509080600181540180825580915050600190039060005260206000209060030201600090919091909150600082015181600001556020820151816001019081620001d1919062000733565b506040820151816002019081620001e9919062000733565b50505060006040518060600160405280600381526020016040518060400160405280600581526020017f5a61726b6f00000000000000000000000000000000000000000000000000000081525081526020016040518060400160405280600a81526020017f526164656e6b6f766963000000000000000000000000000000000000000000008152508152509080600181540180825580915050600190039060005260206000209060030201600090919091909150600082015181600001556020820151816001019081620002be919062000733565b506040820151816002019081620002d6919062000733565b50505060006040518060600160405280600481526020016040518060400160405280600581526020017f4d61726b6f00000000000000000000000000000000000000000000000000000081525081526020016040518060400160405280600a81526020017f4d696861696c6f766963000000000000000000000000000000000000000000008152508152509080600181540180825580915050600190039060005260206000209060030201600090919091909150600082015181600001556020820151816001019081620003ab919062000733565b506040820151816002019081620003c3919062000733565b50505060006040518060600160405280600581526020016040518060400160405280600481526020017f4976616e0000000000000000000000000000000000000000000000000000000081525081526020016040518060400160405280600681526020017f4a65767469630000000000000000000000000000000000000000000000000000815250815250908060018154018082558091505060019003906000526020600020906003020160009091909190915060008201518160000155602082015181600101908162000498919062000733565b506040820151816002019081620004b0919062000733565b5050506200081a565b600081519050919050565b7f4e487b7100000000000000000000000000000000000000000000000000000000600052604160045260246000fd5b7f4e487b7100000000000000000000000000000000000000000000000000000000600052602260045260246000fd5b600060028204905060018216806200053b57607f821691505b602082108103620005515762000550620004f3565b5b50919050565b60008190508160005260206000209050919050565b60006020601f8301049050919050565b600082821b905092915050565b600060088302620005bb7fffffffffffffffffffffffffffffffffffffffffffffffffffffffffffffffff826200057c565b620005c786836200057c565b95508019841693508086168417925050509392505050565b6000819050919050565b6000819050919050565b6000620006146200060e6200060884620005df565b620005e9565b620005df565b9050919050565b6000819050919050565b6200063083620005f3565b620006486200063f826200061b565b84845462000589565b825550505050565b600090565b6200065f62000650565b6200066c81848462000625565b505050565b5b8181101562000694576200068860008262000655565b60018101905062000672565b5050565b601f821115620006e357620006ad8162000557565b620006b8846200056c565b81016020851015620006c8578190505b620006e0620006d7856200056c565b83018262000671565b50505b505050565b600082821c905092915050565b60006200070860001984600802620006e8565b1980831691505092915050565b6000620007238383620006f5565b9150826002028217905092915050565b6200073e82620004b9565b67ffffffffffffffff8111156200075a5762000759620004c4565b5b62000766825462000522565b6200077382828562000698565b600060209050601f831160018114620007ab576000841562000796578287015190505b620007a2858262000715565b86555062000812565b601f198416620007bb8662000557565b60005b82811015620007e557848901518255600182019150602085019450602081019050620007be565b8683101562000805578489015162000801601f891682620006f5565b8355505b6001600288020188555050505b505050505050565b611176806200082a6000396000f3fe608060405234801561001057600080fd5b506004361061004c5760003560e01c80630318945f1461005157806317e9576d1461006d5780634f995d0814610089578063a2f9eac6146100a9575b600080fd5b61006b600480360381019061006691906108ba565b6100db565b005b61008760048036038101906100829190610945565b61015e565b005b6100916102ac565b6040516100a093929190610b71565b60405180910390f35b6100c360048036038101906100be9190610945565b610583565b6040516100d293929190610c16565b60405180910390f35b600060405180606001604052808581526020018481526020018381525090806001815401808255809150506001900390600052602060002090600302016000909190919091506000820151816000015560208201518160010190816101409190610e67565b5060408201518160020190816101569190610e67565b505050505050565b60006064905060005b6000805490508110156101bb57826000828154811061018957610188610f39565b5b906000526020600020906003020160000154036101a8578091506101bb565b80806101b390610f97565b915050610167565b50606481106101c957600080fd5b600060016000805490506101dd9190610fdf565b815481106101ee576101ed610f39565b5b9060005260206000209060030201600082815481106102105761020f610f39565b5b9060005260206000209060030201600082015481600001556001820181600101908161023c9190611029565b50600282018160020190816102519190611029565b50905050600080548061026757610266611111565b5b600190038181906000526020600020906003020160008082016000905560018201600061029491906106cd565b6002820160006102a491906106cd565b505090555050565b60608060606000808054905067ffffffffffffffff8111156102d1576102d061078f565b5b6040519080825280602002602001820160405280156102ff5781602001602082028036833780820191505090505b5090506000808054905067ffffffffffffffff8111156103225761032161078f565b5b60405190808252806020026020018201604052801561035557816020015b60608152602001906001900390816103405790505b5090506000808054905067ffffffffffffffff8111156103785761037761078f565b5b6040519080825280602002602001820160405280156103ab57816020015b60608152602001906001900390816103965790505b50905060005b6000805490508110156105715760008082815481106103d3576103d2610f39565b5b9060005260206000209060030201905080600001548583815181106103fb576103fa610f39565b5b60200260200101818152505080600101805461041690610c8a565b80601f016020809104026020016040519081016040528092919081815260200182805461044290610c8a565b801561048f5780601f106104645761010080835404028352916020019161048f565b820191906000526020600020905b81548152906001019060200180831161047257829003601f168201915b50505050508483815181106104a7576104a6610f39565b5b60200260200101819052508060020180546104c190610c8a565b80601f01602080910402602001604051908101604052809291908181526020018280546104ed90610c8a565b801561053a5780601f1061050f5761010080835404028352916020019161053a565b820191906000526020600020905b81548152906001019060200180831161051d57829003601f168201915b505050505083838151811061055257610551610f39565b5b602002602001018190525050808061056990610f97565b9150506103b1565b50828282955095509550505050909192565b6000818154811061059357600080fd5b90600052602060002090600302016000915090508060000154908060010180546105bc90610c8a565b80601f01602080910402602001604051908101604052809291908181526020018280546105e890610c8a565b80156106355780601f1061060a57610100808354040283529160200191610635565b820191906000526020600020905b81548152906001019060200180831161061857829003601f168201915b50505050509080600201805461064a90610c8a565b80601f016020809104026020016040519081016040528092919081815260200182805461067690610c8a565b80156106c35780601f10610698576101008083540402835291602001916106c3565b820191906000526020600020905b8154815290600101906020018083116106a657829003601f168201915b5050505050905083565b5080546106d990610c8a565b6000825580601f106106eb575061070a565b601f016020900490600052602060002090810190610709919061070d565b5b50565b5b8082111561072657600081600090555060010161070e565b5090565b6000604051905090565b600080fd5b600080fd5b6000819050919050565b6107518161073e565b811461075c57600080fd5b50565b60008135905061076e81610748565b92915050565b600080fd5b600080fd5b6000601f19601f8301169050919050565b7f4e487b7100000000000000000000000000000000000000000000000000000000600052604160045260246000fd5b6107c78261077e565b810181811067ffffffffffffffff821117156107e6576107e561078f565b5b80604052505050565b60006107f961072a565b905061080582826107be565b919050565b600067ffffffffffffffff8211156108255761082461078f565b5b61082e8261077e565b9050602081019050919050565b82818337600083830152505050565b600061085d6108588461080a565b6107ef565b90508281526020810184848401111561087957610878610779565b5b61088484828561083b565b509392505050565b600082601f8301126108a1576108a0610774565b5b81356108b184826020860161084a565b91505092915050565b6000806000606084860312156108d3576108d2610734565b5b60006108e18682870161075f565b935050602084013567ffffffffffffffff81111561090257610901610739565b5b61090e8682870161088c565b925050604084013567ffffffffffffffff81111561092f5761092e610739565b5b61093b8682870161088c565b9150509250925092565b60006020828403121561095b5761095a610734565b5b60006109698482850161075f565b91505092915050565b600081519050919050565b600082825260208201905092915050565b6000819050602082019050919050565b6109a78161073e565b82525050565b60006109b9838361099e565b60208301905092915050565b6000602082019050919050565b60006109dd82610972565b6109e7818561097d565b93506109f28361098e565b8060005b83811015610a23578151610a0a88826109ad565b9750610a15836109c5565b9250506001810190506109f6565b5085935050505092915050565b600081519050919050565b600082825260208201905092915050565b6000819050602082019050919050565b600081519050919050565b600082825260208201905092915050565b60005b83811015610a96578082015181840152602081019050610a7b565b60008484015250505050565b6000610aad82610a5c565b610ab78185610a67565b9350610ac7818560208601610a78565b610ad08161077e565b840191505092915050565b6000610ae78383610aa2565b905092915050565b6000602082019050919050565b6000610b0782610a30565b610b118185610a3b565b935083602082028501610b2385610a4c565b8060005b85811015610b5f5784840389528151610b408582610adb565b9450610b4b83610aef565b925060208a01995050600181019050610b27565b50829750879550505050505092915050565b60006060820190508181036000830152610b8b81866109d2565b90508181036020830152610b9f8185610afc565b90508181036040830152610bb38184610afc565b9050949350505050565b610bc68161073e565b82525050565b600082825260208201905092915050565b6000610be882610a5c565b610bf28185610bcc565b9350610c02818560208601610a78565b610c0b8161077e565b840191505092915050565b6000606082019050610c2b6000830186610bbd565b8181036020830152610c3d8185610bdd565b90508181036040830152610c518184610bdd565b9050949350505050565b7f4e487b7100000000000000000000000000000000000000000000000000000000600052602260045260246000fd5b60006002820490506001821680610ca257607f821691505b602082108103610cb557610cb4610c5b565b5b50919050565b60008190508160005260206000209050919050565b60006020601f8301049050919050565b600082821b905092915050565b600060088302610d1d7fffffffffffffffffffffffffffffffffffffffffffffffffffffffffffffffff82610ce0565b610d278683610ce0565b95508019841693508086168417925050509392505050565b6000819050919050565b6000610d64610d5f610d5a8461073e565b610d3f565b61073e565b9050919050565b6000819050919050565b610d7e83610d49565b610d92610d8a82610d6b565b848454610ced565b825550505050565b600090565b610da7610d9a565b610db2818484610d75565b505050565b5b81811015610dd657610dcb600082610d9f565b600181019050610db8565b5050565b601f821115610e1b57610dec81610cbb565b610df584610cd0565b81016020851015610e04578190505b610e18610e1085610cd0565b830182610db7565b50505b505050565b600082821c905092915050565b6000610e3e60001984600802610e20565b1980831691505092915050565b6000610e578383610e2d565b9150826002028217905092915050565b610e7082610a5c565b67ffffffffffffffff811115610e8957610e8861078f565b5b610e938254610c8a565b610e9e828285610dda565b600060209050601f831160018114610ed15760008415610ebf578287015190505b610ec98582610e4b565b865550610f31565b601f198416610edf86610cbb565b60005b82811015610f0757848901518255600182019150602085019450602081019050610ee2565b86831015610f245784890151610f20601f891682610e2d565b8355505b6001600288020188555050505b505050505050565b7f4e487b7100000000000000000000000000000000000000000000000000000000600052603260045260246000fd5b7f4e487b7100000000000000000000000000000000000000000000000000000000600052601160045260246000fd5b6000610fa28261073e565b91507fffffffffffffffffffffffffffffffffffffffffffffffffffffffffffffffff8203610fd457610fd3610f68565b5b600182019050919050565b6000610fea8261073e565b9150610ff58361073e565b925082820390508181111561100d5761100c610f68565b5b92915050565b60008154905061102281610c8a565b9050919050565b81810361103757505061110f565b61104082611013565b67ffffffffffffffff8111156110595761105861078f565b5b6110638254610c8a565b61106e828285610dda565b6000601f83116001811461109d576000841561108b578287015490505b6110958582610e4b565b865550611108565b601f1984166110ab87610cbb565b96506110b686610cbb565b60005b828110156110de578489015482556001820191506001850194506020810190506110b9565b868310156110fb57848901546110f7601f891682610e2d565b8355505b6001600288020188555050505b5050505050505b565b7f4e487b7100000000000000000000000000000000000000000000000000000000600052603160045260246000fdfea2646970667358221220716cc8b7d6cf4e83b82d99ff2a9fb1d27affd79636c209851577db736a96d55f64736f6c63430008100033",
  "linkReferences": {},
  "deployedLinkReferences": {}
}