{
  "_format": "hh-sol-artifact-1",
  "contractName": "TokenVendor",
  "sourceName": "contracts/TokenVendor.sol",
  "abi": [
    {
      "inputs": [
        {
          "internalType": "address",
          "name": "tokenAddress",
          "type": "address"
        },
        {
          "internalType": "address",
          "name": "rentAddress",
          "type": "address"
        }
      ],
      "stateMutability": "nonpayable",
      "type": "constructor"
    },
    {
      "inputs": [],
      "name": "getStakingBalance",
      "outputs": [
        {
          "internalType": "uint256",
          "name": "",
          "type": "uint256"
        }
      ],
      "stateMutability": "view",
      "type": "function"
    },
    {
      "inputs": [
        {
          "internalType": "uint256",
          "name": "_amount",
          "type": "uint256"
        },
        {
          "internalType": "uint256",
          "name": "places",
          "type": "uint256"
        },
        {
          "internalType": "uint256",
          "name": "total",
          "type": "uint256"
        }
      ],
      "name": "numberPlaces",
      "outputs": [
        {
          "internalType": "uint256",
          "name": "",
          "type": "uint256"
        }
      ],
      "stateMutability": "pure",
      "type": "function"
    },
    {
      "inputs": [
        {
          "internalType": "uint256",
          "name": "_amount",
          "type": "uint256"
        }
      ],
      "name": "stakeTokens",
      "outputs": [],
      "stateMutability": "nonpayable",
      "type": "function"
    },
    {
      "inputs": [
        {
          "internalType": "uint256",
          "name": "_amount",
          "type": "uint256"
        },
        {
          "internalType": "uint256",
          "name": "numberOfStakedTokens",
          "type": "uint256"
        }
      ],
      "name": "unstakeTokens",
      "outputs": [],
      "stateMutability": "nonpayable",
      "type": "function"
    }
  ],
  "bytecode": "0x608060405234801561001057600080fd5b50604051610ca2380380610ca28339818101604052810190610032919061011d565b816000806101000a81548173ffffffffffffffffffffffffffffffffffffffff021916908373ffffffffffffffffffffffffffffffffffffffff16021790555080600160006101000a81548173ffffffffffffffffffffffffffffffffffffffff021916908373ffffffffffffffffffffffffffffffffffffffff160217905550505061015d565b600080fd5b600073ffffffffffffffffffffffffffffffffffffffff82169050919050565b60006100ea826100bf565b9050919050565b6100fa816100df565b811461010557600080fd5b50565b600081519050610117816100f1565b92915050565b60008060408385031215610134576101336100ba565b5b600061014285828601610108565b925050602061015385828601610108565b9150509250929050565b610b368061016c6000396000f3fe608060405234801561001057600080fd5b506004361061004c5760003560e01c806362711a5d14610051578063634750391461006f5780637547c7a31461008b578063bab83713146100a7575b600080fd5b6100596100d7565b604051610066919061055d565b60405180910390f35b610089600480360381019061008491906105a9565b61011e565b005b6100a560048036038101906100a091906105e9565b6102eb565b005b6100c160048036038101906100bc9190610616565b610522565b6040516100ce919061055d565b60405180910390f35b6000600260003373ffffffffffffffffffffffffffffffffffffffff1673ffffffffffffffffffffffffffffffffffffffff16815260200190815260200160002054905090565b60008211610161576040517f08c379a0000000000000000000000000000000000000000000000000000000008152600401610158906106c6565b60405180910390fd5b81600260003373ffffffffffffffffffffffffffffffffffffffff1673ffffffffffffffffffffffffffffffffffffffff1681526020019081526020016000205410156101e3576040517f08c379a00000000000000000000000000000000000000000000000000000000081526004016101da90610732565b60405180910390fd5b60008054906101000a900473ffffffffffffffffffffffffffffffffffffffff1673ffffffffffffffffffffffffffffffffffffffff1663a9059cbb33846040518363ffffffff1660e01b815260040161023e929190610793565b602060405180830381600087803b15801561025857600080fd5b505af115801561026c573d6000803e3d6000fd5b505050506040513d601f19601f8201168201806040525081019061029091906107f4565b5081600260003373ffffffffffffffffffffffffffffffffffffffff1673ffffffffffffffffffffffffffffffffffffffff16815260200190815260200160002060008282546102e09190610850565b925050819055505050565b6000811161032e576040517f08c379a0000000000000000000000000000000000000000000000000000000008152600401610325906108d0565b60405180910390fd5b8060008054906101000a900473ffffffffffffffffffffffffffffffffffffffff1673ffffffffffffffffffffffffffffffffffffffff166370a08231336040518263ffffffff1660e01b815260040161038891906108f0565b60206040518083038186803b1580156103a057600080fd5b505afa1580156103b4573d6000803e3d6000fd5b505050506040513d601f19601f820116820180604052508101906103d89190610920565b1015610419576040517f08c379a000000000000000000000000000000000000000000000000000000000815260040161041090610999565b60405180910390fd5b60008054906101000a900473ffffffffffffffffffffffffffffffffffffffff1673ffffffffffffffffffffffffffffffffffffffff166323b872dd3330846040518463ffffffff1660e01b8152600401610476939291906109b9565b602060405180830381600087803b15801561049057600080fd5b505af11580156104a4573d6000803e3d6000fd5b505050506040513d601f19601f820116820180604052508101906104c891906107f4565b5080600260003373ffffffffffffffffffffffffffffffffffffffff1673ffffffffffffffffffffffffffffffffffffffff168152602001908152602001600020600082825461051891906109f0565b9250508190555050565b60008183856105319190610a46565b61053b9190610acf565b90509392505050565b6000819050919050565b61055781610544565b82525050565b6000602082019050610572600083018461054e565b92915050565b600080fd5b61058681610544565b811461059157600080fd5b50565b6000813590506105a38161057d565b92915050565b600080604083850312156105c0576105bf610578565b5b60006105ce85828601610594565b92505060206105df85828601610594565b9150509250929050565b6000602082840312156105ff576105fe610578565b5b600061060d84828501610594565b91505092915050565b60008060006060848603121561062f5761062e610578565b5b600061063d86828701610594565b935050602061064e86828701610594565b925050604061065f86828701610594565b9150509250925092565b600082825260208201905092915050565b7f20497a61626572692076656369206f6420300000000000000000000000000000600082015250565b60006106b0601283610669565b91506106bb8261067a565b602082019050919050565b600060208201905081810360008301526106df816106a3565b9050919050565b7f4e656d617320746f6c696b6f207374616b656f76616e696820746f6b656e6121600082015250565b600061071c602083610669565b9150610727826106e6565b602082019050919050565b6000602082019050818103600083015261074b8161070f565b9050919050565b600073ffffffffffffffffffffffffffffffffffffffff82169050919050565b600061077d82610752565b9050919050565b61078d81610772565b82525050565b60006040820190506107a86000830185610784565b6107b5602083018461054e565b9392505050565b60008115159050919050565b6107d1816107bc565b81146107dc57600080fd5b50565b6000815190506107ee816107c8565b92915050565b60006020828403121561080a57610809610578565b5b6000610818848285016107df565b91505092915050565b7f4e487b7100000000000000000000000000000000000000000000000000000000600052601160045260246000fd5b600061085b82610544565b915061086683610544565b92508282101561087957610878610821565b5b828203905092915050565b7f497a61626572692076656369206f642030000000000000000000000000000000600082015250565b60006108ba601183610669565b91506108c582610884565b602082019050919050565b600060208201905081810360008301526108e9816108ad565b9050919050565b60006020820190506109056000830184610784565b92915050565b60008151905061091a8161057d565b92915050565b60006020828403121561093657610935610578565b5b60006109448482850161090b565b91505092915050565b7f4e656d617320746f6c696b6f20746f6b656e6121000000000000000000000000600082015250565b6000610983601483610669565b915061098e8261094d565b602082019050919050565b600060208201905081810360008301526109b281610976565b9050919050565b60006060820190506109ce6000830186610784565b6109db6020830185610784565b6109e8604083018461054e565b949350505050565b60006109fb82610544565b9150610a0683610544565b9250827fffffffffffffffffffffffffffffffffffffffffffffffffffffffffffffffff03821115610a3b57610a3a610821565b5b828201905092915050565b6000610a5182610544565b9150610a5c83610544565b9250817fffffffffffffffffffffffffffffffffffffffffffffffffffffffffffffffff0483118215151615610a9557610a94610821565b5b828202905092915050565b7f4e487b7100000000000000000000000000000000000000000000000000000000600052601260045260246000fd5b6000610ada82610544565b9150610ae583610544565b925082610af557610af4610aa0565b5b82820490509291505056fea26469706673582212207678078890996ffaea5df16464e9275986a9a355f1de92e8d84421503fa7fc7e64736f6c63430008090033",
  "linkReferences": {},
  "deployedLinkReferences": {}
}