{
  "_format": "hh-sol-artifact-1",
  "contractName": "TokenVendor",
  "sourceName": "contracts/TokenVendor.sol",
  "abi": [
    {
      "inputs": [
        {
          "internalType": "address",
          "name": "tokenAddress",
          "type": "address"
        }
      ],
      "stateMutability": "nonpayable",
      "type": "constructor"
    },
    {
      "inputs": [
        {
          "internalType": "uint256",
          "name": "_amount",
          "type": "uint256"
        }
      ],
      "name": "stakeTokens",
      "outputs": [],
      "stateMutability": "nonpayable",
      "type": "function"
    },
    {
      "inputs": [
        {
          "internalType": "address",
          "name": "",
          "type": "address"
        }
      ],
      "name": "stakingBalance",
      "outputs": [
        {
          "internalType": "uint256",
          "name": "",
          "type": "uint256"
        }
      ],
      "stateMutability": "view",
      "type": "function"
    },
    {
      "inputs": [
        {
          "internalType": "uint256",
          "name": "_amount",
          "type": "uint256"
        }
      ],
      "name": "unstakeTokens",
      "outputs": [],
      "stateMutability": "nonpayable",
      "type": "function"
    }
  ],
  "bytecode": "0x608060405234801561001057600080fd5b50604051610ade380380610ade833981810160405281019061003291906100db565b806000806101000a81548173ffffffffffffffffffffffffffffffffffffffff021916908373ffffffffffffffffffffffffffffffffffffffff16021790555050610108565b600080fd5b600073ffffffffffffffffffffffffffffffffffffffff82169050919050565b60006100a88261007d565b9050919050565b6100b88161009d565b81146100c357600080fd5b50565b6000815190506100d5816100af565b92915050565b6000602082840312156100f1576100f0610078565b5b60006100ff848285016100c6565b91505092915050565b6109c7806101176000396000f3fe608060405234801561001057600080fd5b50600436106100415760003560e01c806345bc78ab14610046578063608e4dd0146100765780637547c7a314610092575b600080fd5b610060600480360381019061005b919061052c565b6100ae565b60405161006d9190610572565b60405180910390f35b610090600480360381019061008b91906105b9565b6100c6565b005b6100ac60048036038101906100a791906105b9565b610292565b005b60016020528060005260406000206000915090505481565b60008111610109576040517f08c379a000000000000000000000000000000000000000000000000000000000815260040161010090610643565b60405180910390fd5b80600160003373ffffffffffffffffffffffffffffffffffffffff1673ffffffffffffffffffffffffffffffffffffffff16815260200190815260200160002054101561018b576040517f08c379a0000000000000000000000000000000000000000000000000000000008152600401610182906106af565b60405180910390fd5b60008054906101000a900473ffffffffffffffffffffffffffffffffffffffff1673ffffffffffffffffffffffffffffffffffffffff1663a9059cbb33836040518363ffffffff1660e01b81526004016101e69291906106de565b602060405180830381600087803b15801561020057600080fd5b505af1158015610214573d6000803e3d6000fd5b505050506040513d601f19601f82011682018060405250810190610238919061073f565b5080600160003373ffffffffffffffffffffffffffffffffffffffff1673ffffffffffffffffffffffffffffffffffffffff1681526020019081526020016000206000828254610288919061079b565b9250508190555050565b600081116102d5576040517f08c379a00000000000000000000000000000000000000000000000000000000081526004016102cc9061081b565b60405180910390fd5b8060008054906101000a900473ffffffffffffffffffffffffffffffffffffffff1673ffffffffffffffffffffffffffffffffffffffff166370a08231336040518263ffffffff1660e01b815260040161032f919061083b565b60206040518083038186803b15801561034757600080fd5b505afa15801561035b573d6000803e3d6000fd5b505050506040513d601f19601f8201168201806040525081019061037f919061086b565b10156103c0576040517f08c379a00000000000000000000000000000000000000000000000000000000081526004016103b7906108e4565b60405180910390fd5b60008054906101000a900473ffffffffffffffffffffffffffffffffffffffff1673ffffffffffffffffffffffffffffffffffffffff166323b872dd3330846040518463ffffffff1660e01b815260040161041d93929190610904565b602060405180830381600087803b15801561043757600080fd5b505af115801561044b573d6000803e3d6000fd5b505050506040513d601f19601f8201168201806040525081019061046f919061073f565b5080600160003373ffffffffffffffffffffffffffffffffffffffff1673ffffffffffffffffffffffffffffffffffffffff16815260200190815260200160002060008282546104bf919061093b565b9250508190555050565b600080fd5b600073ffffffffffffffffffffffffffffffffffffffff82169050919050565b60006104f9826104ce565b9050919050565b610509816104ee565b811461051457600080fd5b50565b60008135905061052681610500565b92915050565b600060208284031215610542576105416104c9565b5b600061055084828501610517565b91505092915050565b6000819050919050565b61056c81610559565b82525050565b60006020820190506105876000830184610563565b92915050565b61059681610559565b81146105a157600080fd5b50565b6000813590506105b38161058d565b92915050565b6000602082840312156105cf576105ce6104c9565b5b60006105dd848285016105a4565b91505092915050565b600082825260208201905092915050565b7f20497a61626572692076656369206f6420300000000000000000000000000000600082015250565b600061062d6012836105e6565b9150610638826105f7565b602082019050919050565b6000602082019050818103600083015261065c81610620565b9050919050565b7f4e656d617320746f6c696b6f207374616b656f76616e696820746f6b656e6121600082015250565b60006106996020836105e6565b91506106a482610663565b602082019050919050565b600060208201905081810360008301526106c88161068c565b9050919050565b6106d8816104ee565b82525050565b60006040820190506106f360008301856106cf565b6107006020830184610563565b9392505050565b60008115159050919050565b61071c81610707565b811461072757600080fd5b50565b60008151905061073981610713565b92915050565b600060208284031215610755576107546104c9565b5b60006107638482850161072a565b91505092915050565b7f4e487b7100000000000000000000000000000000000000000000000000000000600052601160045260246000fd5b60006107a682610559565b91506107b183610559565b9250828210156107c4576107c361076c565b5b828203905092915050565b7f497a61626572692076656369206f642030000000000000000000000000000000600082015250565b60006108056011836105e6565b9150610810826107cf565b602082019050919050565b60006020820190508181036000830152610834816107f8565b9050919050565b600060208201905061085060008301846106cf565b92915050565b6000815190506108658161058d565b92915050565b600060208284031215610881576108806104c9565b5b600061088f84828501610856565b91505092915050565b7f4e656d617320746f6c696b6f20746f6b656e6121000000000000000000000000600082015250565b60006108ce6014836105e6565b91506108d982610898565b602082019050919050565b600060208201905081810360008301526108fd816108c1565b9050919050565b600060608201905061091960008301866106cf565b61092660208301856106cf565b6109336040830184610563565b949350505050565b600061094682610559565b915061095183610559565b9250827fffffffffffffffffffffffffffffffffffffffffffffffffffffffffffffffff038211156109865761098561076c565b5b82820190509291505056fea2646970667358221220b20bd739712ad2b6d1689e73025d17a18436a83dbbea2d0a1bf1ddc10b5ff19f64736f6c63430008090033",
  "linkReferences": {},
  "deployedLinkReferences": {}
}