{
  "_format": "hh-sol-artifact-1",
  "contractName": "TokenVendor",
  "sourceName": "contracts/TokenVendor.sol",
  "abi": [
    {
      "inputs": [
        {
          "internalType": "address",
          "name": "tokenAddress",
          "type": "address"
        },
        {
          "internalType": "address",
          "name": "rentAddress",
          "type": "address"
        }
      ],
      "stateMutability": "nonpayable",
      "type": "constructor"
    },
    {
      "inputs": [],
      "name": "getStakingBalance",
      "outputs": [
        {
          "internalType": "uint256",
          "name": "",
          "type": "uint256"
        }
      ],
      "stateMutability": "view",
      "type": "function"
    },
    {
      "inputs": [
        {
          "internalType": "uint256",
          "name": "_amount",
          "type": "uint256"
        }
      ],
      "name": "stakeTokens",
      "outputs": [],
      "stateMutability": "nonpayable",
      "type": "function"
    },
    {
      "inputs": [
        {
          "internalType": "uint256",
          "name": "_amount",
          "type": "uint256"
        },
        {
          "internalType": "uint256",
          "name": "numberOfStakedTokens",
          "type": "uint256"
        }
      ],
      "name": "unstakeTokens",
      "outputs": [],
      "stateMutability": "nonpayable",
      "type": "function"
    }
  ],
  "bytecode": "0x608060405234801561001057600080fd5b5060405162000ec238038062000ec28339818101604052810190610034919061011f565b816000806101000a81548173ffffffffffffffffffffffffffffffffffffffff021916908373ffffffffffffffffffffffffffffffffffffffff16021790555080600160006101000a81548173ffffffffffffffffffffffffffffffffffffffff021916908373ffffffffffffffffffffffffffffffffffffffff160217905550505061015f565b600080fd5b600073ffffffffffffffffffffffffffffffffffffffff82169050919050565b60006100ec826100c1565b9050919050565b6100fc816100e1565b811461010757600080fd5b50565b600081519050610119816100f3565b92915050565b60008060408385031215610136576101356100bc565b5b60006101448582860161010a565b92505060206101558582860161010a565b9150509250929050565b610d53806200016f6000396000f3fe608060405234801561001057600080fd5b50600436106100415760003560e01c806362711a5d1461004657806363475039146100645780637547c7a314610080575b600080fd5b61004e61009c565b60405161005b91906107ef565b60405180910390f35b61007e6004803603810190610079919061083b565b6100e3565b005b61009a6004803603810190610095919061087b565b6105bd565b005b6000600260003373ffffffffffffffffffffffffffffffffffffffff1673ffffffffffffffffffffffffffffffffffffffff16815260200190815260200160002054905090565b60008211610126576040517f08c379a000000000000000000000000000000000000000000000000000000000815260040161011d90610905565b60405180910390fd5b81600260003373ffffffffffffffffffffffffffffffffffffffff1673ffffffffffffffffffffffffffffffffffffffff1681526020019081526020016000205410156101a8576040517f08c379a000000000000000000000000000000000000000000000000000000000815260040161019f90610971565b60405180910390fd5b60008054906101000a900473ffffffffffffffffffffffffffffffffffffffff1673ffffffffffffffffffffffffffffffffffffffff1663a9059cbb33846040518363ffffffff1660e01b81526004016102039291906109d2565b6020604051808303816000875af1158015610222573d6000803e3d6000fd5b505050506040513d601f19601f820116820180604052508101906102469190610a33565b5060008060009054906101000a900473ffffffffffffffffffffffffffffffffffffffff1673ffffffffffffffffffffffffffffffffffffffff166318160ddd6040518163ffffffff1660e01b8152600401602060405180830381865afa1580156102b5573d6000803e3d6000fd5b505050506040513d601f19601f820116820180604052508101906102d99190610a75565b600160009054906101000a900473ffffffffffffffffffffffffffffffffffffffff1673ffffffffffffffffffffffffffffffffffffffff1663134f66016040518163ffffffff1660e01b8152600401602060405180830381865afa158015610346573d6000803e3d6000fd5b505050506040513d601f19601f8201168201806040525081019061036a9190610a75565b846103759190610ad1565b61037f9190610b5a565b905080600160009054906101000a900473ffffffffffffffffffffffffffffffffffffffff1673ffffffffffffffffffffffffffffffffffffffff166377d0670233856040518363ffffffff1660e01b81526004016103df9291906109d2565b602060405180830381865afa1580156103fc573d6000803e3d6000fd5b505050506040513d601f19601f820116820180604052508101906104209190610a75565b1015610562576000600160009054906101000a900473ffffffffffffffffffffffffffffffffffffffff1673ffffffffffffffffffffffffffffffffffffffff166377d0670233856040518363ffffffff1660e01b81526004016104859291906109d2565b602060405180830381865afa1580156104a2573d6000803e3d6000fd5b505050506040513d601f19601f820116820180604052508101906104c69190610a75565b826104d19190610b8b565b9050600160009054906101000a900473ffffffffffffffffffffffffffffffffffffffff1673ffffffffffffffffffffffffffffffffffffffff1663ae1d4871826040518263ffffffff1660e01b815260040161052e91906107ef565b600060405180830381600087803b15801561054857600080fd5b505af115801561055c573d6000803e3d6000fd5b50505050505b82600260003373ffffffffffffffffffffffffffffffffffffffff1673ffffffffffffffffffffffffffffffffffffffff16815260200190815260200160002060008282546105b19190610b8b565b92505081905550505050565b60008111610600576040517f08c379a00000000000000000000000000000000000000000000000000000000081526004016105f790610c0b565b60405180910390fd5b8060008054906101000a900473ffffffffffffffffffffffffffffffffffffffff1673ffffffffffffffffffffffffffffffffffffffff166370a08231336040518263ffffffff1660e01b815260040161065a9190610c2b565b602060405180830381865afa158015610677573d6000803e3d6000fd5b505050506040513d601f19601f8201168201806040525081019061069b9190610a75565b10156106dc576040517f08c379a00000000000000000000000000000000000000000000000000000000081526004016106d390610c92565b60405180910390fd5b60008054906101000a900473ffffffffffffffffffffffffffffffffffffffff1673ffffffffffffffffffffffffffffffffffffffff166323b872dd3330846040518463ffffffff1660e01b815260040161073993929190610cb2565b6020604051808303816000875af1158015610758573d6000803e3d6000fd5b505050506040513d601f19601f8201168201806040525081019061077c9190610a33565b5080600260003373ffffffffffffffffffffffffffffffffffffffff1673ffffffffffffffffffffffffffffffffffffffff16815260200190815260200160002060008282546107cc9190610ce9565b9250508190555050565b6000819050919050565b6107e9816107d6565b82525050565b600060208201905061080460008301846107e0565b92915050565b600080fd5b610818816107d6565b811461082357600080fd5b50565b6000813590506108358161080f565b92915050565b600080604083850312156108525761085161080a565b5b600061086085828601610826565b925050602061087185828601610826565b9150509250929050565b6000602082840312156108915761089061080a565b5b600061089f84828501610826565b91505092915050565b600082825260208201905092915050565b7f20497a61626572692076656369206f6420300000000000000000000000000000600082015250565b60006108ef6012836108a8565b91506108fa826108b9565b602082019050919050565b6000602082019050818103600083015261091e816108e2565b9050919050565b7f4e656d617320746f6c696b6f207374616b656f76616e696820746f6b656e6121600082015250565b600061095b6020836108a8565b915061096682610925565b602082019050919050565b6000602082019050818103600083015261098a8161094e565b9050919050565b600073ffffffffffffffffffffffffffffffffffffffff82169050919050565b60006109bc82610991565b9050919050565b6109cc816109b1565b82525050565b60006040820190506109e760008301856109c3565b6109f460208301846107e0565b9392505050565b60008115159050919050565b610a10816109fb565b8114610a1b57600080fd5b50565b600081519050610a2d81610a07565b92915050565b600060208284031215610a4957610a4861080a565b5b6000610a5784828501610a1e565b91505092915050565b600081519050610a6f8161080f565b92915050565b600060208284031215610a8b57610a8a61080a565b5b6000610a9984828501610a60565b91505092915050565b7f4e487b7100000000000000000000000000000000000000000000000000000000600052601160045260246000fd5b6000610adc826107d6565b9150610ae7836107d6565b9250817fffffffffffffffffffffffffffffffffffffffffffffffffffffffffffffffff0483118215151615610b2057610b1f610aa2565b5b828202905092915050565b7f4e487b7100000000000000000000000000000000000000000000000000000000600052601260045260246000fd5b6000610b65826107d6565b9150610b70836107d6565b925082610b8057610b7f610b2b565b5b828204905092915050565b6000610b96826107d6565b9150610ba1836107d6565b9250828203905081811115610bb957610bb8610aa2565b5b92915050565b7f497a61626572692076656369206f642030000000000000000000000000000000600082015250565b6000610bf56011836108a8565b9150610c0082610bbf565b602082019050919050565b60006020820190508181036000830152610c2481610be8565b9050919050565b6000602082019050610c4060008301846109c3565b92915050565b7f4e656d617320746f6c696b6f20746f6b656e6121000000000000000000000000600082015250565b6000610c7c6014836108a8565b9150610c8782610c46565b602082019050919050565b60006020820190508181036000830152610cab81610c6f565b9050919050565b6000606082019050610cc760008301866109c3565b610cd460208301856109c3565b610ce160408301846107e0565b949350505050565b6000610cf4826107d6565b9150610cff836107d6565b9250828201905080821115610d1757610d16610aa2565b5b9291505056fea264697066735822122073ff55b00a9dc45851638ca546430e8324039c95b471909bf757c8bd5dfecc0f64736f6c63430008100033",
  "linkReferences": {},
  "deployedLinkReferences": {}
}